:020000040800F2
:1000000040110020A11C0008C51700088D1C000825
:100010008D1C00088D1C00088D1C000800000000CD
:10002000000000000000000000000000551D000856
:100030008D1C000800000000011D0008153000089C
:10004000CD1E0008CD1E0008CD1E0008CD1E0008E4
:10005000CD1E0008CD1E0008CD1E0008CD1E0008D4
:10006000CD1E0008CD1E0008CD1E0008CD1E0008C4
:10007000CD1E0008CD1E0008CD1E0008CD1E0008B4
:10008000CD1E0008CD1E0008CD1E0008CD1E0008A4
:10009000CD1E0008CD1E0008CD1E0008CD1E000894
:1000A000CD1E0008CD1E0008CD1E0008CD1E000884
:1000B000CD1E0008CD1E0008CD1E0008CD1E000874
:1000C000CD1E0008CD1E0008CD1E0008CD1E000864
:1000D000CD1E0008CD1E0008CD1E0008CD1E000854
:1000E000CD1E0008CD1E0008CD1E0008CD1E000844
:1000F000CD1E0008CD1E0008CD1E0008CD1E000834
:10010000CD1E0008CD1E0008CD1E0008CD1E000823
:10011000CD1E0008CD1E0008CD1E0008CD1E000813
:10012000CD1E0008CD1E0008CD1E0008CD1E000803
:10013000CD1E0008CD1E0008CD1E0008CD1E0008F3
:10014000CD1E0008CD1E0008CD1E0008CD1E0008E3
:10015000CD1E0008CD1E0008CD1E0008CD1E0008D3
:10016000CD1E0008CD1E0008CD1E0008CD1E0008C3
:10017000CD1E0008CD1E0008CD1E0008CD1E0008B3
:10018000CD1E0008CD1E0008CD1E0008CD1E0008A3
:10019000CD1E0008CD1E0008CD1E0008CD1E000893
:1001A000CD1E0008CD1E0008CD1E0008CD1E000883
:1001B000CD1E0008CD1E0008CD1E0008CD1E000873
:0401C000CD1E000848
:1001C40053B94AB9002908BF00281CBF4FF0FF31BA
:1001D4004FF0FF3000F074B9ADF1080C6DE904CEB6
:1001E40000F006F8DDF804E0DDE9022304B070470E
:1001F4002DE9F047089E0D4604468846002B4DD154
:100204008A42944668D9B2FA82F252B101FA02F3F0
:10021400C2F1200120FA01F10CFA02FC41EA0308C0
:1002240094404FEA1C45210CB8FBF5FE1FFA8CF7ED
:1002340005FB1E8341EA03430EFB07F199420BD9E8
:100244001CEB03030EF1FF3080F01E81994240F253
:100254001B81AEF1020E63445B1AA4B2B3FBF5F04A
:1002640005FB103344EA034400FB07F7A7420AD90D
:100274001CEB040400F1FF3380F00881A74240F234
:10028400058164440238E41B40EA0E4000211EB19B
:10029400D4400023C6E90043BDE8F0878B4208D967
:1002A400002E00F0EE800021C6E900050846BDE8F6
:1002B400F087B3FA83F100294AD1AB4202D38242D8
:1002C40000F2F980841A65EB030301209846002E9E
:1002D400E2D0C6E90048DFE702B9FFDEB2FA82F2F3
:1002E400002A40F09180A1EB0C054FEA1C471FFA4D
:1002F4008CFE0121B5FBF7F307FB1350250C45EAEF
:1003040000450EFB03F0A84208D91CEB050503F1D8
:10031400FF3802D2A84200F2CB8043462D1AA4B281
:10032400B5FBF7F007FB105544EA05440EFB00FE4D
:10033400A64508D91CEB040400F1FF3502D2A645FA
:1003440000F2BB802846A4EB0E0440EA03409EE77B
:10035400C1F120078B4022FA07FC4CEA030C20FA77
:1003640007F405FA01F31C43FD404FEA1C4900FA67
:1003740001F3B5FBF9F8200C1FFA8CFE09FB1855A4
:1003840040EA054508FB0EF0A84202FA01F20BD937
:100394001CEB050508F1FF3A80F08880A84240F282
:1003A4008580A8F1020865442D1AA4B2B5FBF9F0C2
:1003B40009FB105544EA054500FB0EFEAE4508D97D
:1003C4001CEB050500F1FF346CD2AE456AD9023846
:1003D400654440EA0840A0FB0294A5EB0E05A54243
:1003E400C846A64656D353D05EB1B3EB080265EBBC
:1003F4000E0505FA07F722FA01F3CD401F43C6E9BB
:1004040000750021BDE8F087C2F1200320FA03F152
:100414000CFA02FC25FA03F395400D434FEA1C47FE
:100424001FFA8CFEB3FBF7F107FB11302B0C43EAE8
:10043400004301FB0EF0984204FA02F408D91CEBC5
:10044400030301F1FF382FD298422DD902396344B6
:100454001B1AADB2B3FBF7F007FB103345EA0345B3
:1004640000FB0EF3AB4208D91CEB050500F1FF3885
:1004740016D2AB4214D902386544ED1A40EA014160
:1004840038E73146304607E78646E5E61846FAE699
:100494004B45A9D2B9EB020864EB0C0E0138A3E773
:1004A4004046EAE7204694E74146D1E7D0467BE759
:1004B400023B654432E7084609E76444023842E7F0
:1004C400704700BF034613F8012B002AFBD1181A0A
:1004D4000138704738B50F4C204605F094FDB8B18B
:1004E4002269A568136823F0200313602B684FF476
:1004F4002022052120469847002809DB20216B692A
:100504002046984700214FF4967005F060FEF5E709
:1005140038BD00BF006700082DE9F04F93B00E46C8
:10052400194602F004030393C2F3C2030133069392
:100534008307DDF870A00492054640F08C81041D09
:10054400002840F08B8106F007063444C6F1080603
:1005540004274FF0FF30CDE901704FF000084A1E28
:10056400CDF81480C146434605B1216006980028A1
:1005740007DC86488142C0F0A4808548814280F02F
:10058400A080049810F0020E00F0BC804FF0010C23
:10059400601BBEF1000F00F09A80B0F5007FC0F040
:1005A40096806FF0150057E020385A2835D8DFE8D8
:1005B40000F05C34345C3431343434346B5C345C9B
:1005C4005C345C5C5C5C5C5C5C5C5C5C343434342F
:1005D40034343443343434434343343434345C3473
:1005E40034343434343434343434363434343434C5
:1005F400343434433436364343435C365A345C34FF
:100604002E362E3434816936343436346900002071
:1006140000230EE0029B013B0293002325E012F825
:10062400013C6C2B48D112F8023C00206C2B034691
:1006340045D00427019728E00AF1070A2AF0070A9F
:100644000734FAE802BC24F0070455B10EEB0400A9
:10065400B04204D96FF01B0013B0BDE8F08FC4E9B9
:1006640000BC083400230827019712F8010F002862
:1006740000F08280002B97D12528F6D1029B01330C
:10068400029301230427EFE70020013C3C44B4FB20
:10069400F7F47C4335B1DDF804C0ACEB050CA4449D
:1006A400B445D7D8002849D00699013906915AF89B
:1006B400041B59E71846ABE700200346E5E7082783
:1006C400B8E704984FF0000C00F0020E60E7B9F1AF
:1006D4000F0F3FF666AFEDB109F1480EEE44DDF8B9
:1006E40008B00EF810BCC0F387000EF8200CBCF163
:1006F400000F0BD060F07F000EF8200C08F1010809
:1007040009F101090434C5F1080EAEE7059801307A
:100714000590F5E7BCF1000F01D00136F0E703982E
:1007240002360028ECD10846CDE908320791FFF7DC
:10073400C9FEDDE9083207990644E1E70198042877
:1007440009D10AF104001DB1DAF800C0C4F800C0F0
:100754000434824689E7019808287FF422AF0AF11D
:10076400070A2AF0070000F1080A1DB1D0E900BC0D
:10077400C4E900BC083478E7631BB3F5806FBFF4A9
:1007840010AF3DB9A6F10804E01865E71865000844
:1007940018790008039A2860980828709DF8143086
:1007A400A2B1EB7085F80280B8F1000F05D00AA859
:1007B4000022C5F1010791450AD1C5F101030AAF31
:1007C4004FF0000A01930DF1380B33E06B70E9E749
:1007D40010F8013B13F0800F08D007EB040CB4456C
:1007E40003F07F033FF636AF04F8013B0132E2E742
:1007F400B8F1000F03D097F90020002A17DB039B00
:10080400E3B11AF80B2004F8012B0022019B1819FC
:100814001044B0423FF61EAF387804F8010B20466E
:100824000492029105F058FD049A029914440AF1C5
:10083400010A0137D145DBD1601B0DE73A78039BF0
:1008440055F8221045F8223008460291FFF73AFE87
:100854000299421CDAE76FF00D00FDE6072E3FF621
:1008640077AEF7E62DE9F04F95B000AF1E46BB6FAB
:1008740090F802B03A62C3F3C0030446BB618946F0
:1008840041B9457800780BEB800020444D451AD8D7
:10089400A0EB0409BBF1000F1FD0BB6F03F00103F1
:1008A400E278FA6112B1BA6F900718D4BBB93B6A07
:1008B4001BB132464946204698474D462846543790
:1008C400BD46BDE8F08F00F101084046FFF7FAFD90
:1008D4000130404409F10109D8E75B46E0E722789A
:1008E400BA6092469200FA6062683A613A6A04EB2E
:1008F4008A0A002A7DD14D460AEB0B09002B59D0F8
:10090400D0461646C14542D1D344BB6F13F0050F00
:100914000CBF4FF0020A4FF0010A4FF00008FB69C8
:100924009845CBD29BF80130AE4A54F82330934219
:100934000BF1020BC0F07081AB4A9342BA692CBF31
:100944004FF000094FF00109002A36D01BF8021CB1
:1009540038697B6204F025F87B6A70B3E9468AB093
:100964006A46A24B53613B69C2E906314FF40073F6
:1009740013849F4B42F8103F9E4800234FF41251BA
:1009840000F016FC023DCD4608F10108C7E718F84F
:10099400013B54F82300FFF795FDFB6F01303BB199
:1009A400D7F880309E423EBFFB6F23F81600013615
:1009B4000544A7E7CB461E46A7E7B9F1000F05D0CB
:1009C400BA6FD10705D4A5EB0A05DDE7BA6F920724
:1009D400DAD51846FFF776FDFB6F43B1D7F88030C0
:1009E4009E423FBFFA6F431C22F81630013605447D
:1009F400CAE7002B40F00081BBF1000F5CD0BA6F56
:100A0400550700F104817B6298460AEB0B02951CA2
:100A14000023F9698B4253D34B00BB6102EB4103C2
:100A2400BA6F6578B96F7B617B6A92072B4454BFB8
:100A34004FEA58020022C807DBB200F19C8011F093
:100A4400040F14BF414600216370A170E270F9687D
:100A54003B6A324620469847B0F1000AC0F2BD8096
:100A6400BB682370FB696570E37084F802B03B6A6D
:100A74003246414607F140009847051EFFF61EAF77
:100A8400FB68B9697869194459443B6A3246A9EB51
:100A9400010198470028C0F2A280554405444FF054
:100AA400000907F1300A7B6A994566D300213B6A45
:100AB40032460846984701E7C7F824B0D846A4E769
:100AC40015F8010CDFF81CC1786154F8200015F802
:100AD400021C604504D3DFF810C16045C0F0A38058
:100AE400B86980B34FF0000A3869C7E9002303F0FE
:100AF40058FFD7E9002318BBBAF1000F23D0B96F10
:100B0400C8070DD5786A796A07F1280C2830604443
:100B14000131D7F814C000F820CCC9B279620FE0D3
:100B2400B96F49070CD508F1280007F1280C08F122
:100B3400010100EB0C08786908F8100C5FFA81F8E1
:100B44000133023565E7B86F8007DBD408F1280C60
:100B540007F1280EF44408F101000CF8101C07F109
:100B6400500151FA80F008F10208796900F8101C6C
:100B74005FFA88F8E4E7002166E719F80A3087F895
:100B84002F3054F823B0FB6F23B3D7F88030994546
:100B940020D2FB6F33F819803B6A3246012107F1FA
:100BA4002F00984700281ADB0544B8F1000F06D13E
:100BB4005846FFF787FC00F101081FFA88F83B6AE2
:100BC4003246414658469847002808DB054409F157
:100BD400010968E74FF00008DEE755466EE6054672
:100BE4006CE600BF1865000818790008516F00080A
:100BF40004000001846B0008C7F824B007F130003A
:100C04004FF000085A46514605F066FBFDE6D8460B
:100C140007F140007B62F5E7BA69002A3FF4D6AEDB
:100C24004FF0000992E6B86900283FF468AFD7F89E
:100C340018A059E7014B1860704700BF000000205E
:100C4400034A536823F0020353600020704700BF37
:100C5400002004E0084B1A6842F480721A601A6893
:100C640042F400721A601A6842F480621A60034BFC
:100C7400034A1A60704700BF003C02405400002041
:100C84000024F4002DE9F047DFF8588004460746B5
:100C94004FF0010914B93846BDE8F08794FAA4F579
:100CA400B5FA85F509FA05F32E0108EB05156FEA87
:100CB400030A24EA03042B7B002BEBD058F80630FC
:100CC4001B694BB94644042273682846196807EA2D
:100CD4000A0704F03EF9DDE7284698470028D9D1F1
:100CE400F0E700BFEC6B000830B51049104889B03C
:100CF400002205F0C9FA0F4D0F4900220023CDE967
:100D0400062300240F23CDE90334CDE901440B4B22
:100D140000944FF44072284602F0A0FD084928468A
:100D240005F0BDF9204609B030BD00BF490D0008EB
:100D3400E804002020050020000A002065100008B7
:100D440005700008014802F0B7BC00BFCC000020C9
:100D54002DE9F047074620480E4604F0D4F88246B1
:100D6400002832D000252846BDE8F087237B83B1D4
:100D74002368DB680BB120469847636883F80680D4
:100D840023681B69CBB9636804221968204604F000
:100D9400E0F80AF1010A10344C45E7D3002FE2D001
:100DA400002DDFD02846FFF76DFF0546002EF7D053
:100DB4000021012005F00BFAF2E7204698470028AD
:100DC400E1D008FA0AF31D43E3E7044CDFF810907E
:100DD40005464FF00108DFE75C070020EC6B0008D4
:100DE400FC6B0008014B53F820007047FC6B0008B3
:100DF40008B5034608462BB1044A136000F054FCBE
:100E0400002008BD6FF01500FBE700BF04000020C0
:100E140010B5044C237813B9034802F04DFC0123A8
:100E2400237010BDF4090020CC00002010B5044646
:100E34000B4804F068F85CB1BFF35B8F094B53E8CF
:100E4400002F013A43E800210029F8D1BFF35B8F5A
:100E5400054805F025FA0548BDE8104002F02CBC11
:100E64005807002050070020E8040020CC00002090
:100E74000020064BBFF35B8F024653E8000F43E8A4
:100E840000210029F9D1BFF35B8F70475807002078
:100E940070B5FFF7EDFF084C084E0546B44200D389
:100EA40070BD63685B792BB123685B6813B1294615
:100EB400204698471034F1E7EC6B0008FC6B0008FF
:100EC40010B5044C0449204603F0A5FE034B1C60F6
:100ED40010BD00BF900000200C6C000854070020D7
:100EE4000D4A0E48002310B513700D4A13600D4AC5
:100EF4004FF47A711360FFF77BFFFFF7E1FF0A4BB2
:100F04000A4918468B4200D310BD1A1A5C681211A4
:100F1400013222711033F5E7F5090020254F00084E
:100F24005807002050070020EC6B0008FC6B0008F9
:100F3400014600220148002303F08EBE90000020E9
:100F4400014803F028BF00BF90000020024B014677
:100F5400186803F06FBF00BF54070020014803F076
:100F6400A4BF00BF9000002070B5264B187800285D
:100F740047D0FFF7E5FF054600283FD1224B234C1D
:100F84001B68002B13DD05F07DF90A22A0FB020388
:100F940002FB0133D4E90021801A40F2E93263EB09
:100FA4000103904273F1000301D3FFF771FFD4E909
:100FB400003213F57A7342F10002C4E90032BDE84D
:100FC4007040FFF7CBBF63685B7923B12368294680
:100FD4001B68204698471034B442F4D32846FFF7E0
:100FE400B5FFBFF35B8F0A4B53E8002F013A43E888
:100FF40000210029F8D1BFF35B8FBFE7054C064EF3
:10100400EAE770BDF409002058070020E00400203E
:1010140050070020EC6B0008FC6B000870B50D4D08
:10102400297861B90120FFF793FE0B4C0B4EB442B3
:1010340006D3FFF799FF0028FBD101232B7070BD65
:1010440063685B791BB1236820469B68984710341A
:10105400EDE700BFF5090020EC6B0008FC6B00080D
:1010640000212DE9F0470846FFF772FE044648B315
:101074004FF005084FF0000902F04AFE1A4B1860C1
:1010840030B11A4B1B68092B02DD194802F014FB1E
:10109400184FDFF85CA0002544B12046FFF7F2FDAD
:1010A400044618B94FF0FF384FF0FF39FFF75CFFE3
:1010B400064628B9B5B942464B46504602F030FBC5
:1010C4003546E9E74FF0FF384FF0FF39D4E72B6896
:1010D4009B691BB100221146284698471035BD4232
:1010E400F5D3E8E7044DFAE7600700205007002035
:1010F400CC000020FC6B0008EC6B000813B517480B
:1011040003F001FF164B1B7873B1EFF31184102326
:1011140083F31288BFF36F8FFFF726FF84F31188E0
:10112400BFF36F8F02B010BD0E4B1B68002BF9D0BC
:1011340048B900220023CDE900230B486422002390
:1011440003F0C2F8EEE70928ECD1074805F0A8F847
:10115400064802B0BDE8104002F0AEBA50070020C5
:10116400F509002060070020E8040020CC000020DE
:1011740010B5064B1B68044698472146A0600448F6
:1011840003F0EAFDBDE81040FFF7B8BF04000020FB
:1011940090000020044A054B9B1AB1EBD30F34BFD7
:1011A40052F83100002070477C6B0008EC6B00089B
:1011B4002DE9F04F8DB004AFC1F34A2878600C4696
:1011C40091469B460D0DB8F1000F5ED00026042316
:1011D400C7E90566FE61029307F10C0301930A2334
:1011E4000093324607F1140341464846FFF73AFBA1
:1011F400B0F5006FC24603461CD36C468AB0D9F8DA
:10120400041004AB2548C3E9050140F2FF71D9611C
:101214001A464FF400711984214B42F8103F2148BB
:1012240033464FF41251FFF7C3FFA5462437BD469A
:10123400BDE8F08FC0F30A0805F11700184420F048
:10124400070080083B60FFF773FE68F353240546EC
:1012540090B13B68144AC7E906361030042378611C
:10126400029307F10C0301930A230093514607F1FB
:1012740014034846FFF7F6FA68F3532479685B468B
:101284002246284603F085FED0E705F1170020F03A
:1012940007008008FFF74CFE0546EDE71A700008CA
:1012A40004000001AC6B0008694F00082DE9F04F01
:1012B40087B0DDE911579A46109BDDF84CB00393D3
:1012C400044689469046BFB1CDF800B03B462A4655
:1012D40010210020CDF814B0FFF71EF9B0F5006F0F
:1012E40006460AD31B4A1C4840F2FF73022107B08A
:1012F400BDE8F04F03F0A7BE3E4608F0070304F034
:1013040007084FEAC80848EA8318039B134C03F103
:101314001700304404EA462420F0070048EA040891
:10132400800848EA0358FFF703FE044640B13FB182
:10133400CDF800B03B462A4631461030FFF7ECF8B2
:10134400534642464946204607B0BDE8F04F03F0F5
:1013540020BE00BF59700008AC6B000800FE0F00EF
:10136400406820B1034BC01A40F3CF0070474FF0E0
:10137400FF3070477C6B00080EB403B503AB014625
:1013840053F8042B0448019300F02AFF02B05DF8DF
:1013940004EB03B0704700BF955000082DE9F04FEF
:1013A40089B099469DF84C300493DDE914B3059354
:1013B400169B0693049B179E04460F469246002BE9
:1013C40000F0EF8006F48073079303F0C0FD06F08D
:1013D40008050246002800F0B48087492046FFF73C
:1013E400CBFF804606F002034BB116F0440F40F0E9
:1013F400AA8082493A462046FFF7BEFF804406F0A1
:1014040001035BB17E4B049A7E4953F822207E4B44
:101414002046002A08BF1A46FFF7AEFF06F4807381
:10142400002B18BF4FF0000945B1784B049A784956
:1014340053F822202046FFF79FFF0546BAF1000F1C
:1014440005D0744952462046FFF796FF0544B9F18A
:10145400000F05D070494A462046FFF78DFF05442A
:101464006E484544BBF1000F04D06D495B462246EB
:1014740003F066FA069B002B4BD0DFF8A881069F89
:10148400102F28BF1027F30606D4B0064CBF6649B8
:1014940066492046FFF770FF4FF0000A554500F3F8
:1014A4008880DFF88CA1DFF88CB14FF00009B945D2
:1014B40080F08F80059B594613F809202046FFF7DA
:1014C4005BFF09F10109B9F1100F79D15A49DFF82D
:1014D4006CA12046FFF750FF4FF0000B5F4540F230
:1014E4008680059B13F80B20A2F120035F2B28BFF5
:1014F4002E2251462046FFF73FFF0BF1010BBBF1B3
:10150400100F6BD1059B3B440593069BDB1B069395
:10151400B5D1049B7BB1F10704D53B4A3949204638
:10152400FFF72AFFF20606D4B3064CBF3E493F49F3
:101534002046FFF721FF204609B0BDE8F04F03F035
:101544009ABD80464EE73E4B186800283FF456AFDC
:101554003C4B4FF47A7E1968B7FBF1F7B7FBF0F117
:1015640000FB11770EFB07F74FF46163B7FBF0FC48
:1015740000FB1C77B1FBF3F20EFB07F703FB121120
:10158400B7FBF0F73C203C23B1FBF3F300FB131152
:101594000091CDF804C02C4902972046FFF7ECFED9
:1015A4002CE71E48294B049DB9F1010F18BF1846BA
:1015B40058E741462046FFF7DFFE0AF1010A6DE7CE
:1015C40019F0070F7FF473AF41462046FFF7D4FEAE
:1015D4006DE751462046FFF7CFFE72E71BF0070F79
:1015E4007FF47CAF41462046FFF7C6FE76E74146CE
:1015F4002046FFF7C1FE80E7967000089A70000845
:10160400206C0008BF70000891700008346C00085A
:10161400C2700008C8700008CC700008955000081B
:10162400E5210008DC700008D2700008D1700008C1
:10163400DA700008D4700008DE700008E07000085A
:101644006407002068070020A3700008CB5000083E
:1016540073B542F20F738B4228BF0B4605680F4ADD
:1016640004460521684602F075FE63680C495B6810
:1016740006460B22284603F0F0FC636832466946AE
:1016840028465B6803F0E9FC636806495B681B2233
:10169400284603F0E2FC02B070BD00BFF071000800
:1016A4001F71000803710008084A10B50123084C93
:1016B40013600021A04204D801B11360054B1860E7
:1016C40010BD40085B000121F4E700BF680700205B
:1016D40040420F0064070020F8B5074F0D4604464A
:1016E4004618B44201D12846F8BD14F8011BBB6862
:1016F40001485B689847F4E720670008014B0360E2
:10170400002070477C6C00082DE9F047064600AFC6
:101714000C46002936D0E9468AB0D1E90012A36804
:101724006D462148A8464FF0050AC5E90501C5E9FB
:10173400072348F810AF1D48424600234FF42151B7
:10174400FFF736FDCD46D4E903126369AD46184868
:10175400C5F810A0C5E90501C5E90723134800230E
:1017640042464FF42151FFF723FDCD46E369114A68
:101774000E48012103F067FCA3690F4A0B480121BD
:1017840003F061FC012E07D1EFF305830B4A0748F0
:10179400103B314603F057FC2146304601F0F0FD82
:1017A400BD46BDE8F08700BF45710008D46B000852
:1017B40074710008A3710008B2710008E071000898
:1017C40008B5034B1B689847BDE8084000F006B80D
:1017D4001000002030BFFFF7FDBF00BF054B5A6962
:1017E4009B689A421FBF044A536843F08053536076
:1017F400704700BFC409002000ED00E070B52A4C1A
:1018040006460D4629482A4903F0DDFCA36AD9049B
:1018140032D52648274903F0D6FC1720A36A1A05B7
:1018240004D52248244903F0CEFC18201E4CA36A98
:101834009B0508D51D48214903F0C5FCA36BA26A8A
:1018440010041BD41920184CA36A590504D5174851
:101854001B4903F0B8FC1A20A36ADA051AD5134809
:10186400184903F0B0FC1B200F4A936A43F47F43EA
:10187400936200232B7070BD1620CFE7124A0B48E9
:10188400012103F0E0FB002EDCD0A36A23F4004323
:10189400A362D7E7A36A9B04E6D504480B4903F087
:1018A40092FC1C20E0E700BF00ED00E0D46B0008D0
:1018B400F3710008097200081A7200082D720008FA
:1018C4005B72000876720008467200088E72000887
:1018D40010B5204C2049214803F075FCA36A9901F6
:1018E40036D51E481E4903F06EFC1E20A36ADA0199
:1018F40004D51A481B4903F066FC1F20154CA36A43
:101904001B0304D51548184903F05DFC2120A36A84
:10191400590304D51148154903F055FC22200D4CF8
:10192400A36A9A0304D50D48114903F04CFC232003
:10193400A36ADB0304D509480E4903F044FC2420C0
:10194400044A936A6FEA03436FEA1343936210BD38
:101954001D20CBE700ED00E0BD720008D46B000849
:10196400D5720008E87200080273000820730008AA
:10197400457300085F7300082DE9F843364D80462F
:10198400894636483649174603F01DFCAB6ADE0625
:1019940027D53449314803F016FC1124AB6A1D07DE
:1019A40004D531492D4803F00EFC12242A4DAB6AAC
:1019B400980718D52D49294803F005FC6E6BAB6ACE
:1019C400190646D52A4A25483346012103F03BFB34
:1019D400B9F1000F03D0AB6A23F08003AB62132488
:1019E40003E01024DAE76FF015061B4DAB6ADA0743
:1019F40004D52049194803F0E6FB1424AB6A9B067E
:101A040004D51D49154803F0DEFB1524124B9A6AD0
:101A1400D50602D49A6A90070AD55B68190507D5DA
:101A24004146304600F00EFA10B180F309880224D2
:101A3400094B9A6A920642BF5A6A22F400525A62C9
:101A44009A6A42F0FF029A6200233B702046BDE886
:101A5400F8836FF01506C2E700ED00E0D46B0008D0
:101A64008A730008A07300081A720008D373000870
:101A7400EB730008017400088E7200082DE9F0432E
:101A84006E4B8BB0D3F8048000AF0D46C8F3080446
:101A9400002686F31188BFF36F8F02F07F43B3F102
:101AA4007F4F07D102F00C03082B05D16449654828
:101AB40003F089FB354603E0120701D405460126ED
:101AC4000023FB71E31E092B00F29780DFE803F08B
:101AD400058D908A9595959595935B495948DFF8BE
:101AE4005C814FF0000903F06EFB87F80790D8F88B
:101AF4002C4014F0020405D05449524803F063FB0F
:101B0400002407E0D8F82C30002B25DA50494D4842
:101B140003F059FBFB79DBB907F1080205F1200C4E
:101B240028686968134603C3083565451A46F7D122
:101B34007B6A002E7DD0C3F3080222B96FEA5323D7
:101B44006FEA43237B6207F108012046FFF7DCFDBF
:101B54002C37BD46BDE8F083D8F82C305B00D9D5CE
:101B64003C49384803F02FFBD8F81430AA6943F4F1
:101B74008073C8F81430BFF34F8FBFF36F8FD8F85A
:101B8400143032F8022C23F48073C8F81430BFF3F5
:101B94004F8FBFF36F8F4DF602739A420AD0D8F875
:101BA4002830DBB273B1FA1D01212846FFF7E4FEA9
:101BB4000446AFE72B68284A2248012103F043FA80
:101BC4002C68A7E7D8F8283013F47F4F04D0F91D08
:101BD4000120FFF713FEEBE7D8F828301B0C1B0499
:101BE400002B97D0FFF774FEE2E7FA1D0021DCE733
:101BF400F91D0020EDE719497FE7194A194B18F43C
:101C0400F87FE8468AB018BF13466A461649C2E907
:101C140005134FF400731384103C144BD46142F841
:101C2400103F084800234FF41151FFF7C1FAC5468D
:101C340066E723F4FF7323F0010383E700ED00E07C
:101C44004E740008D46B000879740008907400087E
:101C5400B1740008BF740008DE740008FA74000848
:101C640035740008207400081E7500080400000183
:101C7400044B5A6942F010025A615A6922F0080270
:101C84005A61704700ED00E0EFF30880EFF309813B
:101C940001B57246FFF7F2FE01BD00BF0A4880F3AA
:101CA4000888102080F3118808484FF40461401814
:101CB40080F30988EFF314800221084380F3148829
:101CC400BFF36F8F00F07EF8401100200013002056
:101CD400084B9B6883420BD1EFF3058343B1064B5A
:101CE4005A6842F080525A605A6A22F400425A6298
:101CF40002F014B8C409002000ED00E012498A681B
:101D04004FF030001044EFF3098C80E8F01F1020EE
:101D140080F31288BFF36F8F0C4F4FF000664A694F
:101D24008A603E60506F0023536780F3118804B5C6
:101D3400104600F0E7F8BDE8044002F1300090E8F6
:101D4400F01F8CF309887047C409002004ED00E0FB
:101D54001EF0040F0CBFEFF30880EFF309808169D4
:101D640011F8021C0229FFD001B5724603F027FACC
:101D740001BD00BF43B2002B08DB012200F01F00AD
:101D840002FA00F05B09024A42F82300704700BFE0
:101D940000E100E043B2002BA8BF03F1604301F16E
:101DA4000101B8BF064B4FEA0111ACBF03F5614313
:101DB40000F00F00C9B2B4BF195483F80013704780
:101DC40014ED00E00F4A08B50F4B22F07F029A6031
:101DD400BFF34F8FBFF36F8FD3F8882022F47002C4
:101DE400C3F88820EFF3148323F0040383F31488E7
:101DF400BFF36F8F01F0B2FB02F0B2F800F058F8B5
:101E040001F0F0FB0000000800ED00E042F8203C87
:101E1400009B42F81C3C0A49019B42F8183C029B77
:101E240042F8143C21F001014FF0807342F8043C65
:101E340042F8081C0023203A02654367704700BF3C
:101E4400FF490008094A0346906870B113F1160F60
:101E5400406E05D0A0F140029A4205D8834203D2D5
:101E6400814228BF0020704700207047C409002029
:101E740008B5094B98600E46154600F043F82C4609
:101E840086F309880020054B98472046002100224C
:101E94000023034C204700BFC4090020DB51000885
:101EA400FF490008014B10221A61704700ED00E061
:101EB400044800231021C2180133612B82F8001357
:101EC400F9D1704700E100E008B5EFF30583064A55
:101ED400103B02EBC30152F8330049688847BDE860
:101EE4000840FFF77BBC00BFC0670008024B034AF1
:101EF4000348012100F08EB80000022000000020F9
:101F04007C6C0008426E054B403A1A60044A40213A
:101F1400C3E901121846012100F086B89007002099
:101F240000000B1508B503461048D0F89020C2F302
:101F34000722013A934207D90D480E4A012103F0C2
:101F440082F86FF0150008BDC0F898300A6822F0D6
:101F54001F021A4342F01002C0F89C208A6842F023
:101F64000102C0F8A0201846EDE700BF00ED00E034
:101F7400CC6B0008357500082DE9FF410E469846E4
:101F840005460027B7420FDA686830B3B8F1000F8E
:101F940013D0441E20420BD0114A12483B46012163
:101FA40003F051F86FF01502104604B0BDE8F0815B
:101FB4001F28F1D92B681C42EED12B68019303F042
:101FC4001EF9AC6801A90443D0B20394FFF7AAFF39
:101FD40010F1160F0246E7D0013201370C35D1E774
:101FE4005B750008CC6B0008044B0522C3F89420F1
:101FF400BFF34F8FBFF36F8F704700BF00ED00E05A
:10200400BFF35F8F024B0022C3F89420704700BFD8
:1020140000ED00E010B5034C01232278FFF7ACFF7C
:10202400207010BDF709002008B50B4A0023127870
:10203400FFF7A2FF10F1160F07D0084A0021D2F8CB
:102044009030C3F30723984200DB08BDC2F8980020
:10205400C2F8A0100130F2E7F709002000ED00E01B
:102064002DE9F04358485949D0F890300D68C3F32E
:1020740007239D4285B000F2A480FFF7C1FF4968A1
:102084000022954201F10C011AD1514C514F257097
:102094006846FFF733FBDFF84081DFF840910646DE
:1020A4000025AE421FD1237847490020D1F8902063
:1020B400C2F3072293427EDBFFF796FF00204BE03A
:1020C400C0F8982051F80C3C23F01F03134343F04D
:1020D4001003C0F89C3051F8043C43F00103C0F8ED
:1020E400A0300132CDE7009901EB05132801DA682D
:1020F4003A40B2F5000F46D00AD8B2F5001F2ED0F0
:10210400B2F5800F35D0B2F5801F11D00135C8E784
:10211400B2F1807F41D0B2F1007FF7D10A589868BC
:1021240003F06DF85B6840F48020CDE901320AE0E9
:102134000A58986803F063F85B68CDE9013240F00F
:10214400885040F43020039001A92078FFF7EAFE7C
:1021540000282CDA6FF0150005B0BDE8F0830A58AA
:10216400986803F04CF85B6840EA0800CDE9013256
:10217400E9E70A58986803F042F85B6840EA090006
:10218400CDE90132DFE70A58986803F038F85B6854
:1021940040F08270CDE90132D5E70A58986803F01F
:1021A4002EF85B6840F08870CDE90132CBE72378E4
:1021B40001332370AAE7C1F89830C1F8A0000133B5
:1021C40074E74FF0FF30C7E700ED00E0886C0008CB
:1021D400F70900200000F0FF0000081100000207CA
:1021E400F0B587B007460E46144600211022684613
:1021F4001D4604F07FF802238DF802302A46054B71
:10220400019321466846CDE9047602F0CFF807B081
:10221400F0BD00BF2352000808B5024B1B68984765
:10222400002008BD9C070020034B044A18609378E3
:1022340043F00203937070479C07002014000020B1
:1022440008B50649064821F00701C1F1005202F51C
:10225400003202F038FB002008BD00BF471B0020FD
:10226400A00700202DE9F041104E114F054600242F
:102274004FF001082B7871691A19D2B208FA02F2E8
:1022840001EA02008A4309D153FA84F3706157F8D2
:1022940033201AB107EBC303596890476A780134B5
:1022A400E3B29A42E6D2BDE8F08100BF003C0140AF
:1022B400AC070020044B184400230133994200F872
:1022C400012BFADC704700BF6000002007B506222E
:1022D40001210020FFF7EEFF002211460620FFF740
:1022E40059FD012108460722FFF7E4FF00221146A9
:1022F4000720FFF74FFD082201210220FFF7DAFF34
:10230400002211460820FFF745FD09220121032080
:10231400FFF7D0FF002211460920FFF73BFD0A22F8
:1023240001210420FFF7C6FF002211460A20FFF70F
:1023340031FD052108461722FFF7BCFF0022114694
:102344001720FFF727FD282206210A20FFF7B2FFF6
:10235400002211462820FFF71DFD4FF48043074853
:102364004422CDE9002383681B6823B1694698475A
:1023740003B05DF804FB6FF05700F9E7C06500088F
:10238400034660B1B0FA80F2C2F11F02D2B205492D
:102394008856054A11680B431360FFF7EBBCFF2214
:1023A400F5E700BF60000020003C0140024A1368CA
:1023B40023EA000313607047003C014003290CD852
:1023C400DFE801F0020C10190E4B9A6822EA0002B1
:1023D4009A60DA6822EA0000D8607047094B9A686C
:1023E4000243F5E7074BDA680243DA609A6822EAA7
:1023F400000098607047034B9A6802439A60DA6859
:102404001043E9E7003C014030B5A8B1B0FA80F3CD
:10241400C3F11F03DBB20C4C54F83300884204D1DF
:1024240004EBC3056D68954208D048B944F83310ED
:1024340004EBC3035A6030BDFF23ECE70020FAE746
:102444006FF00F00F7E700BFAC07002060B1B0FAEF
:1024540080F3C3F11F03DBB2044A002142F83310B6
:1024640002EBC30359607047FF23F5E7AC07002074
:1024740000F0030304339A000F23934043EA9000CF
:10248400C3B20233054A52F82320030C02EA104077
:1024940093FAA3F3B3FA83F3D840704700380140AA
:1024A40038B5294B14461A680B88C3F30B03072B62
:1024B4000D460BD813B96FF0850038BD023B052BD0
:1024C40018D8DFE803F0393C393F2831442B0FD8C2
:1024D4002F2BF0D903F57D630121C3F30B0301FA1C
:1024E40003F31A490B4205D1DB03E4D5520801E09A
:1024F400A82BE0D122602B6823F47F6020F00F002A
:102504000028DAD0C3F31333226801330020B2FB6E
:10251400F3F32360D1E700F0BBF84FF4C073C008B5
:10252400584380082060E6E700F0B2F84FF4C07327
:10253400C0085843C008F5E700232360DBE74FF4E5
:10254400FA43FAE7024BF8E75400002011011000A7
:1025540000127A00013809289ABF034B33F910009E
:102564006FF08500704700BF1C6F000870B5444DC4
:10257400444C00F0B5F8284602F0F8FE00F014FED2
:10258400A368414AC3F30313D35C20FA03F6137818
:102594001D41AE4202D2284600F04EFE236843F4A9
:1025A40080232360236843F480332360354B1A6807
:1025B4009103FCD55A6F42F001025A675A6F920791
:1025C400FCD59A6802F00C02082A17D11A689407FD
:1025D40007D41A6842F001021A602A4A136898075D
:1025E400FCD5284B9A6822F003029A609A6812F08C
:1025F4000C0FFBD19A6822F0F0029A60214C2368F8
:1026040023F08073236023689901FCD4636823F466
:10261400403343F480336360636823F0706343F0B2
:102624000063636000F038F8236843F0807323602C
:10263400144B1A689201FCD59A6822F0F0029A6051
:102644009A6822F0030242F002029A609A6802F049
:102654000C02082AFAD1AE4202D3284600F0ECFD5F
:102664000A4B074A1A60074A936823F4E05343F479
:1026740080539360936823F460439360002070BD9B
:1026840000D8B80500380240E37700085400002061
:102694000048704700127A000C4B0D495A681140EB
:1026A4000C4A0A435A605A680B4922F4403242F4F5
:1026B40080325A605A6822F0E04242F480325A6012
:1026C4005A681140054A0A435A607047003802406C
:1026D4000080BFFF086040000080BFF00860400831
:1026E400064B1A6C42F080521A641B6C82B003F0E1
:1026F40080530193019B02B0704700BF0038024031
:1027040008B5074803F07FFC38B10648FFF78CFD95
:102714000448FEF78FFA002008BD6FF01200FBE7B3
:10272400206700082D2700080A2838B5074D0446FD
:1027340004D1AB680D215B6828469847AB68034811
:102744005B68E1B29847204638BD00BF20670008A7
:102754002DE9F843D0F80480D0F81090D8F8080098
:1027640017460E461C4602F065FDB7F5001F0546E8
:1027740015D13046D8F80840FFF77AFE84420CD1D0
:10278400314602F057FD0446FFF710FE2046FFF7DE
:102794005DFE00212046FFF711FE00241FE0B7F57F
:1027A400800F23D0B4F1806F1CD0B4F1C06F1BD064
:1027B400B4F1007F1DD1022711494A462846FFF78C
:1027C40023FE0446C0B9D8F80810304602F035FD9F
:1027D40028463946FFF7F2FD2846FFF7D1FD20468B
:1027E400BDE8F8830127E7E70327E5E76FF08504F1
:1027F400F5E76FF01504F2E76FF00F04EFE700BFA1
:10280400F155000838B50369044658600A4D284656
:1028140003F0F9FB60B1AB6861681B680C3123B14C
:102824002846984700EAE07038BD6FF05700F9E792
:102834006FF01200F8E700BFC065000810B5026928
:102844004368126ADB68C2F34202012A04D0022AF6
:1028540021D06FF0150010BD5868234AB1FBF2F285
:1028640020F03F0010435860186A013220F03F0006
:1028740002431A621D4AB1FBF2F140F6FC721142A6
:10288400DA6922F44F4208BF042122F0FF020A430E
:10289400DA610020DFE75868134AB1FBF2F220F056
:1028A4003F0010435860186A4FF49674624320F056
:1028B4003F004FF47A74B2FBF4F2013202431A621D
:1028C4000B4A914284BF0132B1FBF2F1DA6922F47E
:1028D4004F428CBF41F4004148F2010122F0FF0253
:1028E4001143D961D5E700BF40420F00400D0300FA
:1028F4007F4F120008B5044A0448012102F09AFBF4
:102904006FF0040008BD00BF4A7600089C6B000805
:1029140098B542680369D26883F84E1000AF29B9AC
:10292400136823F01A031360BD4698BD6C468AB041
:1029340003686A460848D161C2E905034FF400738D
:102944001384064B42F8103F054800234FF41151FD
:10295400FEF72EFCA546E7E76876000804000001B0
:102964009C6B0008F7B50446436806691C48DD689B
:102974000F4659688368DB68002201924BB9194AF3
:102984001948012102F056FB6FF00404204603B0FD
:10299400F0BD01AA98470028F1DB376206F1100761
:1029A4004FF0FF324FF0FF33384600F0B9FE2B688A
:1029B40023F001032B60204696F84E10FFF7A8FF82
:1029C40020460199FFF73AFF96F84D3004461BB1B3
:1029D4002B6843F001032B60384600F06DFED5E709
:1029E400C06500087C7600089C6B00082DE9F7435D
:1029F4000446476805694FF0FF320021284603F07A
:102A04003CFB00263B682046984785F84C6085F8D7
:102A14004E600122114605F1100003F02EFBDFF891
:102A2400DC90484603F0EFFA50B9354A35480121A5
:102A340002F000FB6FF01204204603B0BDE8F083FF
:102A4400D4F8048001AAD8F81400314603F0E6F85B
:102A5400031E07DB019B32461979186800F064F8FD
:102A6400031E22DA284A2748012102F0ECFA3B69C6
:102A7400264A934235D029D8254A934233D0254A51
:102A8400934232D00121244A1E4802F0D3FA002195
:102A9400204641F01001FFF765FF041E29DA1F4AA2
:102AA4001848012102F0C6FAC6E7D9F80830D8F868
:102AB40004101B682BB91A4A1248012102F0BAFA11
:102AC400D5E7484698470028D1D0F4E7154A934201
:102AD4000DD002F5C31202F520629342D2D10A212D
:102AE400D6E70621D4E70221D2E70421D0E7082162
:102AF400CEE7012385F84C3000249DE7C06500082B
:102B0400AA7600089C6B0008C976000840420F00B2
:102B1400A0860100801A0600037700081E770008CB
:102B2400E776000840E133002DE9F0471E4F0446E4
:102B340000EBC1060025B44201D1002014E0206856
:102B4400C30600F01F0911D4656845F02005C0F3E1
:102B5400481AC0F34420102823D857F82080B8F12D
:102B6400000F0DD16FF01200BDE8F087B9F1100F1E
:102B740004D0B9F1110FEAD16568E8E73025E6E73A
:102B8400404603F040FA0028ECD04B462A460AF0AF
:102B94000F01404602F03CFD002804F10804CADAA3
:102BA400E2E76FF01500DFE7086E000843681B6872
:102BB40003F1140252E8002F42F0010203F1140061
:102BC40040E800210029F3D1134A934213D0A2F51F
:102BD4004C4293420FD002F5806293420BD002F52F
:102BE4008062934207D002F58062934203D002F5DB
:102BF4004442934203D11A6942F040021A6103F13C
:102C04000C0252E8002F42F4807203F10C0040E8F9
:102C140000210029F3D170470010014043681B686C
:102C240003F1140252E8002F22F0010203F1140010
:102C340040E800210029F3D1134A934213D0A2F5AE
:102C44004C4293420FD002F5806293420BD002F5BE
:102C54008062934207D002F58062934203D002F56A
:102C64004442934203D11A6922F040021A6103F1EB
:102C74000C0252E8002F22F4807203F10C0040E8A9
:102C840000210029F3D1704700100140024A034893
:102C9400012102F0CFB900BF7C760008E46B000884
:102CA400F8B50369D0F804E05D680B79012B0C4694
:102CB40038D0022B0CBF4FF4806C4FF0000C6279BB
:102CC400022A9CBF364931F81270A27988BF4FF4AA
:102CD4000057042A29D0002B14BF4FF48056002635
:102CE400E379012BDEF800300CBF4FF44071002172
:102CF400A542DA681CD122F4B05242EA0C023243F3
:102D0400DA601A6922F4405217431F6143681A6853
:102D1400536923F440730B4353612968BDE8F840B9
:102D240003F0FBB84FF4C06CC9E74FF48056D7E703
:102D340002F4C06294451FBFDA6822F4C06242EA1A
:102D44000C02DA6043681A68136903F440539F4223
:102D54001FBF136923F440533B43136143681B684B
:102D6400DA6802F4805296421FBFDA6822F4805275
:102D74003243DA6043681A68536903F44073994232
:102D84001FBF536923F440730B43536121682B68BD
:102D9400994203D003F0C1F823682B60F8BD00BF4B
:102DA400306F00082DE9F34104694768054633484C
:102DB400206003F028F938B9314A3248012102F081
:102DC40039F96FF012040EE02068F96883681B6813
:102DD4006BB19847044660B9386A01AA002102F031
:102DE4001DFF041E0DDA204602B0BDE8F0816FF02D
:102DF4005704254A2348012102F01CF9002CF2DB78
:102E0400EAE7019B002219791868FFF78DFE041E7A
:102E1400E9DB6E682B693468D3F80480E36823F433
:102E24000053E360706803F0EEF808B9174AC4E78A
:102E3400D6E901018368DB6803B1984704F10C0308
:102E440053E8003F43F00C0304F10C0141E8003265
:102E5400002AF3D141462846FFF722FF337D1BB1F8
:102E6400636943F008036361E36843F40053E36078
:102E74007B6A284698470024B5E700BFC065000870
:102E8400AA760008E46B00087D7700089D770008A7
:102E94002DE9F04143681C6803695E680B79012BD6
:102EA4000D4661D0022B0CBF4FF48067002795F8C4
:102EB40005C0A979BCF1020F96BF344A4FF4005201
:102EC40032F81C20042952D0002B0CBF4FF0000E06
:102ED4004FF4805EA3F10308B8F1010F53D90BB18D
:102EE400042950D0B2F5805F44D0B2F5405F43D09E
:102EF400002A14BF032301239C4544D1BEF1000FD3
:102F04003CD0002F14BF0323042399423BD1EB7917
:102F1400C3B1012B37D11E4B9C4213D0A3F54C43B4
:102F24009C420FD003F580639C420BD003F5806371
:102F34009C4207D003F580639C4203D003F54443CD
:102F44009C4220D1E36823F40053E3602946FFF751
:102F5400A7FEE36843F40053E36095E8030086E8C2
:102F640003000020BDE8F0814FF4C0679FE74FF4F1
:102F7400805EAFE70023BFE70223BDE7002F0CBF4D
:102F840003230223C1E76FF08500EBE7306F0008ED
:102F9400001001404FF0E0239A69196998690C4BBD
:102FA4001B68002A08BF1A46002808BF184611F4F7
:102FB400803F084901D1824205D20A681A440A6056
:102FC4004FF0E02212690A681344181A704700BFD0
:102FD400BC090020C0090020094B102283F82320DB
:102FE400084B094A1A60094B002018604FF0E0238F
:102FF400013A5A6198611A6942F007021A617047EE
:1030040000ED00E0BC09002000A60E00C00900206D
:10301400684620F007018D4619B5FFF7BBFF104B3A
:103024001049D3E900420868001942F10002C3E9DB
:1030340000020D4A00230B60D2E900410B4B001B38
:10304400B0FBF3F043431B1941F10001C2E9003125
:1030540001F054F8FEF7C2FBBDE8194085467047FD
:10306400A8050020C0090020A005002000A60E002D
:10307400F8B5384F59B1421C09D14FF0E022136919
:1030840023F0010313614FF07F433B60F8BD431C01
:103094003D6803D0012802DC002404E0102011283C
:1030A400A8BF1120441EEFF31186102383F3128866
:1030B400BFF36F8FFFF76EFFDFF89CC0DCE90012EF
:1030C4004FF0E023401842F100029B69CCE9000272
:1030D400224A00211160224A1268811A1BD54EF639
:1030E40060223A604FF0E02138688A69013848610B
:1030F40093424FF00000886124D22B449B1ADCE9F0
:1031040000219B1841F10002CCE9003286F31188BA
:10311400BFF36F8FBAE7DFF84CE00EFB0411121A0D
:1031240001F56A2101F2FF51B1FBFEF10EFB012111
:103134000D4A9142D5D84EF6602291422CBF396097
:103144003A60CFE79B1ADCE900125B1842F10002F7
:10315400DAE700BFBC090020A8050020C009002050
:10316400A005002000A60E000060EA0038B5EFF3C9
:103174001185102383F31288BFF36F8F074B1868F0
:10318400074B1C68041BFFF705FF85F31188BFF389
:103194006F8F044B2044B0FBF3F038BDA80500202A
:1031A400A005002000A60E0008B520498B6803F096
:1031B4000C03082B07D00C2B20D01D481D4A042BD0
:1031C40008BF104608BD4A684B68496813F4800379
:1031D40014BF18481648C1F3881118BF002302F021
:1031E4003F02A1FB0001FCF7EBFF104B5B68C3F34C
:1031F400014301335B00B0FBF3F0E3E74A684B683B
:10320400496813F4800314BF0A480948C1F38811BC
:1032140018BF002302F03F02A1FB0001FCF7D0FF1E
:10322400024B5B68C3F30273E5E700BF003802405A
:103234000024F40000127A0000284CD0424B1B6892
:1032440003F44043B3F5404F10D103F10F6303F58A
:103254008C5398423D4A44D83D4B984271D8904291
:103264003DD83C4B984203D8002340E0002344E07F
:10327400022342E0364A904208D8344A90420CD89D
:10328400344A904249D923B9022349E0002B08BFAC
:103294000423012B38BF012342E0002B08BF032382
:1032A400F7E72C4A904203D9002B46D1022302E0CF
:1032B400294A904241D829490A6822F00F021A4348
:1032C4000A600A6802F00F02934206D00A6802F00C
:1032D4000F02934201D0012070470020704703235E
:1032E40005E00523904202D81A4A904202D81A4AAD
:1032F400904202D9012B38BF0123134A126802F409
:103304004042B2F5004F0BD102F10F6202F5A34225
:103314009042AFD9002B08BF05230F4A9042B8D87A
:10332400094A126802F44042B2F5804FC3D1074AF9
:103334009042B6D9002B08BF0323012B38BF0123C9
:10334400B9E70423CEE700BF00700040804A5D0562
:10335400000E27070087930380C3C901003C024085
:1033640010B50446FDF75AFE0348044A012101F052
:1033740061FE204602F052FED46B0008F377000889
:103384002DE9F843044600AF0D46EFF311881023EE
:1033940083F31288BFF36F8F0428294A98BF294BFF
:1033A4009668117C94BF53F82030274BE9468AB0C5
:1033B4006A462648C2E9073140F201339384244B1C
:1033C400C2E9050442F8103F224800234FF431516A
:1033D400FDF7EEFECD4645B1EB69C3F3080323B117
:1033E4001D4A1C48012101F025FE2EB1304602F091
:1033F40059FE08B1037803B91848E9468AB06A4609
:10340400174BD061C2E9053640F201331384154BE2
:1034140042F8103F00230F484FF41151FDF7C8FE46
:103424002946CD462046FFF79BFF88F31188BFF35A
:103434006F8F3046FEF74CFCBD46BDE8F88300BFF5
:10344400C4090020F06E000802780008187800080B
:1034540005000001D46B00084078000810780008CB
:10346400617800080400000138B50A4B53F8204085
:10347400013053F82050A54200D838BD606830B1FF
:10348400037FDB0701D402F0D1FD0834F3E723689E
:103494009847FAE7046F000870B52B4B2B4C2C4D62
:1034A400012286B003201A70FFF7DEFF00F04CFF04
:1034B40002F0D7FD0420FFF7D7FF2646AE4204F101
:1034C400300410D300F028FB204C224EAC4226D30B
:1034D40000F036FBFCF7FEFF1F4A137B23F00103C9
:1034E400137306B070BD54F80C3C059354F8103CAB
:1034F400049354F8143C039354F8183C029354F87E
:103504001C3C019354F8203C009354E90C0154E909
:103514000A2300F065F954F8303C5E65CDE7D4E940
:103524000A23B3F1FF3F08BFB2F1FF3F05D052EACF
:103534000301206803D100F0C7FB3034C6E73146ED
:10354400183000F057FDF8E7F8090020C86A0008B1
:10355400C86A00089F6100083006002008B50348C7
:10356400034A0021121A02F078FD08BDE000002091
:10357400FC09002070B5002386B00122CDE90423A4
:10358400134E144D01931022CDE902321249142333
:1035940003FB005506EBC01604464FF4C07000FB55
:1035A40004110E4B00954FF4A072304600F018F948
:1035B400737B0B482C7423F0040373734FF404637C
:1035C40003FB04041C44EE606C6006B070BD00BFD5
:1035D400B0050020C40900208011002069600008A3
:1035E40000130020BFB50020FFF73EFF2A4B83F3F2
:1035F40008882A4C2A4F636943F4007363610025E9
:10360400F02384F82230E57725766576A57684F86C
:103614002050636A43F4E0236362FEF729FBFEF75C
:1036240041FC4FF0FF33A362E362FEF719FDFEF79E
:103634005DFCFDF755FC1B481B4C00F03BF902F008
:10364400E1FCFDF707FB0120FFF70EFF0220FFF767
:103654000BFF00F0ABFA154B15495C61154B059354
:103664000123CDE903534FF480623B46CDE9015574
:103674000095204600F0B4F8627B064622F004026E
:103684002046627302F04CFD2846FFF773FF3A466A
:1036940031462046FEF7ECFB401B002000ED00E025
:1036A4009D340008B006002030060020C409002024
:1036B400400D0020C378000870B5EFF31186102385
:1036C40083F31288BFF36F8F0468A0421AD0CCB181
:1036D400D4E9003213605A60637B002523F00203AF
:1036E4006373C4E90055A56004F1180002F0A3FD5A
:1036F4002046A56702F014FD31460848BDE8704035
:1037040000F0E4B9D0E902329A4218BF0133836071
:1037140086F31188BFF36F8F70BD00BFF9090020D5
:1037240013B5EFF31181102484F31288BFF36F8F64
:10373400846844B1013C846081F31188BFF36F8FC6
:10374400002002B010BD52EA030406D181F31188AF
:10375400BFF36F8F6FF00F00F3E7CDE9002302464C
:10376400014800F087F9ECE7F90900202DE9F04160
:103774000546EFF31187102383F31288BFF36F8F8D
:1037840000231E466FF00A082C68A5421CD0DCB149
:10379400D4E9003213605A60637BA66023F002030D
:1037A4006373C4E9006604F1180002F044FDC4F830
:1037B4007880204602F0B4FC0123E5E787F3118802
:1037C400BFF36F8FBDE8F0810022AA60002BF5D013
:1037D40039460248BDE8F04100F078B9F909002003
:1037E400F0B5073285B022F0070204467F320E9D01
:1037F4000D9E2573583022F03F02C4E916000425BB
:1038040000203F2AA673C4E90600A0606573E07334
:1038140001F14007A2F1400605D880F31188BFF3F7
:103824006F8F284602DF8D180C9A02920B9A019230
:10383400C4E919760A9A00920026E6662A462046CA
:10384400FEF7E4FA044B66659B6803B11B6F2367BC
:10385400284605B0F0BD00BFC4090020F0B587B00C
:1038640000270597109F04970F9F03970E9F0297B9
:10387400DDE912650D9F01970C9F00970446FFF741
:10388400AFFFB5F1FF3F08BFB6F1FF3F05D055EAE2
:10389400060305D1204600F017FA204607B0F0BD14
:1038A400034932462B4604F1180000F0A3FBF4E769
:1038B4009F61000840F2011383810023C0E919339A
:1038C4000367014B98607047C4090020094A936854
:1038D4006FF00A019967084958674B6843F08053B1
:1038E4004B60002383F31188BFF36F8F9368986F45
:1038F400704700BFC409002000ED00E070B590F9E6
:103904000D20437B002A29DBD90627D11D4C63F007
:103914007F032246437352F8183F934224D01BB3CB
:10392400E66990F90E5093F90E108D4217D0491B99
:10393400002914DD5968C0E9003108605860A569A0
:10394400954200D005B9E568A3685A7BD20611D127
:10395400DA897F2A0ED9AA6962B9636170BDB3425C
:1039640002D01B68002BDED1E369C0E90023186094
:10397400E061E4E7AB4202D0284600F099FA6561C1
:10398400ECE700BFC409002038B590F90D20437B53
:10399400002A014604DA03F07F03437302F084FB38
:1039A4000D4D2A46AB6852F8184F944200D004B922
:1039B400EC688B4209D05A7BD20606D1DA897F2A79
:1039C40003D9A2690AB96B6138BDA34202D020466B
:1039D40000F06EFA6C61F7E7C409002070B590F945
:1039E4000D20437B002A014604DA03F07F0343736E
:1039F40002F05AFB4B7B1E4C63F07F0322464B7351
:103A040052F8183F934226D02BB3E66991F90E5031
:103A140093F90E00854219D0401B002816DD586822
:103A2400C1E9003001605960A569A368954200D0DE
:103A340005B9E5688B4214D05A7BD20611D1DA89D4
:103A44007F2A0ED9AA6962B9636170BDB34202D0FC
:103A54001B68002BDCD1E369C1E900231960E16133
:103A6400E2E7AB4202D0284600F022FA6561ECE7B7
:103A7400C4090020F8B5124B0C461146114A986847
:103A84001060DDE90676EFF31182102282F31288CA
:103A9400BFF36F8F9D68284602F018FBB6F1FF3F15
:103AA40008BFB7F1FF3F06D007493A46334605F150
:103AB400180000F09FFA2046BDE8F840FFF706BF63
:103AC400C4090020E40900209F61000849B9EFF30C
:103AD400058030B9054B5A699B689A4201D0FFF7BB
:103AE400F5BE81F31188BFF36F8F7047C4090020BE
:103AF400034648B9EFF3058232B9064A5169926820
:103B0400914201D0FFF7E2BE83F31188BFF36F8FB8
:103B1400704700BFC4090020EFF31181102383F321
:103B24001288BFF36F8F054B9A68D37B013BD37325
:103B340081F31188BFF36F8F704700BFC409002061
:103B440070B5EFF31186102383F31288BFF36F8FE0
:103B5400154DAB68DA7B0132DA732A4652F8184FF6
:103B6400944200D004B9EC685A7BD20614D1DA89A5
:103B74007F2A11D9A2697AB96B6186F31188BFF3E0
:103B84006F8FEFF31180102383F31288BFF36F8FCD
:103B9400BDE87040FFF7ACBFA34202D0204600F05E
:103BA40087F96C61E9E700BFC4090020024B03F107
:103BB4001802C3E906227047C409002070B5EFF368
:103BC4001186102383F31288BFF36F8F1B4CA168F7
:103BD400E0690B68814214BF1A46002249680B60F1
:103BE4005960A368E0692AB9154AC3E90020036053
:103BF400E3610DE093F90E5092F90E108D4219D045
:103C0400491B002916DD5168C3E900210B6053608C
:103C1400A5690B4B9D4200D005B9E568A3689D4298
:103C240002D0284600F044F965613046BDE8704092
:103C3400FFF74CBE8242D7D01268D4E7C4090020F3
:103C4400DC09002051EA00022DE9F04105460E4648
:103C540004D1FFF7B3FF0020BDE8F0816FF001004D
:103C6400401B4FF0FF3262EB0103002B24DA02F019
:103C740005FB4419EFF31188102383F31288BFF373
:103C84006F8F0E4F0E4BB8681860FFF77DFEB86853
:103C94000C492A463346183000F0ACF9BA68537B15
:103CA40043F0040353734046FFF710FE02F0E6FAB4
:103CB400201A20EAE070CFE70446DBE7C4090020BD
:103CC400E40900209F61000838B50446EFF311852C
:103CD400102383F31288BFF36F8F437B5B070FD5E9
:103CE400183002F0A8FA637B23F0040320466373C0
:103CF400FFF704FE29460548BDE83840FFF7E6BE55
:103D040085F31188BFF36F8F38BD00BFF909002018
:103D1400014B9868704700BFC40900202DE9F8439F
:103D24000446077BEFF31185102383F31288BFF356
:103D34006F8F437B190705D585F31188BFF36F8F08
:103D4400BDE8F883D90943F0080255D14273A3684A
:103D540013B1204602F0B0F904F1180002F06BFA36
:103D6400A66D04F15808B04511D04FF0000976B1A2
:103D7400304602F0A1F906F1180002F05CFAC6F828
:103D840078903046FFF7BAFDA66DB045EFD1DFF865
:103D9400B880D8F808309C4236D04FF00009D8F8E3
:103DA40018602A4A964200D00EB9D8F80C60B34283
:103DB40002D0304600F07CF8C8F81460B9F1000F66
:103DC40002D02348FFF776FDD8F808309C4236D15C
:103DD400EFF305839BBB227BD2071DD42846FFF754
:103DE40075FDFB07ACD5002383F31188BFF36F8FF8
:103DF4000423184602DFA3E703F07F0343F008031C
:103E0400437302F051F9A2E7EFF30589B9F1000910
:103E140018BF4FF00109C2E785F31188BFF36F8F14
:103E240083F31188BFF36F8F0423184602DFEFF387
:103E34001180102383F31288BFF36F8FCFE785F3CC
:103E44001188BFF36F8FCCE7C4090020DC09002080
:103E5400B0060020044BC01A044BC0105843044B56
:103E640001221A54704700BF30070020ABAAAAAA47
:103E7400F9090020C3897F2B12D80A4B1B6863B150
:103E8400094B90F90E201B689A4209DB437BDB0641
:103E940006D1064BC31A18BF012303F00100704773
:103EA4000023FAE7EC090020E8090020B00500200F
:103EB40070B50E4B1E7C0E4B06EB460403EBC4049C
:103EC4000546204602F0B7F90A4B00229A552846C7
:103ED400FFF7D0FF48B1084B08491A68013A204659
:103EE400D317BDE8704000F085B870BDC409002048
:103EF40030070020F9090020EC090020593E000891
:103F040038B5EFF31185102383F31288BFF36F8F55
:103F1400104B114A9C681068A04206D1FFF7C8FFF5
:103F240085F31188BFF36F8F38BD00211B7C1160AE
:103F34000A4AD35C002BF3D02046FFF79BFF0028EE
:103F4400EED0637BDB0602D12046FFF747FD204617
:103F5400E4E700BFC4090020E4090020F9090020B7
:103F64000748084A084908B5121A02F078F80748C1
:103F7400074A0849BDE80840121A02F070B800BFA9
:103F840000000020DC000020187900080000002058
:103F94000000002018790008024B1868984208BFF6
:103FA4000020704758000020034B1B680BB9FFF733
:103FB400DDB80020704700BFF009002030B570B1B3
:103FC4000B4B5B6898420AD0036843B1D3E90421E0
:103FD400D0E90445121941EB0501C3E90421D0E9F4
:103FE400003213605A600023C0E9003330BD00BFC3
:103FF40058000020B3F1FF3F08BFB2F1FF3F2DE9A5
:10400400F84304469846174667D08160EFF311865B
:10401400102383F31288BFF36F8F6FF00102D31B59
:104024004FF0FF3363EB0803002B1ADAFFF7BCFFF2
:104034007A1C48F10003121843EBE073C4E904232B
:1040440005460127FFF7A8FFDFF8A4E0DEF80480A7
:104054000346DBB9C4E900E8C8F80040CEF80440E0
:1040640026E0244BD3E90013521A4FF0FF3161EBE1
:104074000303D21B63EB0803012A73F10001BCBFE5
:1040840001220023C0E904230027DBE7D3E9041C51
:10409400D4E904208A4270EB0C0920DA8A1A6CEB0A
:1040A4000000C3E904205A68C4E9003214605C606B
:1040B400FFF772FF84420CD10F4B1B684BB917B941
:1040C400FFF772FF0546284602F09EF80021FEF72E
:1040D400CFFF86F31188BFF36F8FBDE8F883521AC0
:1040E40060EB0C009845C4E90420B3D01B68B0E72A
:1040F4005800002048070020F00900202DE9F0476F
:10410400EFF31185102383F31288BFF36F8FDFF869
:10411400A090DFF8A080C9F80000FFF73DFF00265B
:104124000027D9F80030D8E9002CD91750B1D0E9CC
:10413400044EA34271EB0E0A1BDAE41A6EEB01067D
:10414400C0E904469B184FF000044CEB01012046E3
:10415400C8E90031C9F8004002F056F82146FEF7DC
:1041640087FF85F31188BFF36F8FBDE8F047FFF732
:10417400C7BEA3184CEBE472C0E90467C8E9003277
:10418400FFF71CFF85F31188BFF36F8F836898478F
:10419400EFF31185102383F31288BFF36F8FD9F8DF
:1041A40000301B1BC9F80030FFF7F6FEB9E700BF6B
:1041B400F00900204807002010B5EFF31184102304
:1041C40083F31288BFF36F8FFFF7EEFE054B0146B2
:1041D400D3E90003081843EBE17184F31188BFF3BA
:1041E4006F8F10BD48070020F8B50446EFF3118720
:1041F400102383F31288BFF36F8F036823B187F30F
:104204001188BFF36F8FF8BDD0E90A26501C46F120
:104214000001022871F1000127D3012A76F100017F
:10422400BCBF01221E46551E46F1FF3602F02AF895
:10423400013041F10001401946EB0101012871F1FF
:10424400000339DB02F01EF8013041F1000342198A
:104254006FF0010046EB03034FF0FF31821A61EB6C
:10426400030318492046FFF7C5FE236B013323637C
:10427400236A6BB187F31188BFF36F8F236A2046DB
:104284009847EFF31187102383F31288BFF36F8FDE
:1042940054F8185FA542B2D0002DB0D0284601F0E2
:1042A4004EFF0023AB6787F31188BFF36F8F284657
:1042B400BDE8F84001F034BF6FF001024FF0FF3366
:1042C400CFE700BFED4100082DE9F0411146054656
:1042D4001C4690461F46EFF31186102383F3128881
:1042E400BFF36F8FB4F1FF3F08BFB2F1FF3F05D1B9
:1042F40086F31188BFF36F8FBDE8F0816FF0010082
:10430400801A4FF0FF3363EB0403002B09DA012A10
:1043140074F10003BCBF0121002411F1FF3844F102
:10432400FF37284601F087FFDDE906010023C5E9D0
:104334000A012B63034942463B462846FFF75AFECF
:10434400D6E700BFED410008014800F049BB00BFBB
:10435400CB7800080CB430B589B00C1E05464FF07C
:104364001C024FF0000101A8B8BF4FF0004401F057
:10437400C1FF02238DF806300B4B029305958CB1D7
:10438400601E05440DAA0C99069501A8009200F040
:104394000DF814B1059B00221A7009B0BDE8304035
:1043A40002B070472046ECE7016500082DE9F04FA4
:1043B4008378D0F804A099B09E07CDE90312814612
:1043C40016D507920B4600261D789DB1252D15D0D4
:1043D4000133029349462846D047002806F10106D6
:1043E40080F2A08199F8023043F0040389F8023086
:1043F4004FF0FF36304619B0BDE8F08F5D789A1C57
:10440400252D0292E6D04FF0000BD8465F465C465D
:104414000A231F2C22D8A5F12002102A20D8DFE875
:1044240002F0141F1F1A1F1F1F0B1F1F1F121F171D
:104434001F1F090044F00104029A12F8015B029262
:10444400002DE6D16CE044F0020444F00404F3E7E8
:1044540044F00804F0E744F01004EDE77F2C42D860
:10446400A5F13002092A09D8650602D503FB0828FC
:10447400E2E703FB072744F02004DDE72A2D13D1EC
:10448400BBF1000FD8D1079A14F0400F02F10401D8
:10449400079102D0D2F80080CEE71768002FEADA3D
:1044A4007F4244F02804C7E72E2D04D16006A1D42E
:1044B40044F04004C0E7242D15D1BBF1000F60D0B7
:1044C40014F04005049B0398079314BF42463A46F0
:1044D40007A901F085FF079A111D0A230791002DF2
:1044E400D8D11768A8E76C2D06D1220648BF44F43A
:1044F400007444F080049FE7682D06D1E50548BFA9
:1045040044F4007444F4807496E74C2D02D144F4CE
:10451400207491E76A2DFAD07A2D8DD0742D8BD02A
:10452400BBF1000F06D0049B039807935A4607A9D2
:1045340001F056FFB8F1000F45F02003B8BF24F096
:104544004004A3F16502BCBFA4B24FF00008022AE4
:1045540001D9612B1AD1079B9D4D073323F0070323
:10456400083307934FF0070824073CD505EB0804EC
:10457400A6EB050BA54205EB0B0636D1A7EB080706
:104584001FE1D8464446BB46474655E7632D09D14B
:10459400079B1A1D07921B688DF820304FF0010805
:1045A40008ADE1E7732D27D1079B1A1D07921D68FB
:1045B400884B002D08BF1D4614F0400F14BF414620
:1045C4004FF0FF31284601F09DFE8046CCE7494676
:1045D4002020D0470028FFF605AF013FB845A4EBE3
:1045E4000706F4D3C2E7F419F8E715F8010B4946B6
:1045F400D0470028BEDAF5E6642D01D0692D4FD1ED
:104604002006079B3CD5A10535D5073323F00703C6
:1046140003F108020792D3E90001002904DA4042B9
:1046240061EB410144F4806424F0100B1FFA8BF316
:10463400019350EA010305D1640603D5B8F1000FD4
:1046440000F08E800DF1200B0A235A4601F066FE1D
:10465400A0EB0B0B019B5C0640F1848023F001036B
:10466400D8459BB240F386801DB9019B23F011030A
:104674009BB2444678E01A1D07921868C117CCE72C
:104684001A1D0792E205196801D40846F6E7A30546
:104694004BBF48B208B241F3C01141F3C031BCE78B
:1046A400752D20D124F01004A4B20A2314F0800C38
:1046B400079A3ED014F400711DBF073222F007029E
:1046C40002F10801101D15BF07910790D2E90001FE
:1046D400106850EA010239D024F00604A2B2019213
:1046E4000DF1200BB1E76F2D1ED0702D04D144F0D5
:1046F400100410237825D9E7782B04D1C5F1780369
:1047040043F01003D2E7622B11D049462520D0474D
:104714000028FFF667AE49462846D0470028FFF632
:1047240061AE0236029B4FE608230025BEE7022352
:10473400BCE7111D079114F480711068C9D014F4FA
:1047440000711ABFC0B2614680B2C2E724F0160BF2
:104754001FFA8BF201926206C2D5B8F1000FBFD1E5
:10476400C34677E7019B5C4613F010022BD01DB9BA
:10477400013402E05C46F7E70234190707D4D9078D
:104784003BD5A7423BDD3C1B04EB0B083C46002A0F
:104794003ED049463020D0470028FFF623AE85BBE3
:1047A4000136B044A8EB06039B4542DBD8460BEB2D
:1047B40006050DF1200BA5EB0806B8F1000F40D15A
:1047C4003F1B37444EE040F206410B42D5D0CFE7C1
:1047D4000D790008067900084946202005920193C6
:1047E400D0470028FFF6FEAD019B059A0134A7428D
:1047F40006EB0401F0DC0E46C9E7361BF7E7D846A2
:10480400C5E7023649462846D0470028C9DAE9E513
:1048140040F206410B42C4D013F0020F14BF2B2008
:10482400202013F4806F06F10106494618BF2D209D
:10483400EAE749463020D047002806F10106B1DAFC
:10484400D0E508F1FF3849461BF80800D047002896
:10485400B1DAC7E549462020D047002806F1010611
:10486400FFF6C0ADBB1B002BF4DC5BE7704700EB2D
:10487400C100408840087047F8B50346FFF7F7FFCA
:10488400B0FA80F0C0F11F0003EB800CCA00DCF822
:104894001060171D0C4606328DB256B9012101FA7B
:1048A40000F0D9680143D960CCF81040DD539D5223
:1048B400F8BDF1000431585AD85303EBC0009E529E
:1048C400C5805D52F4E7043A2DE9F041CC1D114452
:1048D40024F0070421F007010E1BF708B7FA87F24A
:1048E400C2F12405AD004FF000080735C2F12002E3
:1048F400ED0804604146A760C4F80C80920004F1FE
:10490400100001F0F7FC6B0043F00103638004EB3B
:10491400C5027B1B5900A4F800805180A21924F819
:104924003550A2F80280A35304EBC70329465A88E2
:1049340042F001025A802046BDE8F041FFF79CBFD7
:104944002DE9F04706460D46174698462BB398F8CE
:10495400004093F80190DB7898F80200A40004EB7F
:104964004304044444444FF0000ACA4509D3D8F828
:10497400042008F1080339463046AC46BDE8F04748
:10498400604714F8013B48F823402046FBF79AFDA2
:10499400013004440AF1010AE7E76FF01500BDE8AD
:1049A400F08730B502460024002012F8013B43B1E1
:1049B40078B18C4207D1702B04D0A3F140053A2D75
:1049C40007D8002030BDA3F140053A2D01D80134A9
:1049D400EAE7252B08BF80F00100E6E700207047D6
:1049E4000FB407B504A951F8040B019100F09EFA25
:1049F40003B05DF804EB04B07047044608B50846FC
:104A040011461A46A047FFF783F9FDF761F910B57F
:104A1400044650182269236AD20702D5013B184084
:104A240010BD984228BFC01AFAE710B504460A46DA
:104A3400C168FFF7ECFF2369E06023F008032361FA
:104A440010BD38B50D46C2698B00016843F00203FE
:104A540042F82130044601682A46FFF7D8FFE3688C
:104A640061682060984202BF236943F00803236110
:104A74002A462046FFF7CBFF606038BD2DE9F74F8B
:104A8400D0F80C90C669CDE9002316F82920009BC4
:104A940002F00302022A08BF56F829200F464FF0FD
:104AA40000011960019B0CBFC2F39D0A8A460446AB
:104AB40006EB890B1960BAF1000F0AD05146FFF7D3
:104AC400B4FFE368A3604FF00108404603B0BDE8BB
:104AD400F08F01698A0702D44FF00008F5E7816975
:104AE4005846884716F8291011F001080546F3D0F6
:104AF4008B071DD51FB139462046FFF7A2FF616819
:104B04002A462046FFF783FFD4E9023199426060C8
:104B140006D12A462046FFF77AFF4FF00008A0602E
:104B2400A3682360E360236943F008032361CCE7AF
:104B340001462046FFF779FFE168A1601FB12068B4
:104B4400E16941F820A0019BEA191A602168204616
:104B5400FFF75DFF2269206042F00802226116F827
:104B64002920009B6FF3000206F82920C3F800B047
:104B7400ABE770B504461546FFF749FF2368834247
:104B840005D12369216023F00803236170BDE26924
:104B9400AB0043F0020342F82130204661682A4604
:104BA400FFF735FF6060F1E710B50369024613F0C3
:104BB400080002D00020086010BDD3681468A34226
:104BC40095BF136A1B1B1B1B0B609CBF0B60012052
:104BD400F2E713B501A90446FFF7E6FF20B1019BF4
:104BE400E268013B134401930198236AC0431844CB
:104BF40002B010BD38B503695B07044606D5456AA3
:104C0400FFF7E7FF854202D9606A606238BD20463B
:104C1400FFF7DFFFF9E738B50D4604461C220021F3
:104C240001F068FBEB68A361AB6863612B68E36127
:104C34006A682262002363622B6922B1511E114209
:104C440008BF43F001032361012204F1280000217D
:104C5400BDE8384001F011BA2DE9F04F9846036AD7
:104C640087B000258B4204460E46174603950595EA
:104C7400AA4646D3EFF311830193102383F31288DA
:104C8400BFF36F8F059ADDF804902AB129462046B8
:104C9400FFF76FFF0023059304A92046FFF784FF65
:104CA4000499B142834619D32268E36913F82210A8
:104CB40021F0030103F8221003EB820A2168324633
:104CC4002046FFF7A4FEE3682060984203D12369DD
:104CD40043F0080323614FF0000B03E0A8B1204622
:104CE400FFF7AFFE89F31188BFF36F8F039929B1E2
:104CF40062690AB12046904700230393BBF1000F79
:104D0400B8D1504607B0BDE8F08F57EA08031AD06F
:104D140001F0BFF9B8B9019BABB98BF31188BFF3AC
:104D24006F8F3A46434604F12800FEF7F9FCEFF38F
:104D34001189102383F31288BFF36F8FB0FA80FBBD
:104D44004FEA5B1BCEE70499256805AB03AA20460E
:104D5400FFF794FE8346C5E770B5044683690846A9
:104D64000D4698470246EFF31186102383F3128809
:104D7400BFF36F8F2B7843F001032B7061682046DB
:104D8400FFF745FE60602046FFF734FF86F3118885
:104D9400BFF36F8F70BD2DE9F04104461026EFF389
:104DA400118586F31288BFF36F8F2369A26813F00D
:104DB400080F02D163689A4200D9236A9B1AFBB197
:104DC400E06910F8221011F0030300EB820817D0F9
:104DD400022B03D150F82270BF0817D1CB0711D58D
:104DE40041F0020100F822104046A369A7689847E1
:104DF400394602462046FFF70AFE0023A06010E071
:104E040098460EE0A369404698470746A1683A468B
:104E14002046FFF7FCFD3946A0602046FFF705FE5B
:104E2400012385F31188BFF36F8F002BB7D1404660
:104E3400BDE8F081F8B50446836908460D469847F5
:104E44000646EFF31187102383F31288BFF36F8FA5
:104E54002B786FF300032B7023699B0705D5E26859
:104E6400E36903EB82039D421AD12B786FF341036C
:104E74002B70D4E90231994204D132462046FFF71F
:104E8400C6FDA06031462046FFF7CFFD87F31188A9
:104E9400BFF36F8F04F12800BDE8F840FEF70CBCA7
:104EA4002B6860F39F032B60F0E7EFF3118110236D
:104EB40083F31288BFF36F8F036913F0080F8368BD
:104EC40002D14268934209D9006AC31A81F3118856
:104ED400BFF36F8F181E18BF01207047D31AF5E770
:104EE400704703785B075FBF03684088C3F34A23B6
:104EF40003EB10105DBF173020F00700800800207E
:104F04007047002070470346BFF35B8F53E8000FE0
:104F1400421C43E800210029F8D1BFF35B8F70479E
:104F240008B501F0AFF90A23584308BD1FB50023A3
:104F3400CDE90201CDE900331A4619461846FCF7BB
:104F4400B5F905B05DF804FB0120FBF76FBF002045
:104F540070474368DA7143681960436801225A71E3
:104F6400FBF756BF70B503461546D2E90120121A65
:104F74008A420C460AD32E680A463044194601F088
:104F8400ABF9AB682344AB60204670BD6FF01B00E7
:104F9400FBE770B50E4615461946044618B9BDE838
:104FA4007040FBF743BF3BB100F11003C2F34A204A
:104FB4001844120D01F090F9C4E900562046BDE8EA
:104FC4007040FCF7D5B82DE9F3415F1C4FEA870820
:104FD400064608F1170020F0070080080C46154625
:104FE400FBF7A6FF0023ADF805308DF807308DF8E8
:104FF400047068B10346019A43F8102FA8F1040124
:105004002A46294452F8045B43F8045F8A42F9D1E2
:10501400A20102F4E07242EA482222F07F4222F422
:105024007002002322F03F02314602B0BDE8F04195
:10503400FFF7AFBF07B50123019201AAFFF7C3FF32
:1050440003B05DF804FB07B5CDE9002302236A46EB
:10505400FFF7B9FF03B05DF804FBF8B506460D464B
:1050640014461F4604B9F8BD214628463A46B047BF
:10507400241A0544F6E710B5426881680446D2E96B
:1050840000230068FFF7E9FF636800221A6010BD7F
:1050940038B54B681A68CB689A4205460C4602D16B
:1050A4000846FFF7E8FF6368BFF35B8F53E8002F00
:1050B400511C43E800100028F8D1BFF35B8FA368AC
:1050C4009D54002038BD0A2838B504460D4602D147
:1050D4000D20FFF7DDFF29462046FFF7D9FF00200A
:1050E40038BD2DE9F043054687B008460E8891F88F
:1050F4000090D1F808800C461746FCF731F9011EE0
:10510400C6F38216C9F3C2091EDB4846FCF742F80F
:1051140003462146608851F8102B0196C2F34A22B7
:10512400002A01EB0204C0F30B1008BF0021002287
:10513400CDE90407CDE90214009241462846FCF764
:105144002DF907B0BDE8F0830023E2E743681B684C
:105154005B6800201961704743681B681A685268CD
:10516400536070472DE9F04143681B685A68012178
:1051740011751D68D5E90136D3E900482F681CB9BB
:105184006B681C60BDE8F081214630464246B84752
:10519400241A0644F3E743681B681868FCF758BAF6
:1051A40070B543681D686B6818690C46FBF71AFEF6
:1051B400214603460F222868BDE87040184701467F
:1051C4000068FCF7A1BA0A460121FFF733BF0021AA
:1051D4000120FCF799BA61B662B680F31188BFF377
:1051E4006F8F704772B6002383F31188BFF36F8FFC
:1051F400BFF34F8F30BF62B6BFF36F8F7047202865
:1052040009D9B0F1004F08D80138B0FA80F0C0F1E4
:105214001F0040007047082070473E20704708B5C3
:10522400D1E904319847002008BD08B5FCF7F4FF24
:10523400002008BD01208840704700F003030433B8
:105244009A000F23934043EA900010B5C3B29B0029
:1052540003F1804303F59C33020C9C6824EA104458
:1052640092FAA2F0B0FA80F001FA00F020439860BC
:1052740010BD0B88C3F30B0303F57D62C2F30B026D
:10528400782A82B014D803F1804303F50E334868BA
:105294001A6802431A600B88C3F30B0303F18043BB
:1052A40003F50E3300201B680193019B02B0704785
:1052B4006FF08500FAE70B88C3F30B0303F57D62F7
:1052C400C2F30B02782A9FBF03F1804303F50E3328
:1052D40049681A689DBF8A4300201A606FF08500F0
:1052E400704710B50888C0F30B00FDF733F90028A8
:1052F4001FDB4A68FF2A1BD093B203F1804303F5F6
:105304000E33C2F384541868C2F3054204FA02F25D
:1053140020EA02021A6049688BB203F1804303F564
:105324000E33CA0E1868C1F305418A4002431A605D
:10533400002010BD0888C0F30B0008B500F57D639C
:10534400C3F30B03782B0AD800F1804000F50E302C
:105354004B680268934314BF0120022008BDFDF787
:10536400F9F8002814BF01200220F7E770474368CA
:105374005B681B690B600020704743685B68586971
:1053840042400A4042405A610020704743685B68CB
:1053940000209961704743685B68090499610020A3
:1053A400704743685A6853694B4053610020704703
:1053B40030B50369986810B3002481421BD1086892
:1053C4005CB9DC689860A14200D1D8600020086014
:1053D4004AB9002030BD2846EFE72060D8688142F2
:1053E40008BFDC60F2E79A680A60D8689960002810
:1053F400EFD1D960EEE705680446002DEBD1002A11
:10540400F1D16FF01500E5E7F0B544680120676855
:105414008840C2F3801627EA00078E403E43666048
:1054240090FAA0F7B7FA87F7D4F808C04FF0030E44
:105434007F000EFA07F72CEA070C90FAA0F7B7FAE8
:1054440087F7C2F3C1167F00BE4046EA0C06A66089
:1054540090FAA0F6B6FA86F6E76876000EFA06F633
:1054640027EA060790FAA0F6B6FA86F602F03005A7
:105474007600C2F34122B2403A43202DE26015D1B6
:1054840007292BD890FAA0F2216A2AB3B2FA82F241
:1054940092000F2606FA02F221EA020190FAA0F223
:1054A400B2FA82F2920093400B43236290FAA0F383
:1054B400B3FA83F3226890FAA0F05B000321B0FAF8
:1054C40080F02D0901FA03F3400022EA030305FAF0
:1054D40000F018432060F0BD2A46D9E7020A666A44
:1054E40092FAA2F181B1B1FA81F189000F2792FAFF
:1054F400A2F2B2FA82F207FA01F1920026EA01015D
:1055040093400B436362D1E72946EEE712F4003C73
:10551400F8B506460C4613461DD0950714D550071A
:105524005FD55022D90611D542F4007203F4C0614C
:10553400B1F5806F4AD0B1F5C06F1BD0B1F5007FD3
:105544001AD142F0800217E01022EBE79F06EDD556
:1055540042F48062EAE7D50307D5D00607D412F0F7
:10556400200218BF4FF48062E0E73022DEE74FF4F8
:105574000072DBE742F4C07213F44035376908D097
:10558400386920FA04F1C9075FBF0121A140014332
:105594003961BCF1000F06D018031AD571680123D4
:1055A4004968A3408B61706800232146FFF72CFFF4
:1055B400D5B93B6923FA04F2D20705D5012101FAD2
:1055C40004F423EA04033B6128460CE042F48072AD
:1055D400D2E75903E7D50121A1403046FFF7DBFEAE
:1055E400E1E76FF08500F8BD0020FCE770B50B46DD
:1055F4008968054659B15E680C688A682A4002D0F9
:105604004B683046984714B121462468F5E770BDCD
:10561400F8B51F46044640680E461546FFF7F4FEEB
:10562400112F07D101212B0501FA06F104D5636876
:105634005B6899610020F8BD2046FFF7ACFEF9E7EE
:1056440043680169DB685A6822F4C0625A605A6888
:1056540022F4C0625A605A6822F400725A605A688E
:1056640022F480625A6091F84D201AB95A6822F4E3
:1056740080725A607047F8B54368DC68236823F089
:1056840001032360FFF7DCFF27686668A368E56809
:10569400E069216A626AD4F800C04CF4004CC4F892
:1056A40000C0D4F800C09BB22CF4004CBFB2B6B218
:1056B40043F48043ADB280B289B292B2C4F800C060
:1056C40027606660A360E560E06121626262F8BD04
:1056D40038B543680569DC68FFF7B2FF95F84D30CB
:1056E4001BB9236823F00103236038BD0346006916
:1056F4005B68426CDB688AB1013A42641AB95A6841
:1057040022F480625A60826C1969127821F0FF01D8
:105714000A431A61836C013383647047C26A910738
:1057240042BF1A6842F400721A605A69520748BFAD
:105734001B69FDF7C1BF70B502690D46D2E90E6160
:1057440056EA010C536B044603D183B1002353631F
:1057540001E0002BFAD10EB10023936309B10023B9
:10576400D3632046FFF7B4FF6FF0040003E01DB9D4
:10577400FFF7AEFF284670BD1846FCE7C3685A68B9
:1057840042F480725A605A6842F400725A605A684D
:1057940042F480625A6070472DE9F0411F46436825
:1057A4000469DD680E4690462046FDF7DFFF736806
:1057B40063643368A364337AE36287F001070023E8
:1057C400C4E90C73C4E90E33A3622664A4F82480EC
:1057D4002B6843F001032B602B6823F400632B60D8
:1057E4002B6843F480632B60337A59070BD52B68FD
:1057F4009A0541BF23F400731B041B0C2B602B6818
:1058040043F480732B60BDE8F081034600695B6854
:10581400426CDB68002A3DD0022A21D0032A2BD017
:10582400012A2ED11A6822F480621A601A6822F4BE
:1058340000621A60C26A910742BF1A6842F4007299
:105844001A605A6822F480625A60426C013A4264D7
:10585400826C1B691370836C01338364FDF72CBF66
:10586400026C5268022A1DD81A6822F480621A60F7
:105874001A6842F400621A605A6822F480625A601C
:105884007047013A4264826C1B691370836C013364
:1058940083647047C26A920742BF1A6842F4007276
:1058A4001A60DBE7704710B443680269DB685C691F
:1058B400E40785B0014630D5106A918C10F00100E0
:1058C40013D0946AC91101F0060154B941F0F001F2
:1058D40090621A6922F0FF021143196105B010BCED
:1058E400704741F0F1010020F2E7106B490020B14C
:1058F4001A69C9B222F0FF02EEE7186941F001010A
:1059040020F0FF00C9B201431961526C022AE5D1AB
:105914001A6842F400621A60E0E75C69240707D55C
:10592400196992F8242021F0FF010A431A61D5E78E
:105934005C69A40739D5106A116BC00715D5A9B9DC
:10594400906AD0B191625A690192019A9A6901925E
:10595400019A1A68910541BF22F400721204120CD4
:105964001A601A6842F48072D5E731B15A6902921A
:10597400029A9B690293029BB0E7526C012A0AD1F6
:105984001A6822F480621A605A690392039A9B6926
:105994000393039BA2E7022AF6D11A6822F48062D9
:1059A4001A601A6842F40062EDE75C6964073AD54C
:1059B400146B24B1084605B010BCFFF797BE516CB8
:1059C400022905D0032920D005B010BCFFF71DBF64
:1059D400D16A8C0742BF196841F400711960516C97
:1059E40001395164916C18690870906C411C916480
:1059F400516C013951641B694370936C0133936496
:105A0400104605B010BCFDF757BE196821F480613B
:105A14001960516C01395164916C1B690B70936C62
:105A2400013393645AE75869000602D5106B0028C5
:105A3400C0D15B695B067FF551AF136B002B7FF41C
:105A44004DAF0846C0E743680269DB68596911F441
:105A5400806F59690BD021F480615961196841F450
:105A640000711960012393630069FDF725BE11F4E9
:105A7400007F596905D021F40071596101235363F2
:105A8400F2E7C90506D5596921F4807159610123EA
:105A9400D363E9E770472DE9FF4101AD85E80E00C6
:105AA4009DF80C300A9EBDF82C20076913F0010301
:105AB400044613D12946FFF76FFE6068FFF75EFEC8
:105AC400322200233846FDF72BFEC0B12046FFF7F3
