:020000040800F2
:1000000080200020B17F0608957906089D7F0608AC
:100010009D7F06089D7F06089D7F06080000000062
:1000200000000000000000000000000065800608DD
:100030009D7F060800000000118006082194060834
:10004000D9810608D9810608D9810608D981060810
:10005000D9810608D9810608D9810608D981060800
:10006000D9810608D9810608D9810608D9810608F0
:10007000D9810608D9810608D9810608D9810608E0
:10008000D9810608D9810608D9810608D9810608D0
:10009000D9810608D9810608D9810608D9810608C0
:1000A000D9810608D9810608D9810608D9810608B0
:1000B000D9810608D9810608D9810608D9810608A0
:1000C000D9810608D9810608D9810608D981060890
:1000D000D9810608D9810608D9810608D981060880
:1000E000D9810608D9810608D9810608D981060870
:1000F000D9810608D9810608D9810608D981060860
:10010000D9810608D9810608D9810608D98106084F
:10011000D9810608D9810608D9810608D98106083F
:10012000D9810608D9810608D9810608D98106082F
:10013000D9810608D9810608D9810608D98106081F
:10014000D9810608D9810608D9810608D98106080F
:10015000D9810608D9810608D9810608D9810608FF
:10016000D9810608D9810608D9810608D9810608EF
:10017000D9810608D9810608D9810608D9810608DF
:10018000D9810608D9810608D9810608D9810608CF
:10019000D9810608D9810608D9810608D9810608BF
:1001A000D9810608D9810608D9810608D9810608AF
:1001B000D9810608D9810608D9810608D98106089F
:0401C000D9810608D3
:1002000090F800F06DE9024520F007016FF0000C56
:1002100010F0070491F820F040F049804FF00004FE
:100220006FF00700D1E9002391F840F000F10800D9
:1002300082FA4CF2A4FA8CF283FA4CF3A2FA8CF311
:100240004BBBD1E9022382FA4CF200F10800A4FA78
:100250008CF283FA4CF3A2FA8CF3E3B9D1E90423CC
:1002600082FA4CF200F10800A4FA8CF283FA4CF303
:10027000A2FA8CF37BB9D1E9062301F1200182FABD
:100280004CF200F10800A4FA8CF283FA4CF3A2FAC3
:100290008CF3002BC6D0002A04BF04301A4612BAD1
:1002A000B2FA82F2FDE8024500EBD2007047D1E9D4
:1002B000002304F00305C4F100004FEAC50514F063
:1002C000040F91F840F00CFA05F562EA05021CBF34
:1002D00063EA050362464FF00004A9E7000000004E
:1002E00001F0FF01102A2BDB10F0070F08D010F8E7
:1002F000013B013A8B422DD010F0070F42B3F6D1EB
:10030000F0B441EA012141EA014122F007047FF003
:1003100000070023F0E80256083C85EA010586EA5A
:10032000010685FA47F5A3FA87F586FA47F6A5FA96
:1003300087F68EB9EED1F0BC01F0FF0102F00702A2
:1003400032B110F8013B013A83EA010313B1F8D14D
:100350000020704701387047002D06BF354603382E
:10036000073815F0010F07D1013015F4807F02BF67
:10037000013015F4C03F0130F0BC0138704700BFB8
:10038000844641EA000313F003036DD1403A41D3A0
:1003900051F8043B40F8043B51F8043B40F8043B5F
:1003A00051F8043B40F8043B51F8043B40F8043B4F
:1003B00051F8043B40F8043B51F8043B40F8043B3F
:1003C00051F8043B40F8043B51F8043B40F8043B2F
:1003D00051F8043B40F8043B51F8043B40F8043B1F
:1003E00051F8043B40F8043B51F8043B40F8043B0F
:1003F00051F8043B40F8043B51F8043B40F8043BFF
:1004000051F8043B40F8043B51F8043B40F8043BEE
:10041000403ABDD2303211D351F8043B40F8043B8E
:1004200051F8043B40F8043B51F8043B40F8043BCE
:1004300051F8043B40F8043B103AEDD20C3205D39E
:1004400051F8043B40F8043B043AF9D2043208D096
:10045000D2071CBF11F8013B00F8013B01D30B8808
:1004600003806046704700BF082A13D38B078DD0E6
:1004700010F003038AD0C3F10403D21ADB071CBFB8
:1004800011F8013B00F8013B80D331F8023B20F822
:10049000023B7BE7043AD9D3013A11F8013B00F85B
:1004A000013BF9D20B7803704B7843708B788370E3
:1004B0006046704781F0004102E000BF83F00043D6
:1004C00030B54FEA41044FEA430594EA050F08BFEF
:1004D00090EA020F1FBF54EA000C55EA020C7FEAB3
:1004E000645C7FEA655C00F0E2804FEA5454D4EB30
:1004F0005555B8BF6D420CDD2C4480EA020281EAFA
:10050000030382EA000083EA010180EA020281EA31
:100510000303362D88BF30BD11F0004F4FEA013183
:100520004FF4801C4CEA113102D0404261EB410192
:1005300013F0004F4FEA03334CEA133302D0524218
:1005400063EB430394EA050F00F0A780A4F10104D4
:10055000D5F1200E0DDB02FA0EFC22FA05F280180E
:1005600041F1000103FA0EF2801843FA05F35941F4
:100570000EE0A5F120050EF1200E012A03FA0EFC73
:1005800028BF4CF0020C43FA05F3C01851EBE3719D
:1005900001F0004507D54FF0000EDCF1000C7EEBBA
:1005A00000006EEB0101B1F5801F1BD3B1F5001FF8
:1005B0000CD349085FEA30004FEA3C0C04F1010417
:1005C0004FEA445212F5800F80F09A80BCF1004F40
:1005D00008BF5FEA500C50F1000041EB045141EAC2
:1005E000050130BD5FEA4C0C404141EB0101013C8B
:1005F00028BFB1F5801FE9D291F0000F04BF01467A
:100600000020B1FA81F308BF2033A3F10B03B3F14B
:1006100020020CDA0C3208DD02F1140CC2F10C02DB
:1006200001FA0CF021FA02F10CE002F11402D8BF39
:10063000C2F1200C01FA02F120FA0CFCDCBF41EA05
:100640000C019040E41AA2BF01EB0451294330BDD4
:100650006FEA04041F3C1CDA0C340EDC04F11404B1
:10066000C4F1200220FA04F001FA02F340EA030088
:1006700021FA04F345EA030130BDC4F10C04C4F1CE
:10068000200220FA02F001FA04F340EA03002946AE
:1006900030BD21FA04F0294630BD94F0000F83F4F8
:1006A000801306BF81F480110134013D4EE77FEADB
:1006B000645C18BF7FEA655C29D094EA050F08BF27
:1006C00090EA020F05D054EA000C04BF1946104608
:1006D00030BD91EA030F1EBF0021002030BD5FEA4C
:1006E000545C05D14000494128BF41F0004130BD74
:1006F00014F580043CBF01F5801130BD01F00045C8
:1007000045F0FE4141F470014FF0000030BD7FEA3A
:10071000645C1ABF194610467FEA655C1CBF0B4635
:10072000024650EA013406BF52EA033591EA030F4C
:1007300041F4002130BD00BF90F0000F04BF002144
:10074000704730B54FF4806404F132044FF0000577
:100750004FF0000150E700BF90F0000F04BF0021F0
:10076000704730B54FF4806404F1320410F0004556
:1007700048BF40424FF000013EE700BF42004FEA51
:10078000E2014FEA31014FEA02701FBF12F07F43CE
:1007900093F07F4F81F06051704732F07F4208BF85
:1007A000704793F07F4F04BF41F40021704730B58C
:1007B0004FF4607401F0004521F000411CE700BFD8
:1007C00050EA010208BF704730B54FF000050AE05B
:1007D00050EA010208BF704730B511F0004502D55C
:1007E000404261EB41014FF4806404F132045FEA5E
:1007F000915C3FF4D8AE4FF003025FEADC0C18BF07
:1008000003325FEADC0C18BF033202EBDC02C2F1F8
:10081000200300FA03FC20FA02F001FA03FE40EA8A
:100820000E0021FA02F11444BDE600BF70B54FF08E
:10083000FF0C4CF4E06C1CEA11541DBF1CEA13556C
:1008400094EA0C0F95EA0C0F00F0DEF82C4481EAD4
:10085000030621EA4C5123EA4C5350EA013518BFF4
:1008600052EA033541F4801143F4801338D0A0FBE1
:1008700002CE4FF00005E1FB02E506F00042E0FB8E
:1008800003E54FF00006E1FB03569CF0000F18BF94
:100890004EF0010EA4F1FF04B6F5007F64F540743C
:1008A00004D25FEA4E0E6D4146EB060642EAC621CF
:1008B00041EA55514FEAC52040EA5E504FEACE2E3C
:1008C000B4F1FD0C88BFBCF5E06F1ED8BEF1004F3F
:1008D00008BF5FEA500E50F1000041EB045170BDBB
:1008E00006F0004646EA010140EA020081EA0301FF
:1008F000B4EB5C04C2BFD4EB0C0541EA045170BDFB
:1009000041F480114FF0000E013C00F3AB8014F174
:10091000360FDEBF002001F0004170BDC4F10004BD
:10092000203C35DA0C341BDC04F11404C4F120053E
:1009300000FA05F320FA04F001FA05F240EA020099
:1009400001F0004221F0004110EBD37021FA04F6CF
:1009500042EB06015EEA430E08BF20EAD37070BD89
:10096000C4F10C04C4F1200500FA04F320FA05F0E8
:1009700001FA04F240EA020001F0004110EBD370EA
:1009800041F100015EEA430E08BF20EAD37070BD5A
:10099000C4F1200500FA05F24EEA020E20FA04F333
:1009A00001FA05F243EA020321FA04F001F00041E2
:1009B00021FA04F220EA020000EBD3705EEA430E53
:1009C00008BF20EAD37070BD94F0000F0FD101F082
:1009D0000046400041EB010111F4801F08BF013CBB
:1009E000F7D041EA060195F0000F18BF704703F0F9
:1009F0000046520043EB030313F4801F08BF013D80
:100A0000F7D043EA0603704794EA0C0F0CEA13553B
:100A100018BF95EA0C0F0CD050EA410618BF52EAF5
:100A20004306D1D181EA030101F000414FF00000FB
:100A300070BD50EA410606BF1046194652EA430609
:100A400019D094EA0C0F02D150EA013613D195EA7D
:100A50000C0F05D152EA03361CBF104619460AD1C5
:100A600081EA030101F0004141F0FE4141F47001CF
:100A70004FF0000070BD41F0FE4141F4780170BDBF
:100A800070B54FF0FF0C4CF4E06C1CEA11541DBF24
:100A90001CEA135594EA0C0F95EA0C0F00F0A7F826
:100AA000A4EB050481EA030E52EA03354FEA013153
:100AB00000F088804FEA03334FF0805545EA131366
:100AC00043EA12634FEA022245EA111545EA10652E
:100AD0004FEA00260EF000419D4208BF964244F1C5
:100AE000FD0404F5407402D25B084FEA3202B61AE4
:100AF00065EB03055B084FEA32024FF480104FF4B8
:100B0000002CB6EB020E75EB030E22BFB61A75462B
:100B100040EA0C005B084FEA3202B6EB020E75EBBE
:100B2000030E22BFB61A754640EA5C005B084FEA26
:100B30003202B6EB020E75EB030E22BFB61A7546F3
:100B400040EA9C005B084FEA3202B6EB020E75EBFE
:100B5000030E22BFB61A754640EADC0055EA060EBF
:100B600018D04FEA051545EA16754FEA06164FEA02
:100B7000C30343EA52734FEAC2025FEA1C1CC0D1AE
:100B800011F4801F0BD141EA00014FF000004FF03B
:100B9000004CB6E711F4801F04BF01430020B4F1FC
:100BA000FD0C88BFBCF5E06F3FF6AFAEB5EB030CB4
:100BB00004BFB6EB020C5FEA500C50F1000041EBB1
:100BC000045170BD0EF0004E4EEA113114EB5C047E
:100BD000C2BFD4EB0C0541EA045170BD41F4801151
:100BE0004FF0000E013C90E645EA060E8DE60CEA59
:100BF000135594EA0C0F08BF95EA0C0F3FF43BAF76
:100C000094EA0C0F0AD150EA01347FF434AF95EA2C
:100C10000C0F7FF425AF104619462CE795EA0C0F10
:100C200006D152EA03353FF4FDAE1046194622E7DD
:100C300050EA410618BF52EA43067FF4C5AE50EAB7
:100C400041047FF40DAF52EA43057FF4EBAE12E7A7
:100C50004FF0FF3C06E000BF4FF0010C02E000BF88
:100C60004FF0010C4DF804CD4FEA410C7FEA6C5C6B
:100C70004FEA430C18BF7FEA6C5C1BD001B050EA0E
:100C8000410C0CBF52EA430C91EA030F02BF90EAF9
:100C9000020F0020704710F1000F91EA030F58BFB8
:100CA000994208BF90422CBFD8176FEAE37040F01A
:100CB000010070474FEA410C7FEA6C5C02D150EAB8
:100CC000013C07D14FEA430C7FEA6C5CD6D152EA73
:100CD000033CD3D05DF8040B704700BF8446104638
:100CE00062468C461946634600E000BF01B5FFF737
:100CF000B7FF002848BF10F1000F01BD4DF808ED07
:100D0000FFF7F4FF0CBF012000205DF808FB00BFD7
:100D10004DF808EDFFF7EAFF34BF012000205DF831
:100D200008FB00BF4DF808EDFFF7E0FF94BF01207E
:100D300000205DF808FB00BF4DF808EDFFF7CEFF7F
:100D400094BF012000205DF808FB00BF4DF808EDBE
:100D5000FFF7C4FF34BF012000205DF808FB00BF8F
:100D60004FEA410C7FEA6C5C02D150EA013C0AD1A7
:100D70004FEA430C7FEA6C5C02D152EA033C02D199
:100D80004FF0000070474FF0010070474FEA4102FA
:100D900012F5001215D211D56FF47873B3EB6252CD
:100DA00012D94FEAC12343F0004343EA505311F0F4
:100DB000004F23FA02F018BF404270474FF0000086
:100DC000704750EA013005D111F0004008BF6FF0C4
:100DD000004070474FF00000704700BF80F00040B7
:100DE00002E000BF81F0004142001FBF5FEA410303
:100DF00092EA030F7FEA226C7FEA236C6AD04FEA03
:100E00001262D2EB1363C1BFD21841404840414047
:100E1000B8BF5B42192B88BF704710F0004F40F4F9
:100E2000000020F07F4018BF404211F0004F41F415
:100E3000000121F07F4118BF494292EA030F3FD0E1
:100E4000A2F1010241FA03FC10EB0C00C3F12003F4
:100E500001FA03F100F0004302D5494260EB400083
:100E6000B0F5000F13D3B0F1807F06D340084FEAEE
:100E7000310102F10102FE2A51D2B1F1004F40EBE3
:100E8000C25008BF20F0010040EA0300704749004B
:100E900040EB0000013A28BFB0F5000FEDD2B0FAE8
:100EA00080FCACF1080CB2EB0C0200FA0CF0AABF0B
:100EB00000EBC25052421843BCBFD04018437047A9
:100EC00092F0000F81F4000106BF80F400000132AF
:100ED000013BB5E74FEA41037FEA226C18BF7FEA86
:100EE000236C21D092EA030F04D092F0000F08BFC8
:100EF0000846704790EA010F1CBF0020704712F0AF
:100F00007F4F04D1400028BF40F00040704712F1ED
:100F100000723CBF00F50000704700F0004343F052
:100F2000FE4040F4000070477FEA226216BF084688
:100F30007FEA23630146420206BF5FEA412390EA4B
:100F4000010F40F4800070474FF0000304E000BF41
:100F500010F0004348BF40425FEA000C08BF7047F2
:100F600043F0964301464FF000001CE050EA0102B6
:100F700008BF70474FF000030AE000BF50EA0102CB
:100F800008BF704711F0004302D5404261EB4101B8
:100F90005FEA010C02BF84460146002043F0B643DD
:100FA00008BFA3F18053A3F50003BCFA8CF2083A02
:100FB000A3EBC25310DB01FA02FC634400FA02FC0B
:100FC000C2F12002BCF1004F20FA02F243EB020012
:100FD00008BF20F00100704702F1200201FA02FC74
:100FE000C2F1200250EA4C0021FA02F243EB020067
:100FF00008BF20EADC7070474FF0FF0C1CEAD052AB
:101000001EBF1CEAD15392EA0C0F93EA0C0F6FD06B
:101010001A4480EA010C400218BF5FEA41211ED049
:101020004FF0006343EA501043EA5111A0FB013135
:101030000CF00040B1F5000F3EBF490041EAD3710A
:101040005B0040EA010062F17F02FD2A1DD8B3F186
:10105000004F40EBC25008BF20F00100704790F0F5
:10106000000F0CF0004C08BF49024CEA502040EA47
:1010700051207F3AC2BFD2F1FF0340EAC25070470D
:1010800040F400004FF00003013A5DDC12F1190F4B
:10109000DCBF00F000407047C2F10002410021FABD
:1010A00002F1C2F1200200FA02FC5FEA310040F1D5
:1010B000000053EA4C0308BF20EADC70704792F04E
:1010C000000F00F0004C02BF400010F4000F013A86
:1010D000F9D040EA0C0093F0000F01F0004C02BF81
:1010E000490011F4000F013BF9D041EA0C018FE7F0
:1010F0000CEAD15392EA0C0F18BF93EA0C0F0AD0F6
:1011000030F0004C18BF31F0004CD8D180EA01001B
:1011100000F00040704790F0000F17BF90F0004FB4
:10112000084691F0000F91F0004F14D092EA0C0F96
:1011300001D142020FD193EA0C0F03D14B0218BF29
:10114000084608D180EA010000F0004040F0FE406F
:1011500040F40000704740F0FE4040F4400070470B
:101160004FF0FF0C1CEAD0521EBF1CEAD15392EA8A
:101170000C0F93EA0C0F69D0A2EB030280EA010C7A
:1011800049024FEA402037D04FF0805343EA111113
:1011900043EA10130CF000408B4238BF5B0042F171
:1011A0007D024FF4000C8B4224BF5B1A40EA0C0016
:1011B000B3EB510F24BFA3EB510340EA5C00B3EB48
:1011C000910F24BFA3EB910340EA9C00B3EBD10F36
:1011D00024BFA3EBD10340EADC001B0118BF5FEA88
:1011E0001C1CE0D1FD2A3FF650AF8B4240EBC250B1
:1011F00008BF20F0010070470CF0004C4CEA502072
:101200007F32C2BFD2F1FF0340EAC250704740F4C0
:1012100000004FF00003013A37E792F0000F00F0B2
:10122000004C02BF400010F4000F013AF9D040EA30
:101230000C0093F0000F01F0004C02BF490011F4C4
:10124000000F013BF9D041EA0C0195E70CEAD153BC
:1012500092EA0C0F08D142027FF47DAF93EA0C0FA3
:101260007FF470AF084676E793EA0C0F04D14B0287
:101270003FF44CAF08466EE730F0004C18BF31F039
:10128000004CCAD130F000427FF45CAF31F0004333
:101290007FF43CAF5FE700BF4FF0FF3C06E000BFCC
:1012A0004FF0010C02E000BF4FF0010C4DF804CDEF
:1012B0004FEA40024FEA41037FEA226C18BF7FEAFF
:1012C000236C11D001B052EA530C18BF90EA010F01
:1012D00058BFB2EB030088BFC81738BF6FEAE17090
:1012E00018BF40F0010070477FEA226C02D15FEA2C
:1012F000402C05D17FEA236CE4D15FEA412CE1D098
:101300005DF8040B704700BF844608466146FFE75E
:101310000FB5FFF7C9FF002848BF10F1000F0FBD40
:101320004DF808EDFFF7F4FF0CBF012000205DF839
:1013300008FB00BF4DF808EDFFF7EAFF34BF0120BE
:1013400000205DF808FB00BF4DF808EDFFF7E0FF57
:1013500094BF012000205DF808FB00BF4DF808EDA8
:10136000FFF7D2FF94BF012000205DF808FB00BF0B
:101370004DF808EDFFF7C8FF34BF012000205DF8ED
:1013800008FB00BF53B94AB9002908BF00281CBF99
:101390004FF0FF314FF0FF3000F00CB8ADF1080C0A
:1013A0006DE904CE00F008F8DDF804E0DDE9022381
:1013B00004B07047704700BF2DE9F04786468C4661
:1013C0000846089E154674461946002B40F0C28018
:1013D0008542B2FA82F245D94AB1C2F1200300FA3D
:1013E00002FC2EFA03F3954043EA0C0C94404FEABA
:1013F000154EA8B2BCFBFEF8230C0EFB18CC08FB64
:1014000000F943EA0C43994528D9EB1808F1FF3756
:1014100004D2994502D9A8F102072B44A3EB090392
:10142000A4B2B3FBFEFC0EFB1C330CFB00F044EA41
:101430000344A04214D92C190CF1FF3304D2A0426A
:1014400002D9ACF102032C44241A43EA07401EB12E
:10145000D440002334607360BDE8F0874746DDE781
:101460006346F1E792BB431B01214FEA154EAFB231
:10147000B3FBFEFC200C0EFB1C330CFB07F840EA10
:101480000343984562D9EB180CF1FF3004D298451C
:1014900002D9ACF102002B44A3EB0803A4B2B3FBC6
:1014A000FEFC0EFB1C330CFB07F744EA0344A74287
:1014B0004ED92C190CF1FF3304D2A74202D9ACF15A
:1014C00002032C44E41B43EA0040C0E7C2F12003BE
:1014D00020FA03F1954090402EFA03F303434FEABC
:1014E000154EAFB2B1FBFEFC0EFB1C10190C0CFB31
:1014F00007F841EA0041884504FA02F422D9691844
:101500000CF1FF3004D2884502D9ACF10200294425
:10151000A1EB08019BB2B1FBFEFC0EFB1C110CFB06
:1015200007F743EA01439F420ED9EB180CF1FF3154
:1015300004D29F4202D9ACF102012B44DB1B41EAE9
:10154000004192E76046E3E76146F7E76046A3E7BC
:101550006346B7E7834206D916B9002108467BE700
:10156000C6E900E0F9E7B3FA83F78FB9834201D304
:10157000724508D8BEEB020460EB030301209C46D1
:101580001EB9002168E73846FAE7C6E9004CF8E7DB
:10159000C7F1200CBB4022FA0CF41C432EFA0CF1CC
:1015A00020FA0CF3B84001434FEA14490EFA07F54C
:1015B000B3FBF9F81FFA84FE09FB18300B0C08FB8B
:1015C0000EFA43EA00439A4502FA07F240D9E318BB
:1015D00008F1FF3004D29A4502D9A8F10200234451
:1015E000A3EB0A0389B2B3FBF9F809FB183308FB34
:1015F0000EFE41EA03418E452CD9611808F1FF33F4
:1016000004D28E4502D9A8F10203214443EA0040E6
:10161000A0FB0298A1EB0E014145CE46434602D302
:1016200006D14D4504D2B9EB020E68EB0403013834
:10163000002EA6D0B5EB0E0261EB030101FA0CFC03
:1016400022FA07F34CEA0303F940C6E9003198E7B0
:101650004046C5E74346D9E72DE9F04F8368B249D4
:1016600085B0044618460193FFF76EFE00285CF033
:1016700011A3236803931846FFF780F806460198E4
:101680000F46FFF77BF86368029380461846894649
:10169000FFF774F876A3D3E9002304460D464046CD
:1016A0004946FFF73FFB8246002800F041819F49F1
:1016B0000398FFF749FE00284ED06FA3D3E900231B
:1016C00030463946FFF72EFB00281CF0E6A26CA33B
:1016D000D3E9002320462946FFF724FBF0B16AA393
:1016E000D3E9002330463946FFF71CFB98B168A3C5
:1016F000D3E9002340464946FFF714FB00285CF07D
:10170000CFA265A3D3E9002330463946FFF70AFB91
:10171000003818BF012005B0BDE8F08F60A3D3E901
:10172000002340464946FFF7FDFA00281CF0BBA203
:101730005DA3D3E9002340464946FFF7F3FA0028AA
:10174000E9D05BA3D3E9002340464946FFF7EAFA14
:10175000B0FA80F04009DEE757A3D3E90023304612
:101760003946FFF7DFFA002859D055A3D3E9002303
:1017700020462946FFF7D6FA824688B352A3D3E91A
:10178000002330463946FFF7CDFA824698B150A380
:10179000D3E9002340464946FFF7C4FA0028BAD0EF
:1017A0004DA3D3E9002320462946FFF7BBFA0038B2
:1017B00018BF0120AFE74AA3D3E9002330463946DA
:1017C000FFF7B0FA00285CF071A247A3D3E9002329
:1017D00030463946FFF7A6FA003818BF01209AE7CD
:1017E00043A3D3E9002330463946FFF79BFA00288C
:1017F0005CF05FA240A3D3E9002320462946FFF70F
:1018000091FA00285CF058A23DA3D3E900233046AA
:101810003946FFF787FA003818BF01207BE73AA363
:10182000D3E9002330463946FFF77CFA00283FF41D
:1018300072AF37A3D3E9002320462946FFF772FA97
:1018400000283FF468AF34A3D3E90023304639467B
:10185000FFF768FA00285CF032A231A3D3E9002335
:1018600030463946FFF75EFAB0FA80F0400952E799
:10187000EC51B81E850B4E40CDCCCCCCCCEC4540C9
:101880009A999999993F8F40F6285C8FC2554140AB
:101890006666666666064E401F85EB51B8DE4040C0
:1018A000295C8FC2F5084E40C3F5285C8F024E407C
:1018B000E17A14AE47014E406666666666E65540BC
:1018C00066666666660790407B14AE47E15A4E40F6
:1018D00085EB51B81E054E40CDCCCCCCCCFA8E4019
:1018E00033333333334354408FC2F5285C5F554064
:1018F000B81E85EB51685040295C8FC2F53C904082
:10190000AE47E17A14AE5140CDCCCCCCCC3C584063
:10191000E17A14AE4729904052B81E85EB0157403A
:1019200066666666668657400000704200003C426C
:10193000C7A3D3E9002330463946FFF7F3F900285F
:101940001CF074A0C4A3D3E9002340464946FFF726
:10195000E9F900281BF036A6C1A3D3E900232046ED
:101960002946FFF7DFF900286DD0BFA3D3E9002394
:1019700030463946FFF7D6F900283CD0BCA3D3E95E
:10198000002320462946FFF7CDF900281CF09AA134
:10199000B9A3D3E9002330463946FFF7C3F900283D
:1019A0001CF093A1B6A3D3E9002340464946FFF7B4
:1019B000B9F900285CF08CA1B3A3D3E90023204639
:1019C0002946FFF7AFF900281CF085A1B0A3D3E9A1
:1019D000002340464946FFF7A5F900285CF07EA1A8
:1019E000ADA3D3E9002320462946FFF79BF9003831
:1019F00018BF01208FE6AAA3D3E900233046394659
:101A0000FFF790F950B1A8A3D3E900232046294657
:101A1000FFF788F9B0FA80F040097CE6A4A3D3E987
:101A2000002340464946FFF77DF900281CF059A1E4
:101A300099A3D3E9002320462946FFF773F900381C
:101A400018BF012067E69CA3D3E90023404649461E
:101A5000FFF768F9002809F0C1A099A3D3E9002392
:101A600040464946FFF75EF9002800F0B38496A38C
:101A7000D3E9002320462946FFF754F900281CF03B
:101A800033A193A3D3E9002320462946FFF74AF95F
:101A900000283FF440AE90A3D3E9002340464946D6
:101AA000FFF740F9F0B18EA3D3E900233046394661
:101AB000FFF738F900285CF01AA18BA3D3E90023C3
:101AC00020462946FFF72EF900281CF013A188A311
:101AD000D3E9002320462946FFF724F9003818BF30
:101AE000012018E684A3D3E9002340464946FFF7C6
:101AF00019F98346002844D081A3D3E90023404646
:101B00004946FFF70FF9A0B17FA3D3E90023304680
:101B10003946FFF707F900283FF4FDAD7CA3D3E970
:101B2000002320462946FFF7FDF8003818BF0120A2
:101B3000F1E579A3D3E9002340464946FFF7F2F8DF
:101B4000A0B177A3D3E9002320462946FFF7EAF89E
:101B500000285CF0D2A074A3D3E9002330463946B4
:101B6000FFF7E0F8003818BF0120D4E570A3D3E9EF
:101B7000002320462946FFF7D5F8B0FA80F0400947
:101B8000C9E56DA3D3E9002340464946FFF7CAF8EB
:101B9000002800F037816AA3D3E9002320462946B4
:101BA000FFF7C0F88246002800F0038166A3D3E95E
:101BB000002320462946FFF7B5F800285CF0A0A0D6
:101BC00063A3D3E9002340464946FFF7ABF800285A
:101BD0001CF099A060A3D3E9002340464946FFF7D3
:101BE000A1F800283FF497AD5DA3D3E90023304668
:101BF0003946FFF797F8002800F0C6805AA3D3E9CA
:101C0000002340464946FFF78DF800285CF07EA08F
:101C100057A3D3E9002330463946FFF783F800285D
:101C20003FF479AD54A3D3E9002320462946FFF7BA
:101C300079F800285CF06DA051A3D3E90023304669
:101C40003946FFF76FF8B0FA80F0400963E500BF4E
:101C5000EC51B81E85FB584085EB51B81EF5584035
:101C600014AE47E17A508E40CDCCCCCCCCAC5140B8
:101C7000B81E85EB51508E401F85EB51B83E514048
:101C80005C8FC2F5289C53400AD7A3703D508E400C
:101C90006666666666765740AE47E17A14508E40B7
:101CA000AE47E17A146E57406666666666508E40AF
:101CB000A4703D0AD7F353406666666666E65640F2
:101CC0008FC2F5285C2F4E407B14AE47E132904026
:101CD00048E17A14AE2A9040AE47E17A140E4E40A5
:101CE00085EB51B81E453F407B14AE47E1928E40D4
:101CF00014AE47E17A8C8E4052B81E85EB114E40EF
:101D00008FC2F5285C0F4E40C3F5285C8F72574098
:101D1000295C8FC2F5768F40713D0AD7A3104E40E3
:101D20006666666666A28E409A999999999941402D
:101D300052B81E85EBE98E40B81E85EB51184E4017
:101D4000AE47E17A14119040AE47E17A14668E40B6
:101D5000D7A3703D0A174E40F6285C8FC2154E403F
:101D6000A4703D0AD7634B403333333333134E40B3
:101D70000AD7A3703DAA47406666666666068F402E
:101D80000AD7A3703D4A4540C7A3D3E90023304694
:101D90003946FEF7C7FF00285BF0BEA7C4A3D3E90E
:101DA000002330463946FEF7BDFFB0FA80F0400907
:101DB000B1E4C1A3D3E9002320462946FEF7B2FFD0
:101DC00000285BF0ACA7BEA3D3E900233046394618
:101DD000FEF7A8FF00283FF49EACBBA3D3E9002385
:101DE00030463946FEF79EFF00281BF09BA7B8A39C
:101DF000D3E9002340464946FEF794FFB0FA80F04D
:101E0000400988E4B4A3D3E9002340464946FEF7DD
:101E100089FF8246F0B1B2A3D3E9002330463946A8
:101E2000FEF780FF00281BF080A7AFA3D3E90023B3
:101E300040464946FEF776FF00283FF46CACACA361
:101E4000D3E9002330463946FEF76CFFB0FA80F044
:101E5000400960E4A8A3D3E9002320462946FEF701
:101E600061FF002800F04582A5A3D3E90023304696
:101E70003946FEF757FF002858D0A3A3D3E9002323
:101E800030463946FEF74EFF00281BF051A7A0A3AD
:101E9000D3E9002330463946FEF744FF002839D005
:101EA0009DA3D3E9002340464946FEF73BFF044685
:101EB00000285BF040A79AA3D3E9002330463946B7
:101EC000FEF730FF00285BF039A797A3D3E9002382
:101ED00040464946FEF726FF00285BF032A794A350
:101EE000D3E9002340464946FEF71CFF50B192A3B8
:101EF000D3E9002330463946FEF714FF003818BFF7
:101F0000012008E4B4490398FFF71EFAB0FA80F004
:101F1000400900E48AA3D3E9002340464946FEF77E
:101F200001FFB0FA80F04009FFF7F5BB86A3D3E9C3
:101F3000002320462946FEF7F5FE8246002800F0E1
:101F4000B88183A3D3E9002320462946FEF7EAFEA1
:101F500000281BF0F9A680A3D3E9002320462946D8
:101F6000FEF7E0FE8246002800F079817CA3D3E9E9
:101F7000002320462946FEF7D5FE00281BF0E7A6E1
:101F800079A3D3E9002330463946FEF7CBFE00287B
:101F90001BF0E0A676A3D3E9002330463946FEF7CE
:101FA000C1FE8246002800F03A8173A3D3E90023E2
:101FB00020462946FEF7B6FE8246A8B170A3D3E9B3
:101FC000002330463946FEF7ADFE00285BF0C5A67B
:101FD0006DA3D3E9002330463946FEF7A3FE00384F
:101FE00018BF0120FFF797BB69A3D3E90023204660
:101FF0002946FEF797FE00285BF0B2A666A3D3E958
:10200000002320462946FEF78DFE58B164A3D3E98C
:10201000002330463946FEF785FE003818BF012000
:10202000FFF779BB60A3D3E9002330463946FEF7BA
:1020300079FE00285BF097A65DA3D3E90023304624
:102040003946FEF76FFE002800F0C8805AA3D3E996
:10205000002340464946FEF765FE824600285BF0B5
:1020600085A6204656A3D3E900232946FEF75AFE4B
:10207000044600285BF07DA653A3D3E90023304635
:102080003946FEF74FFE00285BF076A650A3D3E951
:10209000002340464946FEF745FE003818BF0120A0
:1020A000FFF739BBAFF3008033333333338354400E
:1020B000C3F5285C8F625540333333333318904077
:1020C0001F85EB51B88E554066666666667653404E
:1020D000F6285C8FC2154E407B14AE47E11A4E4085
:1020E000CDCCCCCCCC6C57409A99999999194E404B
:1020F00085EB51B81EE55240713D0AD7A3EC8F40E5
:1021000014AE47E17A1448408FC2F5285C4F464030
:102110009A999999997945403D0AD7A3701D4E40E7
:102120005C8FC2F5285C3E4085EB51B81E254E40C1
:102130006666666666264E40EC51B81E858B424048
:10214000CDCCCCCCCC2C4E40D7A3703D0AAD8F402B
:10215000E17A14AE478D8F4014AE47E17A4A8F4042
:1021600052B81E85EB3B8F40CDCCCCCCCC6C5840CC
:102170006666666666665740E17A14AE47778E40BB
:102180009A99999999994A401F85EB51B83E5640C2
:1021900014AE47E17A7E8E40F6285C8FC2958E4061
:1021A0007B14AE47E15A52406666666666664940F1
:1021B00085EB51B81E1554401F85EB51B81E4E409B
:1021C000AE47E17A14E08E4085EB51B81E854F4052
:1021D0000AD7A3703D2A4E40000006422046BCA309
:1021E000D3E900232946FEF79DFD044600285BF055
:1021F000C6A5B9A3D3E9002340464946FEF792FDA0
:1022000000285BF0BFA5B6A3D3E9002330463946CA
:10221000FEF788FD003818BF0120FFF77CBAB2A393
:10222000D3E9002320462946FEF77CFD00283FF431
:1022300072AAAFA3D3E9002320462946FEF772FD18
:1022400000285BF0A2A5ACA3D3E900234046494691
:10225000FEF768FD003818BF0120FFF75CBAA8A39D
:10226000D3E9002320462946FEF75CFD00285BF0F9
:102270008FA5A5A3D3E9002340464946FEF752FDAA
:1022800058B1A3A3D3E9002340464946FEF74AFDCF
:10229000B0FA80F04009FFF73EBA9FA3D3E90023CC
:1022A00020462946FEF73EFD003818BF0120FFF703
:1022B00032BA9BA3D3E9002330463946FEF732FDFC
:1022C00000281BF068A598A3D3E9002320462946DF
:1022D000FEF728FD00285BF061A595A3D3E9002354
:1022E00020462946FEF71EFD003818BF0120FFF7E3
:1022F00012BA91A3D3E9002330463946FEF712FD06
:1023000058B17DA3D3E9002340464946FEF70AFDB4
:10231000B0FA80F04009FFF7FEB989A3D3E90023A2
:1023200020462946FEF7FEFC00283DD086A3D3E9CF
:10233000002340464946FEF7F5FC48B384A3D3E9A1
:10234000002320462946FEF7EDFC58B162A3D3E9ED
:10235000002340464946FEF7E5FCB0FA80F040090C
:10236000FFF7D9B97CA3D3E9002330463946FEF7FD
:10237000D9FC00281BF015A579A3D3E9002330462A
:102380003946FEF7CFFC003818BF0120FFF7C3B96C
:1023900059A3D3E9002340464946FEF7C3FCB0FAEF
:1023A00080F04009FFF7B7B96FA3D3E900233046A7
:1023B0003946FEF7B7FC00283FF4ADA946A3D3E9A0
:1023C000002340464946FEF7ADFCB0FA80F04009D4
:1023D000FFF7A1B966A3D3E9002320462946FEF7FB
:1023E000A1FC002818F0DB8063A3D3E9002340465A
:1023F0004946FEF797FC002809F0BA8560A3D3E9A7
:10240000002340464946FEF78DFC002809F0AF84C2
:102410005DA3D3E9002330463946FEF783FC00284C
:1024200004F066855AA3D3E9002340464946FEF7E7
:1024300079FC002800F0C08457A3D3E9002320468C
:102440002946FEF76FFC8246002800F01A8354A349
:10245000D3E9002320462946FEF764FC00285BF000
:10246000A3A451A3D3E9002340464946FEF75AFCF2
:10247000002800F09F824EA3D3E90023304639465E
:10248000FEF750FC00283FF446A94BA3D3E90023F4
:1024900040464946FEF746FC00283FF43CA948A3C5
:1024A000D3E9002340464946FEF73CFC002800F0F3
:1024B0008F8045A3D3E9002340464946FEF732FC0E
:1024C000003818BF0120FFF726B900BFAFF3008026
:1024D00014AE47E17AA68E40E17A14AE47214E4011
:1024E000C3F5285C8F625640C3F5285C8F2E8F4061
:1024F00048E17A14AE738E40CDCCCCCCCC2C4E407F
:102500007B14AE47E1688F406666666666264E407D
:102510003D0AD7A3701D4E403D0AD7A3706B8F4074
:10252000B81E85EB512858400AD7A3703DCC8F4088
:10253000713D0AD7A3DC8F401F85EB51B85E424046
:10254000F6285C8FC2189040EC51B81E852B4E4087
:1025500014AE47E17AFC8F40AE47E17A146E4C40EE
:1025600085EB51B81E4549409A99999999B94940C6
:1025700048E17A14AE0D8F40B81E85EB5158524099
:10258000C3F5285C8F52524014AE47E17AD44F40D5
:10259000A4703D0AD7E34E40C3F5285C8FD88E4027
:1025A0007B14AE47E1548E403333333333B34E4064
:1025B0000AD7A3703D8A4F4052B81E85EBB14E40FA
:1025C0003333333333334E40713D0AD7A3304E405B
:1025D000A5A3D3E9002330463946FEF7A3FB002824
:1025E00058D0A3A3D3E9002340464946FEF79AFBFF
:1025F00000285BF0DCA3D4490198FEF7A5FE002873
:102600005BF0D8A39CA3D3E9002330463946FEF7FC
:1026100089FB90B19AA3D3E9002340464946FEF7CF
:1026200081FB00281BF0C9A3C8490398FEF78CFE64
:10263000003818BF0120FFF76EB8394692A3D3E9DE
:1026400000233046FEF76EFBC14988B10198FEF7C2
:102650007BFE00283FF45FA88DA3D3E9002330461A
:102660003946FEF75FFBB0FA80F04009FFF753B838
:102670000198FEF769FE00285BF0A2A386A3D3E9C8
:10268000002340464946FEF74DFBB0FA80F0400972
:10269000FFF741B882A3D3E9002330463946FEF75D
:1026A00041FB00285BF08FA37FA3D3E900232046E2
:1026B0002946FEF737FB8346A8B17DA3D3E9002363
:1026C00020462946FEF72EFB00285BF07FA37AA365
:1026D000D3E9002340464946FEF724FBB0FA80F0D8
:1026E0004009FFF718B876A3D3E9002340464946CE
:1026F000FEF718FB002800F0828073A3D3E90023C3
:1027000020462946FEF70EFB824698B370A3D3E914
:10271000002340464946FEF705FB00285BF059A31D
:102720006DA3D3E9002340464946FEF7FBFA002893
:102730001BF052A36AA3D3E9002340464946FEF7A3
:10274000F1FA00283EF4E7AF67A3D3E9002320465F
:102750002946FEF7E7FA00281BF041A364A3D3E95A
:10276000002340464946FEF7DDFA003818BF012035
:10277000FEF7D1BF60A3D3E9002330463946FEF708
:10278000D1FAE0B173490298FEF7DEFD00285BF054
:1027900029A35BA3D3E9002320462946FEF7C2FA0A
:1027A00000281BF022A358A3D3E900232046294682
:1027B000FEF7B8FA003818BF0120FEF7ACBF54A3EB
:1027C000D3E9002340464946FEF7ACFA00283EF420
:1027D000A2AF51A3D3E9002330463946FEF7A2FA4F
:1027E00000285BF005A34EA3D3E900233046394609
:1027F000FEF798FAB0FA80F04009FEF78CBF4AA3C2
:10280000D3E9002320462946FEF78CFA002800F081
:10281000BB8047A3D3E9002330463946FEF782FA4E
:1028200000281BF0E8A24C490298FEF78DFD002815
:102830003EF471AF40A3D3E9002330463946FEF79A
:1028400071FA0446002800F089803DA3D3E90023F3
:1028500030463946FEF766FAB0FA80F04009FEF7D6
:102860005ABF00BFAFF300805C8FC2F528DC424046
:102870001F85EB51B85E4E40D7A3703D0A9740408C
:1028800014AE47E17A744E406666666666E640407E
:10289000A4703D0AD7A34040A4703D0AD7834E40A0
:1028A000B81E85EB51184340A4703D0AD7658E4091
:1028B000A4703D0AD75D8E40AE47E17A148E4E403B
:1028C0000AD7A3703D8A4E4048E17A14AE9F8E40ED
:1028D000F6285C8FC2354E408FC2F5285C4F4E40C3
:1028E000AE47E17A144E4E4085EB51B81E778E40CC
:1028F000295C8FC2F5484E40EC51B81E854B4B40C9
:10290000D7A3703D0ABB8E403D0AD7A370B58E4059
:1029100048E17A14AE674E40B81E85EB51784C40C2
:10292000CDCCCCCCCCEC4C403333333333AF8E40B6
:1029300014AE47E17A144C406666666666664740A8
:1029400052B81E85EBB14440000073420000F241D2
:10295000000074420070754400607444C8A3D3E959
:10296000002330463946FEF7DDF900285BF046A229
:10297000C5A3D3E9002330463946FEF7D3F9003822
:1029800018BF0120FEF7C7BEC1A3D3E9002320462C
:102990002946FEF7C7F900285BF033A2BEA3D3E9AE
:1029A000002320462946FEF7BDF9B0FA80F0400921
:1029B000FEF7B1BEBAA3D3E9002330463946FEF78D
:1029C000B1F9002847D0B8A3D3E9002330463946EF
:1029D000FEF7A8F900283EF49EAEB5A3D3E9002384
:1029E00020462946FEF79EF958B1B3A3D3E9002348
:1029F00020462946FEF796F9003818BF0120FEF759
:102A00008ABEAFA3D3E9002320462946FEF78AF900
:102A100000281BF0F9A1ACA3D3E9002320462946E6
:102A2000FEF780F900281BF0F2A1A9A3D3E9002347
:102A300020462946FEF776F900285BF0EBA1A6A315
:102A4000D3E9002320462946FEF76CF9B0FA80F05E
:102A50004009FEF760BEA2A3D3E900232046294621
:102A6000FEF760F900285BF0D8A19FA3D3E900230B
:102A700020462946FEF756F9B0FA80F04009FEF7E5
:102A80004ABE9BA3D3E9002340464946FEF74AF9D4
:102A9000002866D098A3D3E9002320462946FEF7F4
:102AA00041F900285BF0BCA195A3D3E9002320469F
:102AB0002946FEF737F98246A8B193A3D3E900234C
:102AC00030463946FEF72EF900281BF0ACA190A342
:102AD000D3E9002330463946FEF724F9003818BF01
:102AE0000120FEF718BE8CA3D3E900232046294617
:102AF000FEF718F900285BF099A189A3D3E9002318
:102B000030463946FEF70EF9F8B187A3D3E9002322
:102B100040464946FEF706F900281BF08AA184A327
:102B2000D3E9002340464946FEF7FCF800285BF055
:102B300083A181A3D3E9002330463946FEF7F2F89A
:102B4000B0FA80F04009FEF7E6BD7DA3D3E900238B
:102B500040464946FEF7E6F8B0FA80F04009FEF735
:102B6000DABD79A3D3E9002330463946FEF7DAF817
:102B700000283EF4D0AD76A3D3E9002320462946B1
:102B8000FEF7D0F8002865D073A3D3E900234046B0
:102B90004946FEF7C7F8A8B171A3D3E90023204640
:102BA0002946FEF7BFF800283EF4B5AD6EA3D3E981
:102BB000002320462946FEF7B5F8B0FA80F0400918
:102BC000FEF7A9BD6AA3D3E9002320462946FEF7F4
:102BD000A9F800283EF49FAD67A3D3E9002320465F
:102BE0002946FEF79FF858B165A3D3E90023304684
:102BF0003946FEF797F8003818BF0120FEF78BBD65
:102C000061A3D3E9002320462946FEF78BF800286C
:102C10005BF015A15EA3D3E9002330463946FEF7E9
:102C200081F858B15CA3D3E9002340464946FEF73A
:102C300079F8B0FA80F04009FEF76DBD58A3D3E9EA
:102C4000002330463946FEF76DF8003818BF0120E2
:102C5000FEF761BD54A3D3E9002320462946FEF7C1
:102C600061F800285BF0EEA051A3D3E900232046D1
:102C70002946FEF757F8B0FA80F04009FEF74BBD41
:102C8000B81E85EB5198484052B81E85EB714940FB
:102C90009A99999999D18E40B81E85EB51D28E4060
:102CA00085EB51B81E654640D7A3703D0A57464094
:102CB0008FC2F5285C6F8E40E17A14AE47678E4074
:102CC000EC51B81E85B18E4014AE47E17AA68E4015
:102CD000F6285C8FC2878E40AE47E17A148C8E4016
:102CE0000AD7A3703DC08E401F85EB51B8C48E40FB
:102CF0003D0AD7A3707D4E40A4703D0AD7D98E40BF
:102D000014AE47E17AEE8E40295C8FC2F548494007
:102D10007B14AE47E1FA4840F6285C8FC2F18E4042
:102D2000D7A3703D0A17464052B81E85EB514E405E
:102D30006666666666464E4052B81E85EBF14440B4
:102D400014AE47E17A744E4048E17A14AE274D4004
:102D50001F85EB51B8F88E406666666666A64E40E3
:102D60005C8FC2F528DA8E407B14AE47E1D88E40E6
:102D700085EB51B81EF78E40E17A14AE47DF8E40E6
:102D80003D0AD7A3705D4440A4703D0AD7E58E404C
:102D90003D0AD7A3705D47409A99999999D94E40B9
:102DA000D7A3703D0AD748401F85EB51B8088F4024
:102DB0005C8FC2F5280A8F40C3A3D3E900234046A5
:102DC0004946FDF7AFFF50B33046C1A3D3E9002316
:102DD0003946FDF7A7FF064658B1BFA3D3E9002344
:102DE00040464946FDF79EFFB0FA80F04009FEF7E5
:102DF00092BCBBA3D3E9002320462946FDF792FFEE
:102E000000285BF022A0B8A3D3E90023204629467E
:102E1000FDF788FF003818BF0120FEF77CBCB4A383
:102E2000D3E9002320462946FDF77CFF002803F064
:102E30006B86B1A3D3E9002320462946FDF772FF34
:102E4000002803F09684AEA3D3E900233046394628
:102E5000FDF768FFF8B1ACA3D3E90023404649462B
:102E6000FDF760FF00285AF0F3A7A9A3D3E90023D8
:102E700030463946FDF756FF00283EF44CACA6A379
:102E8000D3E9002320462946FDF74CFFB0FA80F035
:102E90004009FEF740BCA2A3D3E9002330463946DF
:102EA000FDF740FF8246002802F0CA859EA3D3E9C1
:102EB000002330463946FDF735FF002802F0A9848B
:102EC0009BA3D3E9002330463946FDF72BFF0028AA
:102ED00002F0898498A3D3E9002340464946FDF7D0
:102EE00021FF002800F04A8495A3D3E9002320465F
:102EF0002946FDF717FF002851D093A3D3E90023FB
:102F000040464946FDF70EFF98B391A3D3E900234D
:102F100030463946FDF706FFF8B18FA3D3E9002309
:102F200030463946FDF7FEFE00283EF4F4AB8CA394
:102F3000D3E9002330463946FDF7F4FE00281AF0A5
:102F40008AA789A3D3E9002340464946FDF7EAFE54
:102F5000003818BF0120FEF7DEBB85A3D3E90023AC
:102F600020462946FDF7DEFE003818BF0120FEF797
:102F7000D2BB81A3D3E9002330463946FDF7D2FE08
:102F800000281AF06BA77EA3D3E900233046394608
:102F9000FDF7C8FE003818BF0120FEF7BCBB7AA3BE
:102FA000D3E9002320462946FDF7BCFE019058B125
:102FB00077A3D3E9002330463946FDF7B3FEB0FAD4
:102FC00080F04009FEF7A7BB73A3D3E90023204696
:102FD0002946FDF7A7FE8346002800F0218370A351
:102FE000D3E9002330463946FDF79CFE824600288F
:102FF00000F06E826CA3D3E9002330463946FDF71A
:1030000091FE002800F0038269A3D3E90023404623
:103010004946FDF787FE8246002800F0ED8066A352
:10302000D3E9002330463946FDF77CFE00283EF404
:1030300072AB63A3D3E9002320462946FDF772FE55
:10304000A8B161A3D3E9002320462946FDF76AFE13
:1030500000285AF006A75EA3D3E90023404649465C
:10306000FDF760FE003818BF0120FEF754BB5AA3DD
:10307000D3E9002330463946FDF754FE00285AF0C4
:10308000F3A657A3D3E9002330463946FDF74AFE9D
:1030900000285AF0ECA654A3D3E900232046294681
:1030A000FDF740FE00281AF0E5A651A3D3E900235E
:1030B00040464946FDF736FEB0FA80F04009FEF77B
:1030C0002ABB00BFAFF300800AD7A3703DEA4E4091
:1030D000C3F5285C8F0242406666666666E64E402F
:1030E0003333333333D38E405C8FC2F528E48E40C4
:1030F000E17A14AE47018F4014AE47E17AFA8E4070
:10310000EC51B81E852B3E406666666666365040BA
:1031100014AE47E17A143E40F6285C8FC2658E40BB
:103120003333333333D34B40CDCCCCCCCC6C4B404E
:103130001F85EB51B85E4B4052B81E85EB115040D5
:103140005C8FC2F5286A8E400AD7A3703DEA4F40D3
:103150006666666666E64A4033333333331345406A
:10316000EC51B81E85CB44408FC2F5285C0F4F4010
:103170000AD7A3703D648E401F85EB51B8FE4440D2
:10318000B81E85EB51984140B81E85EB51748E40B6
:103190005C8FC2F5285C4140AE47E17A14D48E4082
:1031A0006666666666464940F6285C8FC2154840EA
:1031B000713D0AD7A3304F40666666666686464014
:1031C00066666666667C8E401F85EB51B8788E40D9
:1031D00048E17A14AE274F4048E17A14AE074340E5
:1031E000F6285C8FC2354340C3F5285C8FA88E401B
:1031F00052B81E85EB114F40C1A3D3E900233046DE
:103200003946FDF78FFD00285AF037A6BEA3D3E953
:10321000002340464946FDF785FD00286FD0BCA33A
:10322000D3E9002330463946FDF77CFDA8B1BAA3A7
:10323000D3E9002340464946FDF774FD00281AF003
:103240001FA6B7A3D3E9002320462946FDF76AFD50
:10325000B0FA80F04009FEF75EBAB3A3D3E90023C9
:1032600020462946FDF75EFD98B3B1A3D3E90023BC
:1032700030463946FDF756FDA8B1AFA3D3E9002388
:1032800040464946FDF74EFD00283EF444AAACA353
:10329000D3E9002320462946FDF744FD003818BF36
:1032A0000120FEF738BAA8A3D3E9002340464946D7
:1032B000FDF738FD00285AF0E6A5A5A3D3E90023C1
:1032C00040464946FDF72EFDB0FA80F04009FEF772
:1032D00022BAA1A3D3E9002330463946FDF722FDE7
:1032E00000283EF418AA9EA3D3E90023404649468D
:1032F000FDF718FD003818BF0120FEF70CBA9AA39D
:10330000D3E9002330463946FDF70CFD58B198A3A8
:10331000D3E9002330463946FDF704FD003818BFD5
:103320000120FEF7F8B994A3D3E9002330463946CB
:10333000FDF7F8FC00285ED091A3D3E900232046D6
:103340002946FDF7EFFC00285AF0A0A58EA3D3E98B
:10335000002340464946FDF7E5FC8346A8B18CA30F
:10336000D3E9002340464946FDF7DCFC00281AF06B
:1033700090A589A3D3E9002340464946FDF7D2FC36
:10338000003818BF0120FEF7C6B985A3D3E9002392
:1033900020462946FDF7C6FC824600285AF07CA547
:1033A000304681A3D3E900233946FDF7BBFC06462E
:1033B00000285AF074A57EA3D3E90023404649466D
:1033C000FDF7B0FC00285AF06DA57BA3D3E90023DC
:1033D00040464946FDF7A6FC00285AF066A578A3AA
:1033E000D3E9002320462946FDF79CFC003818BF8E
:1033F0000120FEF790B974A3D3E900234046494663
:10340000FDF790FCB0FA80F04009FEF784B96AA39A
:10341000D3E9002340464946FDF784FC00283EF4EA
:103420007AA96BA3D3E9002330463946FDF77AFC2D
:103430008246A8B168A3D3E9002320462946FDF7B8
:1034400071FC00285AF034A565A3D3E90023204677
:103450002946FDF767FCB0FA80F04009FEF75BB93A
:1034600061A3D3E9002330463946FDF75BFC002811
:103470005AF021A55EA3D3E9002320462946FDF793
:1034800051FC78B15CA3D3E9002340464946FDF7DF
:1034900049FC002814BF0123002383F00103D8B2A4
:1034A000FEF739B956A3D3E9002330463946FDF774
:1034B00039FC00281AF002A553A3D3E900233046B3
:1034C0003946FDF72FFC003818BF0120FEF723B95D
:1034D0004FA3D3E9002320462946FDF723FC00280B
:1034E0005AF0EFA44CA3D3E9002320462946FDF768
:1034F00019FC003818BF0120FEF70DB9AFF30080AA
:103500008FC2F5285C4F41407B14AE47E19A4F4093
:103510000AD7A3703D2A424052B81E85EB514F4056
:1035200014AE47E17AB48E40F6285C8FC2A38E4079
:103530009A99999999D94440E17A14AE47614F40DC
:1035400033333333338F8E401F85EB51B87E4F407A
:10355000EC51B81E858B4F403D0AD7A3707D424089
:1035600014AE47E17A544F4052B81E85EB314240C9
:1035700048E17A14AEA74140C3F5285C8FC24740AA
:10358000295C8FC2F57A8E40E17A14AE47E14F4054
:10359000295C8FC2F5A84F4085EB51B81EA54F405E
:1035A0000AD7A3703D928E40EC51B81E85AB4340C4
:1035B000CDCCCCCCCCEC4F40EC51B81E850B504060
:1035C0001F85EB51B89C8E408FC2F5285CEF4F40B1
:1035D0009A99999999B94840713D0AD7A3B08E40FC
:1035E000EC51B81E85BF8E40295C8FC2F5C848409B
:1035F0008FC2F5285C998E409A99999999594F40B4
:10360000CDCCCCCCCCEC48406666666666E64840DD
:10361000E17A14AE47B98E4085EB51B81EC18E4099
:10362000C7A3D3E9002330463946FDF77BFB82462A
:10363000002847D0C4A3D3E9002320462946FDF73C
:1036400071FB00283EF467A8C1A3D3E900233046EC
:103650003946FDF767FB00285AF036A4BEA3D3E92C
:10366000002340464946FDF75DFBA8B1BCA3D3E962
:10367000002340464946FDF755FB00285AF027A491
:10368000B9A3D3E9002340464946FDF74BFBB0FA06
:1036900080F04009FEF73FB8B5A3D3E900233046D8
:1036A0003946FDF73FFB00281AF014A4B2A3D3E972
:1036B000002320462946FDF735FBB0FA80F040098B
:1036C000FEF729B8AEA3D3E9002330463946FDF70B
:1036D00029FB00285AF001A4ABA3D3E9002320461C
:1036E0002946FDF71FFBF8B1A9A3D3E90023204623
:1036F0002946FDF717FB00281AF0F2A3A6A3D3E989
:10370000002320462946FDF70DFB00285AF0EBA3C5
:10371000A3A3D3E9002330463946FDF703FB003865
:1037200018BF0120FDF7F7BF9FA3D3E90023304660
:103730003946FDF7F7FAA8B19DA3D3E90023404627
:103740004946FDF7EFFA00281AF0D0A39AA3D3E96F
:10375000002320462946FDF7E5FA003818BF01206E
:10376000FDF7D9BF96A3D3E9002330463946FDF7CC
:10377000D9FAB0FA80F04009FDF7CDBF92A3D3E9A2
:10378000002330463946FDF7CDFA002801F0E387E3
:103790008FA3D3E9002330463946FDF7C3FA00284A
:1037A00001F04487AE490298FDF7CEFD002800F0F5
:1037B000AD8489A3D3E9002320462946FDF7B2FA58
:1037C0008246002800F0678485A3D3E900233046B1
:1037D0003946FDF7A7FA002800F03D8482A3D3E91B
:1037E000002330463946FDF79DFA002800F0568147
:1037F0007FA3D3E9002330463946FDF793FA00282A
:1038000000F036817CA3D3E9002320462946FDF74A
:1038100089FA002800F0868092490398FDF794FD0C
:1038200000281AF066A376A3D3E900233046394670
:10383000FDF778FA002855D073A3D3E9002340465A
:103840004946FDF76FFA80B371A3D3E900233046F0
:103850003946FDF767FA00281AF04EA3824902980C
:10386000FDF772FDA8B16CA3D3E9002320462946D9
:10387000FDF758FA00281AF042A369A3D3E9002300
:1038800040464946FDF74EFA003818BF0120FDF7C3
:1038900042BF65A3D3E9002320462946FDF742FA3B
:1038A000B0FA80F04009FDF736BF70490398FDF784
:1038B0004BFD58B15EA3D3E9002340464946FDF7CE
:1038C00031FAB0FA80F04009FDF725BF5AA3D3E9D9
:1038D000002320462946FDF725FA003818BF0120AD
:1038E000FDF719BF56A3D3E9002340464946FDF72B
:1038F00019FA00285AF006A353A3D3E9002320465F
:103900002946FDF70FFA00281AF0FFA250A3D3E9C9
:10391000002340464946FDF705FAB0FA80F0400919
:10392000FDF7F9BE4CA3D3E9002330463946FDF735
:10393000F9F9003818BF0120FDF7EDBEAFF30080A4
:10394000CDCCCCCCCCEC43405C8FC2F528FA8E4079
:103950001F85EB51B81E3F40713D0AD7A300504070
:103960007B14AE47E19A4F403D0AD7A3709D4F406C
:103970005C8FC2F528DC41401F85EB51B8F28E40C8
:103980003333333333D3454085EB51B81EE38E4098
:10399000A4703D0AD7D78E40713D0AD7A3D68E407A
:1039A00014AE47E17AF44840C3F5285C8F024740E3
:1039B000B81E85EB51384F409A99999999F18E40EC
:1039C00052B81E85EB914A40D7A3703D0A374B4051
:1039D000C3F5285C8FA24A40CDCCCCCCCC7E8E40A7
:1039E000295C8FC2F5284A40AE47E17A140E424066
:1039F0001F85EB51B8BE414048E17A14AE798E4044
:103A00007B14AE47E1BA4040713D0AD7A3905140C4
:103A10005C8FC2F5281C3F40B81E85EB51528E408A
:103A2000F6285C8FC29550405C8FC2F528728E409C
:103A3000D7A3703D0AA751408FC2F5285C638E4022
:103A4000295C8FC2F5285040CDCCCCCCCC768E40B2
:103A50003333333333E3514014AE47E17A344040DB
:103A60000040744400000A4200E072440000FC413F
:103A7000B9A3D3E9002340464946FDF753F900288E
:103A80003DF449AEB6A3D3E9002330463946FDF7ED
:103A900049F9B0FA80F04009FDF73DBEB2A3D3E981
:103AA000002320462946FDF73DF9002800F0468214
:103AB000AFA3D3E9002320462946FDF733F90028B8
:103AC00000F0D881ACA3D3E9002340464946FDF776
:103AD00029F900283DF41FAEA9A3D3E900233046FD
:103AE0003946FDF71FF900283DD0A7A3D3E90023ED
:103AF00020462946FDF716F9F8B1A5A3D3E900231E
:103B000020462946FDF70EF900283DF404AEA2A395
:103B1000D3E9002320462946FDF704F900281AF0CE
:103B2000F7A19FA3D3E9002330463946FDF7FAF801
:103B3000003818BF0120FDF7EEBD9BA3D3E9002399
:103B400040464946FDF7EEF800281AF0E4A198A394
:103B5000D3E9002340464946FDF7E4F8003818BF92
:103B60000120FDF7D8BD94A3D3E9002330463946A0
:103B7000FDF7D8F8824600285AF0D0A190A3D3E9E7
:103B8000002320462946FDF7CDF800281AF0C9A1E8
:103B9000B5490198FDF7D8FB00283DD08AA3D3E9A9
:103BA000002320462946FDF7BDF800285AF0BCA1A5
:103BB00087A3D3E9002330463946FDF7B3F8F8B1BF
:103BC00085A3D3E9002330463946FDF7ABF800283A
:103BD0001AF0ADA182A3D3E9002330463946FDF7A0
:103BE000A1F800285AF0A6A17FA3D3E900234046FC
:103BF0004946FDF797F8003818BF0120FDF78BBD47
:103C00007BA3D3E9002330463946FDF78BF8B0FAA1
:103C100080F04009FDF77FBD77A3D3E9002340463C
:103C20004946FDF77FF800286DD075A3D3E900233E
:103C300040464946FDF776F800283DF46CAD72A386
:103C4000D3E9002320462946FDF76CF8A8B170A3FC
:103C5000D3E9002330463946FDF764F800281AF00E
:103C60009FA16DA3D3E9002340464946FDF75AF8CA
:103C7000003818BF0120FDF74EBD69A3D3E900232A
:103C800030463946FDF74EF8A0B367A3D3E90023C9
:103C900030463946FDF746F8804658B164A3D3E96B
:103CA000002330463946FDF73DF8B0FA80F0400970
:103CB000FDF731BD60A3D3E9002320462946FDF777
:103CC00031F800285AF06FA15DA3D3E90023204604
:103CD0002946FDF727F800281AF068A15AA3D3E96E
:103CE000002330463946FDF71DF8B0FA80F0400950
:103CF000FDF711BD5D490198FDF726FBB0FA80F094
:103D00004009FDF708BD5A490298FDF71DFB06461C
:103D100000285AF04EA14EA3D3E90023204629469D
:103D2000FDF700F800285AF047A14BA3D3E9002380
:103D300020462946FCF7F6FF00285AF040A148A388
:103D4000D3E9002340464946FCF7ECFFB0FA80F087
:103D50004009FDF7E0BC00BFB81E85EB515850404C
:103D6000D7A3703D0AD741405C8FC2F528728E40C0
:103D7000E17A14AE476B8E4052B81E85EB3152404B
:103D800052B81E85EB114440A4703D0AD7598E40AD
:103D90003333333333578E403D0AD7A370538E40AD
:103DA000D7A3703D0A57424014AE47E17A645140B0
:103DB000E17A14AE47D1504085EB51B81E254440FE
:103DC0001F85EB51B8688E40713D0AD7A3528E40D3
:103DD000A4703D0AD7634940A4703D0AD7C345404B
:103DE000295C8FC2F588444014AE47E17A345040D4
:103DF0003D0AD7A370DD4940CDCCCCCCCC8C514012
:103E0000B81E85EB518851407B14AE47E1568E4079
:103E10000AD7A3703D6A46406666666666265140CC
:103E20009A9999999919494048E17A14AEA7444062
:103E3000C3F5285C8F4244403D0AD7A3705D8E4095
:103E40007B14AE47E1608E408FC2F5285CEF4440A2
:103E5000CDCCCCCCCC5E8E406666666666668E4007
:103E60005C8FC2F528CC514000808542008088429A
:103E700000E07244B6A3D3E9002320462946FCF7AC
:103E800051FF00283DD0B4A3D3E900234046494662
:103E9000FCF748FF00285AF095A0B1A3D3E900230E
:103EA00040464946FCF73EFFF8B1AFA3D3E90023F3
:103EB00030463946FCF736FF00281AF086A0ACA33E
:103EC000D3E9002320462946FCF72CFF00283DF4C7
:103ED00022ACA9A3D3E9002320462946FCF722FF00
:103EE000B0FA80F04009FDF716BCA5A3D3E9002382
:103EF00030463946FCF716FF003818BF0120FDF7A1
:103F00000ABCA1A3D3E9002340464946FCF70AFFB7
:103F100000281AF05DA0CE490198FDF715FA002897
:103F20003DF4F9AB9AA3D3E9002330463946FCF7B8
:103F3000F9FE003818BF0120FDF7EDBB96A3D3E9C9
:103F4000002320462946FCF7EDFE50B394A3D3E9A5
:103F5000002340464946FCF7E5FE90B1BD49019873
:103F6000FDF7F2F900281AF036A08FA3D3E9002359
:103F700030463946FCF7D6FEB0FA80F04009FDF72E
:103F8000CABB8BA3D3E9002340464946FCF7CAFECF
:103F9000002814BF0123002383F00103D8B2FDF7EA
:103FA000BABB85A3D3E9002320462946FCF7BAFE15
:103FB00000281AF013A082A3D3E900234046494603
:103FC000FCF7B0FE00281AF00CA07FA3D3E9002371
:103FD00040464946FCF7A6FE00283DF49CAB7CA376
:103FE000D3E9002330463946FCF79CFE002859F0FF
:103FF000FBA779A3D3E9002330463946FCF792FEAC
:104000000446A8B176A3D3E9002330463946FCF72D
:1040100089FE002819F0EBA773A3D3E900233046EB
:104020003946FCF77FFE003818BF0120FDF773BB4F
:104030006FA3D3E9002340464946FCF773FE0028EE
:1040400059F0D8A784490198FDF77EF9003818BFC8
:104050000120FDF760BB68A3D3E900232046294671
:10406000FCF760FE00283DF456AB65A3D3E90023BE
:1040700040464946FCF756FE002819F0BEA762A349
:10408000D3E9002330463946FCF74CFE003818BF10
:104090000120FDF740BB5EA3D3E90023404649461B
:1040A000FCF740FE002859F0ABA75BA3D3E900233F
:1040B00030463946FCF736FEA8B159A3D3E90023B0
:1040C00030463946FCF72EFE002859F09CA756A32F
:1040D000D3E9002340464946FCF724FE003818BFC8
:1040E0000120FDF718BB5D490298FDF72DF9002866
:1040F00059F08CA74EA3D3E9002340464946FCF76C
:1041000011FEB0FA80F04009FDF705BB4AA3D3E9E0
:10411000002320462946FCF705FE8346002800F0D0
:104120009F8047A3D3E9002330463946FCF7FAFDC8
:1041300000283DF4F0AA44A3D3E9002320462946F1
:10414000FCF7F0FD003818BF0120FDF7E4BA00BF0E
:104150003D0AD7A3706F8E4014AE47E17A545040A9
:104160003D0AD7A370CD514052B81E85EBD14840CF
:10417000EC51B81E856B8E408FC2F5285C6B8E406B
:1041800066666666668648406666666666965140FE
:1041900014AE47E17A14464048E17A14AE798E4075
:1041A0009A99999999E951406666666666264640ED
:1041B0009A99999999F951400AD7A3703D7E8E40FA
:1041C000EC51B81E85FB5140E17A14AE47B1514025
:1041D00014AE47E17AB44340295C8FC2F5284740CA
:1041E000C3F5285C8F424440D7A3703D0A37444052
:1041F000295C8FC2F58850405C8FC2F528728E40D2
:1042000048E17A14AE3751403D0AD7A3705D4A4069
:104210005C8FC2F5282C5040D7A3703D0A3743402D
:10422000D7A3703D0A974140D7A3703D0A6750401D
:10423000C3F5285C8F62514014AE47E17A8A8E4004
:1042400085EB51B81E8542403D0AD7A370898E4048
:10425000008087420000844200808942003074441C
:1042600099A3D3E9002320462946FCF75BFD0028EB
:1042700000F0CC80CE490198FDF766F88246002810
:1042800000F0868092A3D3E9002340464946FCF71C
:1042900049FD00283DD090A3D3E90023304639469C
:1042A000FCF740FD002859F0B4A68DA3D3E9002304
:1042B00040464946FCF736FDA8B18BA3D3E900235D
:1042C00030463946FCF72EFD002819F0A5A688A334
:1042D000D3E9002340464946FCF724FDB0FA80F0BC
:1042E0004009FDF718BA84A3D3E9002330463946C4
:1042F000FCF718FD002819F092A681A3D3E900234A
:1043000030463946FCF70EFD003818BF0120FDF796
:1043100002BA7DA3D3E9002320462946FCF702FD1B
:1043200000283DF4F8A97AA3D3E9002320462946C2
:10433000FCF7F8FC002819F075A677A3D3E9002351
:1043400020462946FCF7EEFC002819F06EA674A35F
:10435000D3E9002340464946FCF7E4FC0646002822
:1043600059F066A670A3D3E9002340464946FCF7FE
:10437000D9FC002859F05FA66DA3D3E9002320469D
:104380002946FCF7CFFC003818BF0120FDF7C3B960
:1043900069A3D3E9002330463946FCF7C3FC002863
:1043A0003DF4B9A966A3D3E9002340464946FCF78A
:1043B000B9FC002859F042A663A3D3E90023404684
:1043C0004946FCF7AFFC00283DF4A5A960A3D3E95A
:1043D000002320462946FCF7A5FC002819F031A649
:1043E0005DA3D3E9002320462946FCF79BFC002867
:1043F00059F02AA65AA3D3E9002330463946FCF7E0
:1044000091FCB0FA80F04009FDF785B956A3D3E9D5
:10441000002320462946FCF785FC002800F0508147
:1044200053A3D3E9002330463946FCF77BFC002830
:104430003DF471A950A3D3E9002340464946FCF757
:1044400071FC00283DF467A94DA3D3E90023304651
:104450003946FCF767FC002859F0F9A54AA3D3E9CF
:10446000002330463946FCF75DFC002859F0F2A5E0
:1044700047A3D3E9002320462946FCF753FC002834
:1044800000F0988044A3D3E9002340464946FCF756
:1044900049FC002819F0E1A541A3D3E900233046E7
:1044A0003946FCF73FFC002859F0DAA53EA3D3E9D2
:1044B000002340464946FCF735FC003818BF012070
:1044C000FDF729B9AFF30080AE47E17A14988E402A
:1044D000F6285C8FC2D550400AD7A3703DAA404051
:1044E00014AE47E17AA4504048E17A14AEA74240A6
:1044F0007B14AE47E17A504048E17A14AEA74840B9
:10450000EC51B81E852B424052B81E85EB978E4069
:1045100085EB51B81E8F8E40CDCCCCCCCC8E8E404E
:1045200033333333333351400AD7A3703D4A5140BC
:104530008FC2F5285C8D8E401F85EB51B87E4540BB
:104540008FC2F5285C9F51403D0AD7A3702D524081
:10455000A4703D0AD78F8E4048E17A14AE8B8E400E
:10456000295C8FC2F5C8434048E17A14AEA58E405D
:10457000AE47E17A14AE49406666666666365240DA
:10458000AE47E17A148E4040F6285C8FC2B54040B9
:104590001F85EB51B89C8E40713D0AD7A310514046
:1045A0005C8FC2F5287C43407B14AE47E10A514042
:1045B00000008C42C0A3D3E9002320462946FCF723
:1045C000B1FB8246F8B1BEA3D3E900233046394699
:1045D000FCF7A8FB002819F046A5BBA3D3E90023EC
:1045E00030463946FCF79EFB00283DF494A8B8A35A
:1045F000D3E9002340464946FCF794FBB0FA80F02B
:104600004009FDF788B8B4A3D3E900233046394602
:10461000FCF788FB002819F029A5B1A3D3E90023F2
:1046200040464946FCF77EFB002819F022A5AEA3C0
:10463000D3E9002330463946FCF774FB002859F0D3
:104640001BA5ABA3D3E9002330463946FCF76AFB30
:1046500000283DF460A8A8A3D3E9002320462946FA
:10466000FCF760FB8246002859F009A5A4A3D3E912
:10467000002320462946FCF755FB002859F002A5E7
:10468000A1A3D3E9002330463946FCF74BFB0028B1
:1046900059F0FBA49EA3D3E9002320462946FCF74A
:1046A00041FB002819F0F4A49BA3D3E90023404662
:1046B0004946FCF737FBB0FA80F04009FDF72BB80C
:1046C00097A3D3E9002320462946FCF72BFB82461B
:1046D00058B195A3D3E9002330463946FCF722FBB5
:1046E000B0FA80F04009FDF716B891A3D3E9002392
:1046F00030463946FCF716FBA8B18FA3D3E9002357
:1047000040464946FCF70EFB002859F0C4A48CA390
:10471000D3E9002330463946FCF704FB003818BFC4
:104720000120FCF7F8BF88A3D3E9002330463946BF
:10473000FCF7F8FA002800F05F8385A3D3E9002393
:1047400020462946FCF7EEFA002800F06B8282A38F
:10475000D3E9002320462946FCF7E4FA00283CF47C
:10476000DAAF7FA3D3E9002340464946FCF7DAFAE3
:10477000002800F0CC817CA3D3E9002340464946C1
:10478000FCF7D0FA002800F0A28179A3D3E9002336
:1047900020462946FCF7C6FA00283ED076A3D3E986
:1047A000002330463946FCF7BDFA0446A8B174A38D
:1047B000D3E9002340464946FCF7B4FA002859F0F3
:1047C0006DA471A3D3E9002340464946FCF7AAFA39
:1047D000B0FA80F04009FCF79EBF6DA3D3E9002337
:1047E00030463946FCF79EFA002859F05AA46AA3CD
:1047F000D3E9002340464946FCF794FA002859F0D3
:1048000053A467A3D3E9002330463946FCF78AFA5C
:10481000B0FA80F04009FCF77EBF63A3D3E9002320
:1048200030463946FCF77EFA002800F0038160A389
:10483000D3E9002340464946FCF774FA58B15EA319
:10484000D3E9002320462946FCF76CFA003818BF4C
:104850000120FCF760BF5AA3D3E900232046294674
:10486000FCF760FA002800F0BB8057A3D3E90023CF
:1048700040464946FCF756FA00283CF44CAF54A396
:10488000D3E9002330463946FCF74CFA002859F0AA
:104890000EA451A3D3E9002340464946FCF742FA4F
:1048A000002814BF0123002383F00103D8B2FCF7D2
:1048B00032BF00BFAFF30080C3F5285C8F9E8E40EF
:1048C00014AE47E17AB44740B81E85EB51584240D8
:1048D000AE47E17A147E51409A9999999999484046
:1048E000E17A14AE47D151400AD7A3703D4A434004
:1048F000C3F5285C8F4248403D0AD7A370A18E4083
:10490000D7A3703D0AA38E4085EB51B81E65434086
:104910001F85EB51B8A48E400AD7A3703D8A514041
:104920006666666666A68E40F6285C8FC23549408C
:104930006666666666E63E400AD7A3703DAA5140A9
:10494000A4703D0AD7633E40AE47E17A146E4440FE
:1049500052B81E85EBE78E4048E17A14AEE58E40F2
:104960007B14AE47E1CA51401F85EB51B8AE5140B0
:104970003333333333BF8E408FC2F5285C0F424050
:10498000CDCCCCCCCC8C51405C8FC2F5289C514016
:10499000C3F5285C8F424340295C8FC2F5885040A4
:1049A000C3F5285C8F42444014AE47E17AD44140BD
:1049B000EC51B81E857B5040F6285C8FC2C38E40F8
:1049C0005C8FC2F528D08E403D0AD7A370AD504011
:1049D000F6285C8FC2F53F406666666666A6504064
:1049E000BFA3D3E9002320462946FCF79BF9002802
:1049F0003CF491AEBCA3D3E9002330463946FCF722
:104A000091F9002819F056A3B9A3D3E90023404631
:104A10004946FCF787F9002819F04FA3B6A3D3E95C
:104A2000002330463946FCF77DF9003818BF0120D5
:104A3000FCF771BEB2A3D3E9002320462946FCF758
:104A400071F970B3B0A3D3E9002320462946FCF7DF
:104A500069F900283CF45FAEADA3D3E900232046FA
:104A60002946FCF75FF98046002859F029A3AAA33C
:104A7000D3E9002320462946FCF754F9002859F0D1
:104A800022A3A7A3D3E9002330463946FCF74AF90D
:104A9000002814BF0123002383F00103D8B2FCF7E0
:104AA0003ABEA1A3D3E9002330463946FCF73AF9D0
:104AB000002859F00BA39EA3D3E9002340464946A2
:104AC000FCF730F9003818BF0120FCF724BE9AA388
:104AD000D3E9002320462946FCF724F9002859F0A1
:104AE000F8A297A3D3E9002320462946FCF71AF938
:104AF000002819F0F1A294A3D3E9002330463946E7
:104B0000FCF710F9B0FA80F04009FCF704BE90A35E
:104B1000D3E9002320462946FCF704F9002875D084
:104B20008DA3D3E9002330463946FCF7FBF8002873
:104B300060D08BA3D3E9002330463946FCF7F2F866
:104B400058B189A3D3E9002340464946FCF7EAF867
:104B5000003818BF0120FCF7DEBD85A3D3E9002390
:104B600030463946FCF7DEF88246A8B182A3D3E985
:104B7000002320462946FCF7D5F8002819F0AFA2FB
:104B80007FA3D3E9002320462946FCF7CBF8003861
:104B900018BF0120FCF7BFBD7BA3D3E9002340462B
:104BA0004946FCF7BFF800283CF4B5AD78A3D3E93B
:104BB000002330463946FCF7B5F8002859F092A298
:104BC00075A3D3E9002320462946FCF7ABF800285B
:104BD00059F08BA272A3D3E9002330463946FCF783
:104BE000A1F8002814BF0123002383F00103D8B2E9
:104BF000FCF791BD6CA3D3E9002340464946FCF77E
:104C000091F8B0FA80F04009FCF785BD68A3D3E9BC
:104C1000002340464946FCF785F8003818BF0120BC
:104C2000FCF779BD64A3D3E9002340464946FCF76D
:104C300079F8824698B362A3D3E900233046394617
:104C4000FCF770F8A8B160A3D3E9002330463946D9
:104C5000FCF768F8002819F04BA25DA3D3E9002304
:104C600030463946FCF75EF8003818BF0120FCF7E3
:104C700052BD59A3D3E9002320462946FCF752F838
:104C800000283CF448AD46A3D3E90023304639461A
:104C9000FCF748F8B0FA80F04009FCF73CBD50A39F
:104CA000D3E9002340464946FCF73CF8002859F078
:104CB00022A24DA3D3E9002320462946FCF732F86F
:104CC000002859F01BA24AA3D3E900232046294615
:104CD000FCF728F8B0FA80F04009FCF71CBD00BFD3
:104CE000CDCCCCCCCCDA8E40713D0AD7A3D040409D
:104CF000B81E85EB51A851408FC2F5285CCF3F40CC
:104D00007B14AE47E1D68E40B81E85EB51D68E405F
:104D10000AD7A3703DC88E406666666666CA8E4036
:104D2000B81E85EB51B8424048E17A14AE274440A2
:104D3000AE47E17A14CE5040E17A14AE47B58E40CA
:104D40003D0AD7A370DF8E40D7A3703D0AB743401A
:104D500014AE47E17ADA8E40C3F5285C8FC2434037
:104D600014AE47E17A543F40B81E85EB51F85140EC
:104D70009A99999999194140CDCCCCCCCCC68E400A
:104D8000AE47E17A14C68E403D0AD7A3703D52402B
:104D9000C3F5285C8F2241403333333333CB8E400D
:104DA0005C8FC2F528BC42409A9999999919524052
:104DB000EC51B81E850B5240D7A3703D0AF7514005
:104DC000D7A3703D0A7742403333333333F33E4049
:104DD000EC51B81E85EB3E40EC51B81E85F38E4079
:104DE000D7A3703D0A17524048E17A14AEED8E40C9
:104DF000CDCCCCCCCCF68E40C7A3D3E90023304633
:104E00003946FBF78FFF002852D0C5A3D3E9002312
:104E100040464946FBF786FF824658B1C2A3D3E914
:104E2000002340464946FBF77DFFB0FA80F0400979
:104E3000FCF771BCBEA3D3E9002330463946FBF72B
:104E400071FFF8B1BCA3D3E9002340464946FBF704
:104E500069FF002819F055A1B9A3D3E90023404602
:104E60004946FBF75FFF002859F04EA1B6A3D3E9EE
:104E7000002340464946FBF755FF003818BF012084
:104E8000FCF749BCB2A3D3E9002320462946FBF72F
:104E900049FF00283CF43FACAFA3D3E900232046F0
:104EA0002946FBF73FFFB0FA80F04009FCF733BC1E
:104EB000ABA3D3E9002330463946FBF733FF002884
:104EC0003CF429ACA8A3D3E9002320462946FBF7EC
:104ED00029FF824630B3A6A3D3E900232046294602
:104EE000FBF720FF00283CF416ACD3490398FCF7ED
:104EF0002BFA002819F00BA19FA3D3E90023304619
:104F00003946FBF70FFF002859F004A19CA3D3E911
:104F1000002320462946FBF705FF003818BF012073
:104F2000FCF7F9BB98A3D3E9002320462946FBF7F9
:104F3000F9FE002800F0088295A3D3E9002330464B
:104F40003946FBF7EFFE00287ED0BC490198FCF7FC
:104F5000FBF9E0B190A3D3E9002320462946FBF7F3
:104F6000E1FE002819F0D9A0B5490398FCF7ECF947
:104F7000002859F0D5A08AA3D3E90023204629466A
:104F8000FBF7D0FE003818BF0120FCF7C4BB86A396
:104F9000D3E9002320462946FBF7C4FEF8B184A3D9
:104FA000D3E9002330463946FBF7BCFE00283CF429
:104FB000B2AB81A3D3E9002320462946FBF7B2FE1A
:104FC000002859F0B0A07EA3D3E90023404649460B
:104FD000FBF7A8FEB0FA80F04009FCF79CBB7AA36F
:104FE000D3E9002320462946FBF79CFE8246A8B160
:104FF00077A3D3E9002340464946FBF793FE0028F8
:1050000019F094A074A3D3E9002340464946FBF766
:1050100089FE003818BF0120FCF77DBB70A3D3E9DF
:10502000002330463946FBF77DFE002859F081A069
:105030006DA3D3E9002320462946FBF773FEB0FA9F
:1050400080F04009FCF767BB69A3D3E90023304631
:105050003946FBF767FE002800F0228166A3D3E9FA
:10506000002330463946FBF75DFE00283CF453AB85
:1050700074490298FCF768F9002800F0FB8060A3EF
:10508000D3E9002320462946FBF74CFE8246002840
:1050900000F0DA805CA3D3E9002340464946FBF7E1
:1050A00041FE00283CF437AB59A3D3E90023404626
:1050B0004946FBF737FE002819F03EA056A3D3E976
:1050C000002330463946FBF72DFE8046002859F074
:1050D00036A0304652A3D3E900233946FBF722FE1F
:1050E0000646002859F02EA04FA3D3E900232046FE
:1050F0002946FBF717FE002859F027A04CA3D3E957
:10510000002320462946FBF70DFE003818BF01207A
:10511000FCF701BBAFF30080F6285C8FC2B54540B9
:105120003D0AD7A3705D5040E17A14AE472150404C
:10513000D7A3703D0AB744400AD7A3703D0A514037
:10514000B81E85EB51B85040B81E85EB51E8504071
:105150006666666666C08E401F85EB51B8B48E40A9
:105160009A99999999994A40D7A3703D0AAB8E4074
:10517000A4703D0AD7A98E401F85EB51B83E474029
:105180007B14AE47E1A68E40295C8FC2F5DA8E40D3
:1051900085EB51B81EE54740B81E85EB51C68E40E1
:1051A0001F85EB51B8B68E408FC2F5285CB58E4096
:1051B0000AD7A3703D8A4740C3F5285C8FB28E4062
:1051C000CDCCCCCCCC2C514085EB51B81ED78E40E9
:1051D000E17A14AE47F150403D0AD7A370ED50403C
:1051E0006666666666864640E17A14AE47D78E40AC
:1051F000713D0AD7A3504940B81E85EB513849404C
:1052000048E17A14AEC58E407B14AE47E1BA5140F6
:1052100052B81E85EB31514048E17A14AE07484040
:105220005C8FC2F5287C4840A4703D0AD7BD8E40F3
:105230007B14AE47E1C08E400000464200808342AE
:105240000000384200A07644A9A3D3E900232046F9
:105250002946FBF767FD002858F07AA7A6A3D3E9F3
:10526000002320462946FBF75DFD003818BF0120CA
:10527000FCF751BAA2A3D3E9002320462946FBF745
:1052800051FD002858F067A79FA3D3E900234046AB
:105290004946FBF747FD003818BF0120FCF73BBA31
:1052A0009BA3D3E9002330463946FBF73BFD00289A
:1052B00058F054A798A3D3E9002320462946FBF7CA
:1052C00031FD824640B1C8490398FCF73DF8B0FA79
:1052D00080F04009FCF71FBA91A3D3E900232046D0
:1052E0002946FBF71FFDC8B18FA3D3E90023404631
:1052F0004946FBF717FD002858F033A78CA3D3E9E4
:10530000002320462946FBF70DFD002814BF01238A
:10531000002383F00103D8B2FCF7FDB986A3D3E9DB
:10532000002330463946FBF7FDFC002858F01CA747
:1053300083A3D3E9002320462946FBF7F3FC00387A
:1053400018BF0120FCF7E7B97FA3D3E9002340464B
:105350004946FBF7E7FC002800F0A9807CA3D3E9CD
:10536000002320462946FBF7DDFC00284CD07AA319
:10537000D3E9002340464946FBF7D4FC002837D048
:1053800077A3D3E9002340464946FBF7CBFC00282E
:1053900058F0EDA674A3D3E9002330463946FBF755
:1053A000C1FC00283CF4B7A971A3D3E9002320462F
:1053B0002946FBF7B7FC58B16FA3D3E90023404659
:1053C0004946FBF7AFFC003818BF0120FCF7A3B932
:1053D0006BA3D3E9002340464946FBF7A3FC002812
:1053E00014BF0123002383F00103D8B2FCF793B963
:1053F00065A3D3E9002320462946FBF793FC003838
:1054000018BF0120FCF787B961A3D3E90023204628
:105410002946FBF787FC00283DD05FA3D3E9002392
:1054200020462946FBF77EFC002818F0A3A65CA3C3
:10543000D3E9002320462946FBF774FC00283CF4FE
:105440006AA959A3D3E9002340464946FBF76AFC01
:10545000002818F092A656A3D3E9002340464946F7
:10546000FBF760FC002818F08BA653A3D3E90023B8
:1054700030463946FBF756FC002858F084A650A366
:10548000D3E9002330463946FBF74CFCB0FA80F0F4
:105490004009FCF740B94CA3D3E900232046294634
:1054A000FBF740FCB0FA80F04009FCF734B948A3A0
:1054B000D3E9002330463946FBF734FC002800F0DE
:1054C000958045A3D3E9002320462946FBF72AFC13
:1054D00000283CF420A942A3D3E9002340464946D2
:1054E000FBF720FCB0FA80F04009FCF714B900BFCC
:1054F000EC51B81E85CD8E40AE47E17A14D28E4075
:10550000B81E85EB51DA8E40E17A14AE4731514036
:10551000A4703D0AD7C34940B81E85EB51B68E40F2
:1055200048E17A14AECD8E40EC51B81E859B5140B7
:10553000C3F5285C8FB88E40CDCCCCCCCC6C4A4027
:10554000A4703D0AD7CF8E4052B81E85EB21514042
:1055500014AE47E17AEA8E403D0AD7A370BD5040B1
:10556000295C8FC2F51850405C8FC2F5281C494059
:105570003D0AD7A370DD8E40EC51B81E858B50409C
:10558000F6285C8FC2A55040A4703D0AD7E98E4032
:105590007B14AE47E1F88E40D7A3703D0AF38E40EE
:1055A000C3F5285C8FF28E407B14AE47E16A504011
:1055B000EC51B81E855B50409A99999999394A40A7
:1055C000713D0AD7A3504A4052B81E85EBF98E4070
:1055D0001F85EB51B8FE48405C8FC2F528E68E402F
:1055E000295C8FC2F5B8514000004F42C8A3D3E9EF
:1055F000002330463946FBF795FB00283CF48BA886
:10560000C5A3D3E9002320462946FBF78BFB0028DE
:1056100058F0BCA5C2A3D3E9002340464946FBF796
:1056200081FB003818BF0120FCF775B8BEA3D3E991
:10563000002340464946FBF775FB002858F0A9A512
:10564000BBA3D3E9002340464946FBF76BFB002888
:105650006BD03046B8A3D3E900233946FBF762FB91
:10566000064600B3B6A3D3E9002340464946FBF7FC
:1056700059FB0646002858F08FA5B3A3D3E90023B1
:1056800040464946FBF74EFB002858F088A5B0A3DA
:10569000D3E9002320462946FBF744FB003818BF16
:1056A0000120FCF738B8ACA3D3E9002340464946B3
:1056B000FBF738FB002858F075A5A9A3D3E9002310
:1056C00040464946FBF72EFB00283CF424A8A6A33D
:1056D000D3E9002320462946FBF724FB58B1A4A3B5
:1056E000D3E9002340464946FBF71CFB003818BFAE
:1056F0000120FCF710B8A0A3D3E900234046494697
:10570000FBF710FB002818F050A59DA3D3E9002358
:1057100020462946FBF706FB002814BF012300237F
:1057200083F00103D8B2FBF7F6BF97A3D3E90023B8
:1057300040464946FBF7F6FA002858F039A594A3ED
:10574000D3E9002340464946FBF7ECFAB0FA80F073
:105750004009FBF7E0BF90A3D3E900234046494648
:10576000FBF7E0FAF8B18EA3D3E9002330463946BF
:10577000FBF7D8FA002818F01EA58BA3D3E9002365
:1057800040464946FBF7CEFA002818F017A588A333
:10579000D3E9002320462946FBF7C4FAB0FA80F08B
:1057A0004009FBF7B8BF84A3D3E90023404649462C
:1057B000FBF7B8FA002818F004A581A3D3E9002369
:1057C00040464946FBF7AEFA00283BF4A4AF7EA35F
:1057D000D3E9002340464946FBF7A4FAB0FA80F02B
:1057E0004009FBF798BF7AA3D3E900234046494616
:1057F000FBF798FA002858F0E7A477A3D3E9002331
:1058000040464946FBF78EFA003818BF0120FBF7E7
:1058100082BF89490298FBF797FDA8B170A3D3E92D
:10582000002320462946FBF77DFA002818F0CFA474
:105830006DA3D3E9002330463946FBF773FAB0FA7B
:1058400080F04009FBF767BF69A3D3E90023204636
:105850002946FBF767FA002858F0BCA466A3D3E9F1
:10586000002320462946FBF75DFA002844D064A3B4
:10587000D3E9002330463946FBF754FA002818F0E4
:10588000ACA461A3D3E9002330463946FBF74AFABA
:1058900000283BF440AF69490198FBF755FDA8B1DA
:1058A0005BA3D3E9002330463946FBF73BFA0028D7
:1058B0003BF431AF58A3D3E9002340464946FBF7F8
:1058C00031FA003818BF0120FBF725BF54A3D3E9F4
:1058D000002340464946FBF725FA002858F080A4EB
:1058E00051A3D3E9002340464946FBF71BFAB0FA1F
:1058F00080F04009FBF70FBF4DA3D3E900234046DA
:105900004946FBF70FFA003818BF0120FBF703BF29
:10591000295C8FC2F5084A407B14AE47E1F08E4007
:10592000D7A3703D0AB7514052B81E85EBC1504015
:10593000E17A14AE47D1514014AE47E17AF44A40BF
:105940003D0AD7A370DD5040EC51B81E85BB5140D5
:10595000E17A14AE47CD8E40B81E85EB51C8504059
:10596000EC51B81E85AB5140AE47E17A14808E40B1
:105970009A999999991951403D0AD7A370ED5040D1
:10598000EC51B81E85CF8E40B81E85EB5148524071
:10599000CDCCCCCCCC4C524085EB51B81E155140EF
:1059A0000AD7A3703D4A4B400AD7A3703DEA504046
:1059B000F6285C8FC2E98E40A4703D0AD71352408E
:1059C0008FC2F5285C5F51407B14AE47E15A5140CD
:1059D0000AD7A3703D1A514048E17A14AE5751409E
:1059E000F6285C8FC2558E40EC51B81E858B4B401B
:1059F000713D0AD7A3868E40295C8FC2F5E68E40A2
:105A0000A4703D0AD7A34B40C3F5285C8FA24B403E
:105A100052B81E85EB914B40AE47E17A147E504060
:105A2000D7A3703D0AA7514014AE47E17AD4514044
:105A30006666666666C6504000E073440080844235
:105A4000BBA3D3E9002330463946FBF76BF90028A6
:105A500000F02381B8A3D3E9002320462946FBF7B1
:105A600061F9002858F0BFA3B5A3D3E9002320466D
:105A70002946FBF757F958B1B3A3D3E900234046B1
:105A80004946FBF74FF9003818BF0120FBF743BE2A
:105A9000AFA3D3E9002320462946FBF743F982460A
:105AA00048B3ADA3D3E9002320462946FBF73AF9D2
:105AB00000283BF430AEAAA3D3E9002320462946B0
:105AC000FBF730F9002818F091A3A7A3D3E900232E
:105AD00040464946FBF726F900283BF41CAEA4A338
:105AE000D3E9002340464946FBF71CF9B0FA80F0A1
:105AF0004009FBF710BEA0A3D3E900234046494666
:105B0000FBF710F9002858F074A39DA3D3E90023F4
