:020000040800F2
:10000000C0200020654D000849470008514D0008F8
:10001000514D0008514D0008514D000800000000EE
:10002000000000000000000000000000194E000861
:10003000514D000800000000C54D0008D5610008C2
:100040008D4F00088D4F00088D4F00088D4F000820
:100050008D4F00088D4F00088D4F00088D4F000810
:100060008D4F00088D4F00088D4F00088D4F000800
:100070008D4F00088D4F00088D4F00088D4F0008F0
:100080008D4F00088D4F00088D4F00088D4F0008E0
:100090008D4F00088D4F00088D4F00088D4F0008D0
:1000A0008D4F00088D4F00088D4F00088D4F0008C0
:1000B0008D4F00088D4F00088D4F00088D4F0008B0
:1000C0008D4F00088D4F00088D4F00088D4F0008A0
:1000D0008D4F00088D4F00088D4F00088D4F000890
:1000E0008D4F00088D4F00088D4F00088D4F000880
:1000F0008D4F00088D4F00088D4F00088D4F000870
:100100008D4F00088D4F00088D4F00088D4F00085F
:100110008D4F00088D4F00088D4F00088D4F00084F
:100120008D4F00088D4F00088D4F00088D4F00083F
:100130008D4F00088D4F00088D4F00088D4F00082F
:100140008D4F00088D4F00088D4F00088D4F00081F
:100150008D4F00088D4F00088D4F00088D4F00080F
:100160008D4F00088D4F00088D4F00088D4F0008FF
:100170008D4F00088D4F00088D4F00088D4F0008EF
:100180008D4F00088D4F00088D4F00088D4F0008DF
:100190008D4F00088D4F00088D4F00088D4F0008CF
:1001A0008D4F00088D4F00088D4F00088D4F0008BF
:1001B0008D4F00088D4F00088D4F00088D4F0008AF
:0401C0008D4F000857
:1002000090F800F06DE9024520F007016FF0000C56
:1002100010F0070491F820F040F049804FF00004FE
:100220006FF00700D1E9002391F840F000F10800D9
:1002300082FA4CF2A4FA8CF283FA4CF3A2FA8CF311
:100240004BBBD1E9022382FA4CF200F10800A4FA78
:100250008CF283FA4CF3A2FA8CF3E3B9D1E90423CC
:1002600082FA4CF200F10800A4FA8CF283FA4CF303
:10027000A2FA8CF37BB9D1E9062301F1200182FABD
:100280004CF200F10800A4FA8CF283FA4CF3A2FAC3
:100290008CF3002BC6D0002A04BF04301A4612BAD1
:1002A000B2FA82F2FDE8024500EBD2007047D1E9D4
:1002B000002304F00305C4F100004FEAC50514F063
:1002C000040F91F840F00CFA05F562EA05021CBF34
:1002D00063EA050362464FF00004A9E7000000004E
:1002E00001F0FF01102A2BDB10F0070F08D010F8E7
:1002F000013B013A8B422DD010F0070F42B3F6D1EB
:10030000F0B441EA012141EA014122F007047FF003
:1003100000070023F0E80256083C85EA010586EA5A
:10032000010685FA47F5A3FA87F586FA47F6A5FA96
:1003300087F68EB9EED1F0BC01F0FF0102F00702A2
:1003400032B110F8013B013A83EA010313B1F8D14D
:100350000020704701387047002D06BF354603382E
:10036000073815F0010F07D1013015F4807F02BF67
:10037000013015F4C03F0130F0BC0138704700BFB8
:10038000844641EA000313F003036DD1403A41D3A0
:1003900051F8043B40F8043B51F8043B40F8043B5F
:1003A00051F8043B40F8043B51F8043B40F8043B4F
:1003B00051F8043B40F8043B51F8043B40F8043B3F
:1003C00051F8043B40F8043B51F8043B40F8043B2F
:1003D00051F8043B40F8043B51F8043B40F8043B1F
:1003E00051F8043B40F8043B51F8043B40F8043B0F
:1003F00051F8043B40F8043B51F8043B40F8043BFF
:1004000051F8043B40F8043B51F8043B40F8043BEE
:10041000403ABDD2303211D351F8043B40F8043B8E
:1004200051F8043B40F8043B51F8043B40F8043BCE
:1004300051F8043B40F8043B103AEDD20C3205D39E
:1004400051F8043B40F8043B043AF9D2043208D096
:10045000D2071CBF11F8013B00F8013B01D30B8808
:1004600003806046704700BF082A13D38B078DD0E6
:1004700010F003038AD0C3F10403D21ADB071CBFB8
:1004800011F8013B00F8013B80D331F8023B20F822
:10049000023B7BE7043AD9D3013A11F8013B00F85B
:1004A000013BF9D20B7803704B7843708B788370E3
:1004B0006046704781F0004102E000BF83F00043D6
:1004C00030B54FEA41044FEA430594EA050F08BFEF
:1004D00090EA020F1FBF54EA000C55EA020C7FEAB3
:1004E000645C7FEA655C00F0E2804FEA5454D4EB30
:1004F0005555B8BF6D420CDD2C4480EA020281EAFA
:10050000030382EA000083EA010180EA020281EA31
:100510000303362D88BF30BD11F0004F4FEA013183
:100520004FF4801C4CEA113102D0404261EB410192
:1005300013F0004F4FEA03334CEA133302D0524218
:1005400063EB430394EA050F00F0A780A4F10104D4
:10055000D5F1200E0DDB02FA0EFC22FA05F280180E
:1005600041F1000103FA0EF2801843FA05F35941F4
:100570000EE0A5F120050EF1200E012A03FA0EFC73
:1005800028BF4CF0020C43FA05F3C01851EBE3719D
:1005900001F0004507D54FF0000EDCF1000C7EEBBA
:1005A00000006EEB0101B1F5801F1BD3B1F5001FF8
:1005B0000CD349085FEA30004FEA3C0C04F1010417
:1005C0004FEA445212F5800F80F09A80BCF1004F40
:1005D00008BF5FEA500C50F1000041EB045141EAC2
:1005E000050130BD5FEA4C0C404141EB0101013C8B
:1005F00028BFB1F5801FE9D291F0000F04BF01467A
:100600000020B1FA81F308BF2033A3F10B03B3F14B
:1006100020020CDA0C3208DD02F1140CC2F10C02DB
:1006200001FA0CF021FA02F10CE002F11402D8BF39
:10063000C2F1200C01FA02F120FA0CFCDCBF41EA05
:100640000C019040E41AA2BF01EB0451294330BDD4
:100650006FEA04041F3C1CDA0C340EDC04F11404B1
:10066000C4F1200220FA04F001FA02F340EA030088
:1006700021FA04F345EA030130BDC4F10C04C4F1CE
:10068000200220FA02F001FA04F340EA03002946AE
:1006900030BD21FA04F0294630BD94F0000F83F4F8
:1006A000801306BF81F480110134013D4EE77FEADB
:1006B000645C18BF7FEA655C29D094EA050F08BF27
:1006C00090EA020F05D054EA000C04BF1946104608
:1006D00030BD91EA030F1EBF0021002030BD5FEA4C
:1006E000545C05D14000494128BF41F0004130BD74
:1006F00014F580043CBF01F5801130BD01F00045C8
:1007000045F0FE4141F470014FF0000030BD7FEA3A
:10071000645C1ABF194610467FEA655C1CBF0B4635
:10072000024650EA013406BF52EA033591EA030F4C
:1007300041F4002130BD00BF90F0000F04BF002144
:10074000704730B54FF4806404F132044FF0000577
:100750004FF0000150E700BF90F0000F04BF0021F0
:10076000704730B54FF4806404F1320410F0004556
:1007700048BF40424FF000013EE700BF42004FEA51
:10078000E2014FEA31014FEA02701FBF12F07F43CE
:1007900093F07F4F81F06051704732F07F4208BF85
:1007A000704793F07F4F04BF41F40021704730B58C
:1007B0004FF4607401F0004521F000411CE700BFD8
:1007C00050EA010208BF704730B54FF000050AE05B
:1007D00050EA010208BF704730B511F0004502D55C
:1007E000404261EB41014FF4806404F132045FEA5E
:1007F000915C3FF4D8AE4FF003025FEADC0C18BF07
:1008000003325FEADC0C18BF033202EBDC02C2F1F8
:10081000200300FA03FC20FA02F001FA03FE40EA8A
:100820000E0021FA02F11444BDE600BF70B54FF08E
:10083000FF0C4CF4E06C1CEA11541DBF1CEA13556C
:1008400094EA0C0F95EA0C0F00F0DEF82C4481EAD4
:10085000030621EA4C5123EA4C5350EA013518BFF4
:1008600052EA033541F4801143F4801338D0A0FBE1
:1008700002CE4FF00005E1FB02E506F00042E0FB8E
:1008800003E54FF00006E1FB03569CF0000F18BF94
:100890004EF0010EA4F1FF04B6F5007F64F540743C
:1008A00004D25FEA4E0E6D4146EB060642EAC621CF
:1008B00041EA55514FEAC52040EA5E504FEACE2E3C
:1008C000B4F1FD0C88BFBCF5E06F1ED8BEF1004F3F
:1008D00008BF5FEA500E50F1000041EB045170BDBB
:1008E00006F0004646EA010140EA020081EA0301FF
:1008F000B4EB5C04C2BFD4EB0C0541EA045170BDFB
:1009000041F480114FF0000E013C00F3AB8014F174
:10091000360FDEBF002001F0004170BDC4F10004BD
:10092000203C35DA0C341BDC04F11404C4F120053E
:1009300000FA05F320FA04F001FA05F240EA020099
:1009400001F0004221F0004110EBD37021FA04F6CF
:1009500042EB06015EEA430E08BF20EAD37070BD89
:10096000C4F10C04C4F1200500FA04F320FA05F0E8
:1009700001FA04F240EA020001F0004110EBD370EA
:1009800041F100015EEA430E08BF20EAD37070BD5A
:10099000C4F1200500FA05F24EEA020E20FA04F333
:1009A00001FA05F243EA020321FA04F001F00041E2
:1009B00021FA04F220EA020000EBD3705EEA430E53
:1009C00008BF20EAD37070BD94F0000F0FD101F082
:1009D0000046400041EB010111F4801F08BF013CBB
:1009E000F7D041EA060195F0000F18BF704703F0F9
:1009F0000046520043EB030313F4801F08BF013D80
:100A0000F7D043EA0603704794EA0C0F0CEA13553B
:100A100018BF95EA0C0F0CD050EA410618BF52EAF5
:100A20004306D1D181EA030101F000414FF00000FB
:100A300070BD50EA410606BF1046194652EA430609
:100A400019D094EA0C0F02D150EA013613D195EA7D
:100A50000C0F05D152EA03361CBF104619460AD1C5
:100A600081EA030101F0004141F0FE4141F47001CF
:100A70004FF0000070BD41F0FE4141F4780170BDBF
:100A800070B54FF0FF0C4CF4E06C1CEA11541DBF24
:100A90001CEA135594EA0C0F95EA0C0F00F0A7F826
:100AA000A4EB050481EA030E52EA03354FEA013153
:100AB00000F088804FEA03334FF0805545EA131366
:100AC00043EA12634FEA022245EA111545EA10652E
:100AD0004FEA00260EF000419D4208BF964244F1C5
:100AE000FD0404F5407402D25B084FEA3202B61AE4
:100AF00065EB03055B084FEA32024FF480104FF4B8
:100B0000002CB6EB020E75EB030E22BFB61A75462B
:100B100040EA0C005B084FEA3202B6EB020E75EBBE
:100B2000030E22BFB61A754640EA5C005B084FEA26
:100B30003202B6EB020E75EB030E22BFB61A7546F3
:100B400040EA9C005B084FEA3202B6EB020E75EBFE
:100B5000030E22BFB61A754640EADC0055EA060EBF
:100B600018D04FEA051545EA16754FEA06164FEA02
:100B7000C30343EA52734FEAC2025FEA1C1CC0D1AE
:100B800011F4801F0BD141EA00014FF000004FF03B
:100B9000004CB6E711F4801F04BF01430020B4F1FC
:100BA000FD0C88BFBCF5E06F3FF6AFAEB5EB030CB4
:100BB00004BFB6EB020C5FEA500C50F1000041EBB1
:100BC000045170BD0EF0004E4EEA113114EB5C047E
:100BD000C2BFD4EB0C0541EA045170BD41F4801151
:100BE0004FF0000E013C90E645EA060E8DE60CEA59
:100BF000135594EA0C0F08BF95EA0C0F3FF43BAF76
:100C000094EA0C0F0AD150EA01347FF434AF95EA2C
:100C10000C0F7FF425AF104619462CE795EA0C0F10
:100C200006D152EA03353FF4FDAE1046194622E7DD
:100C300050EA410618BF52EA43067FF4C5AE50EAB7
:100C400041047FF40DAF52EA43057FF4EBAE12E7A7
:100C50004FF0FF3C06E000BF4FF0010C02E000BF88
:100C60004FF0010C4DF804CD4FEA410C7FEA6C5C6B
:100C70004FEA430C18BF7FEA6C5C1BD001B050EA0E
:100C8000410C0CBF52EA430C91EA030F02BF90EAF9
:100C9000020F0020704710F1000F91EA030F58BFB8
:100CA000994208BF90422CBFD8176FEAE37040F01A
:100CB000010070474FEA410C7FEA6C5C02D150EAB8
:100CC000013C07D14FEA430C7FEA6C5CD6D152EA73
:100CD000033CD3D05DF8040B704700BF8446104638
:100CE00062468C461946634600E000BF01B5FFF737
:100CF000B7FF002848BF10F1000F01BD4DF808ED07
:100D0000FFF7F4FF0CBF012000205DF808FB00BFD7
:100D10004DF808EDFFF7EAFF34BF012000205DF831
:100D200008FB00BF4DF808EDFFF7E0FF94BF01207E
:100D300000205DF808FB00BF4DF808EDFFF7CEFF7F
:100D400094BF012000205DF808FB00BF4DF808EDBE
:100D5000FFF7C4FF34BF012000205DF808FB00BF8F
:100D60004FEA410C7FEA6C5C02D150EA013C0AD1A7
:100D70004FEA430C7FEA6C5C02D152EA033C02D199
:100D80004FF0000070474FF0010070474FEA4102FA
:100D900012F5001215D211D56FF47873B3EB6252CD
:100DA00012D94FEAC12343F0004343EA505311F0F4
:100DB000004F23FA02F018BF404270474FF0000086
:100DC000704750EA013005D111F0004008BF6FF0C4
:100DD000004070474FF00000704700BF80F00040B7
:100DE00002E000BF81F0004142001FBF5FEA410303
:100DF00092EA030F7FEA226C7FEA236C6AD04FEA03
:100E00001262D2EB1363C1BFD21841404840414047
:100E1000B8BF5B42192B88BF704710F0004F40F4F9
:100E2000000020F07F4018BF404211F0004F41F415
:100E3000000121F07F4118BF494292EA030F3FD0E1
:100E4000A2F1010241FA03FC10EB0C00C3F12003F4
:100E500001FA03F100F0004302D5494260EB400083
:100E6000B0F5000F13D3B0F1807F06D340084FEAEE
:100E7000310102F10102FE2A51D2B1F1004F40EBE3
:100E8000C25008BF20F0010040EA0300704749004B
:100E900040EB0000013A28BFB0F5000FEDD2B0FAE8
:100EA00080FCACF1080CB2EB0C0200FA0CF0AABF0B
:100EB00000EBC25052421843BCBFD04018437047A9
:100EC00092F0000F81F4000106BF80F400000132AF
:100ED000013BB5E74FEA41037FEA226C18BF7FEA86
:100EE000236C21D092EA030F04D092F0000F08BFC8
:100EF0000846704790EA010F1CBF0020704712F0AF
:100F00007F4F04D1400028BF40F00040704712F1ED
:100F100000723CBF00F50000704700F0004343F052
:100F2000FE4040F4000070477FEA226216BF084688
:100F30007FEA23630146420206BF5FEA412390EA4B
:100F4000010F40F4800070474FF0000304E000BF41
:100F500010F0004348BF40425FEA000C08BF7047F2
:100F600043F0964301464FF000001CE050EA0102B6
:100F700008BF70474FF000030AE000BF50EA0102CB
:100F800008BF704711F0004302D5404261EB4101B8
:100F90005FEA010C02BF84460146002043F0B643DD
:100FA00008BFA3F18053A3F50003BCFA8CF2083A02
:100FB000A3EBC25310DB01FA02FC634400FA02FC0B
:100FC000C2F12002BCF1004F20FA02F243EB020012
:100FD00008BF20F00100704702F1200201FA02FC74
:100FE000C2F1200250EA4C0021FA02F243EB020067
:100FF00008BF20EADC7070474FF0FF0C1CEAD052AB
:101000001EBF1CEAD15392EA0C0F93EA0C0F6FD06B
:101010001A4480EA010C400218BF5FEA41211ED049
:101020004FF0006343EA501043EA5111A0FB013135
:101030000CF00040B1F5000F3EBF490041EAD3710A
:101040005B0040EA010062F17F02FD2A1DD8B3F186
:10105000004F40EBC25008BF20F00100704790F0F5
:10106000000F0CF0004C08BF49024CEA502040EA47
:1010700051207F3AC2BFD2F1FF0340EAC25070470D
:1010800040F400004FF00003013A5DDC12F1190F4B
:10109000DCBF00F000407047C2F10002410021FABD
:1010A00002F1C2F1200200FA02FC5FEA310040F1D5
:1010B000000053EA4C0308BF20EADC70704792F04E
:1010C000000F00F0004C02BF400010F4000F013A86
:1010D000F9D040EA0C0093F0000F01F0004C02BF81
:1010E000490011F4000F013BF9D041EA0C018FE7F0
:1010F0000CEAD15392EA0C0F18BF93EA0C0F0AD0F6
:1011000030F0004C18BF31F0004CD8D180EA01001B
:1011100000F00040704790F0000F17BF90F0004FB4
:10112000084691F0000F91F0004F14D092EA0C0F96
:1011300001D142020FD193EA0C0F03D14B0218BF29
:10114000084608D180EA010000F0004040F0FE406F
:1011500040F40000704740F0FE4040F4400070470B
:101160004FF0FF0C1CEAD0521EBF1CEAD15392EA8A
:101170000C0F93EA0C0F69D0A2EB030280EA010C7A
:1011800049024FEA402037D04FF0805343EA111113
:1011900043EA10130CF000408B4238BF5B0042F171
:1011A0007D024FF4000C8B4224BF5B1A40EA0C0016
:1011B000B3EB510F24BFA3EB510340EA5C00B3EB48
:1011C000910F24BFA3EB910340EA9C00B3EBD10F36
:1011D00024BFA3EBD10340EADC001B0118BF5FEA88
:1011E0001C1CE0D1FD2A3FF650AF8B4240EBC250B1
:1011F00008BF20F0010070470CF0004C4CEA502072
:101200007F32C2BFD2F1FF0340EAC250704740F4C0
:1012100000004FF00003013A37E792F0000F00F0B2
:10122000004C02BF400010F4000F013AF9D040EA30
:101230000C0093F0000F01F0004C02BF490011F4C4
:10124000000F013BF9D041EA0C0195E70CEAD153BC
:1012500092EA0C0F08D142027FF47DAF93EA0C0FA3
:101260007FF470AF084676E793EA0C0F04D14B0287
:101270003FF44CAF08466EE730F0004C18BF31F039
:10128000004CCAD130F000427FF45CAF31F0004333
:101290007FF43CAF5FE700BF4FF0FF3C06E000BFCC
:1012A0004FF0010C02E000BF4FF0010C4DF804CDEF
:1012B0004FEA40024FEA41037FEA226C18BF7FEAFF
:1012C000236C11D001B052EA530C18BF90EA010F01
:1012D00058BFB2EB030088BFC81738BF6FEAE17090
:1012E00018BF40F0010070477FEA226C02D15FEA2C
:1012F000402C05D17FEA236CE4D15FEA412CE1D098
:101300005DF8040B704700BF844608466146FFE75E
:101310000FB5FFF7C9FF002848BF10F1000F0FBD40
:101320004DF808EDFFF7F4FF0CBF012000205DF839
:1013300008FB00BF4DF808EDFFF7EAFF34BF0120BE
:1013400000205DF808FB00BF4DF808EDFFF7E0FF57
:1013500094BF012000205DF808FB00BF4DF808EDA8
:10136000FFF7D2FF94BF012000205DF808FB00BF0B
:101370004DF808EDFFF7C8FF34BF012000205DF8ED
:1013800008FB00BF7BB972B90029BEBF00204FF037
:10139000004106E008BF00281CBF6FF000414FF07D
:1013A000FF3000F057B8ADF1080C6DE904CE00290C
:1013B00009DB002B1ADB00F04FF8DDF804E0DDE973
:1013C000022304B07047404261EB4101002B1BDB5C
:1013D00000F042F8DDF804E0DDE9022304B0404209
:1013E00061EB4101524263EB43037047524263EBAE
:1013F000430300F031F8DDF804E0DDE9022304B036
:10140000404261EB41017047524263EB430300F0FD
:1014100023F8DDF804E0DDE9022304B0524263EB77
:101420004303704753B94AB9002908BF00281CBFBD
:101430004FF0FF314FF0FF3000F00CB8ADF1080C69
:101440006DE904CE00F008F8DDF804E0DDE90223E0
:1014500004B07047704700BF2DE9F04786468C46C0
:101460000846089E154674461946002B40F0C28077
:101470008542B2FA82F245D94AB1C2F1200300FA9C
:1014800002FC2EFA03F3954043EA0C0C94404FEA19
:10149000154EA8B2BCFBFEF8230C0EFB18CC08FBC3
:1014A00000F943EA0C43994528D9EB1808F1FF37B6
:1014B00004D2994502D9A8F102072B44A3EB0903F2
:1014C000A4B2B3FBFEFC0EFB1C330CFB00F044EAA1
:1014D0000344A04214D92C190CF1FF3304D2A042CA
:1014E00002D9ACF102032C44241A43EA07401EB18E
:1014F000D440002334607360BDE8F0874746DDE7E1
:101500006346F1E792BB431B01214FEA154EAFB290
:10151000B3FBFEFC200C0EFB1C330CFB07F840EA6F
:101520000343984562D9EB180CF1FF3004D298457B
:1015300002D9ACF102002B44A3EB0803A4B2B3FB25
:10154000FEFC0EFB1C330CFB07F744EA0344A742E6
:101550004ED92C190CF1FF3304D2A74202D9ACF1B9
:1015600002032C44E41B43EA0040C0E7C2F120031D
:1015700020FA03F1954090402EFA03F303434FEA1B
:10158000154EAFB2B1FBFEFC0EFB1C10190C0CFB90
:1015900007F841EA0041884504FA02F422D96918A3
:1015A0000CF1FF3004D2884502D9ACF10200294485
:1015B000A1EB08019BB2B1FBFEFC0EFB1C110CFB66
:1015C00007F743EA01439F420ED9EB180CF1FF31B4
:1015D00004D29F4202D9ACF102012B44DB1B41EA49
:1015E000004192E76046E3E76146F7E76046A3E71C
:1015F0006346B7E7834206D916B9002108467BE760
:10160000C6E900E0F9E7B3FA83F78FB9834201D363
:10161000724508D8BEEB020460EB030301209C4630
:101620001EB9002168E73846FAE7C6E9004CF8E73A
:10163000C7F1200CBB4022FA0CF41C432EFA0CF12B
:1016400020FA0CF3B84001434FEA14490EFA07F5AB
:10165000B3FBF9F81FFA84FE09FB18300B0C08FBEA
:101660000EFA43EA00439A4502FA07F240D9E3181A
:1016700008F1FF3004D29A4502D9A8F102002344B0
:10168000A3EB0A0389B2B3FBF9F809FB183308FB93
:101690000EFE41EA03418E452CD9611808F1FF3353
:1016A00004D28E4502D9A8F10203214443EA004046
:1016B000A0FB0298A1EB0E014145CE46434602D362
:1016C00006D14D4504D2B9EB020E68EB0403013894
:1016D000002EA6D0B5EB0E0261EB030101FA0CFC63
:1016E00022FA07F34CEA0303F940C6E9003198E710
:1016F0004046C5E74346D9E72DE9F04F016C9FB05E
:1017000016461F46CDE904672B9D039049B1426CF4
:101710004A600123934004468B6008F07FFA00235F
:101720002364B7F10009B4BF012300232B60764B7B
:10173000BCBF29F00049CDF8149033EA090300F04A
:10174000AA80DDE904340022184621460023CDE9B1
:101750000801FFF7D3FA804668B12A9A0123136083
:101760002C9B13B12C9A694B1360694B0A930A980E
:101770001FB0BDE8F08F1CAB01931DAB0093039825
:10178000DDE9082308F07EFD5FEA1955824640F046
:101790009880DDE91C85454405F23243202B40F357
:1017A0008383C3F1400309FA03F905F2124326FAD1
:1017B00003F349EA0300FEF7BFFF0123013DA1F156
:1017C000F8711193534B0022FEF778FE48A3D3E93A
:1017D0000023FFF72BF848A3D3E90023FEF770FEA0
:1017E000064628460F46FEF7B7FF45A3D3E9002378
:1017F000FFF71CF802460B4630463946FEF760FEFE
:1018000006460F46FFF7C2FA002283460023304601
:101810003946FFF77DFA002840F01A83A8EB050847
:10182000BBF1160F08F1FF3400F28B813A4D05EB46
:10183000CB05D5E90023DDE90801FFF769FA0028A7
:1018400070D00023002C0BF1FF3B1093C0F27E817F
:1018500000230B93BBF1000F6ADA0B9BA3EB0B0386
:101860000B93CBF10003CDE90EB3289B092B4FF06E
:10187000000B65D8052B40F31C83043B28930025FF
:10188000289B023B032B00F22386DFE813F0600461
:101890005D04540438042A9AC9F3130942F20F7301
:1018A00059EA060913601CD12C9B002B00F02B86F3
:1018B0001A4B0A9308332C9A0A9813601FB0BDE89C
:1018C000F08FDDE90812C2F31303084643F07F519D
:1018D000CDF84480A5F2FF35DDF8708041F4401169
:1018E00070E72C9B002B40F0E7830D4B0A933EE7FB
:1018F00061436F63A787D23FB3C8608B288AC63F16
:10190000FB799F501344D33F0000F07F99E2000819
:1019100098E200080000F83F80DD0008BCE2000803
:10192000C8E20008B8F1000F40F3608410900B90FB
:1019300000230F93289BCDF838B0092B5C4499D92C
:101940000023CDE9283301254FF0FF330C95069392
:10195000039B00215964069B1893039808F038F9FB
:101960000A90002800F0BD85039B0A9A1A64069B22
:101970000E2B00F21581002D00F012810E9A002A24
:1019800040F33B84B24D02F00F0305EBC303D3E9F0
:10199000008913461511DA0540F1FA83AD4BDDE9F4
:1019A0000801D3E90823FFF76BF8CDE9120105F030
:1019B0000F0503277DB1A74EEB0708D540464946E2
:1019C000D6E90023FEF732FF0137804689466D10C5
:1019D00006F10806F0D142464B46DDE91201FFF759
:1019E0004FF880468946109B43B19B4B00224046EE
:1019F0004946FFF78DF9002840F0F1843846FEF79C
:101A0000ABFE42464B46FEF711FF944B0022FEF719
:101A100057FD069B0646A1F15077002B00F0A980E8
:101A20000E9B1993069B12930A9B894D494640468B
:101A3000CDE914675E1CFFF7A9F9129905EBC10304
:101A400053E902120746CDE91612FEF785FE02465B
:101A50000B4640464946FEF731FD89460C99303722
:101A6000DDE916238046FFB2002900F053847C494B
:101A70000020FFF705F8DDE91423FEF71FFD0A9D9E
:101A800002460B46CDE914232F7042464B46FFF722
:101A90005DF9002840F09784CDE91AB4CDF858A03C
:101AA000129DDDE914AB00272AE00137AF4280F236
:101AB000DE846C4B504659460022FEF7B7FE694B58
:101AC000002282468B4640464946FEF7AFFE8946D5
:101AD0008046FFF75BF90446FEF73EFE02460B46E2
:101AE00040464946FEF7EAFC303406F8014B5246C0
:101AF0005B4680468946FFF70BF9002840F0B48426
:101B000042464B4654490020FEF7D8FC52465B46FD
:101B1000FFF7FEF80028C8D0199BDDF858A00A9AF4
:101B2000374603F1010802E0974200F07C843E460C
:101B300017F8013D392BF7D00133DBB23B70454636
:101B400075E10123002C1093BFF682AEC8F10103AA
:101B50000B9300247EE63846FEF7FEFD42464B46D8
:101B6000FEF764FE3D4B0022FEF7AAFC0646A1F1FB
:101B700050773D4B404649460022FEF79FFC3246D7
:101B80003B4680468946FFF7E1F8002840F05A843A
:101B900040464946324607F10043FFF7B9F828BBF3
:101BA0001D9B002BC0F292800E9A0E2A00F38E80AD
:101BB000274D0E9B05EBC305D5E90034CDE9043470
:101BC000299B002B19DA069B002B16DC0ED1264B25
:101BD0000022DDE90401FEF729FE02460B46DDE99D
:101BE0000801FFF79FF8002800F02C844FF000094F
:101BF0000A9E4F46299BDD4325E2DDE90445DDE9E8
:101C0000088922462B4640464946FEF739FFFFF732
:101C1000BDF80646FEF7A0FD22462B46FEF706FE5F
:101C20000A9F0B46024649464046FEF747FC06F12E
:101C3000300307F8013B069B012B00F012830125BE
:101C4000CDF818A09946DDE904ABA8462CE000BF0A
:101C500080DD000858DD00080000F03F00001C4057
:101C60000000E03F000024400000144052465B4664
:101C700020462946FEF704FFFFF788F80646FEF7E0
:101C80006BFD52465B46FEF7D1FD08F101080B469D
:101C9000024629462046FEF711FC06F13003C845EE
:101CA00007F8013B00F0DB82B94B0022FEF7BEFDD6
:101CB0000022002304460D46FFF720F80028D5D067
:101CC0000E9DDDF818A001353E46B0E00C9A002AC2
:101CD00040F0D28000230F9D0B9E0C931F4656B1FF
:101CE000002C08DDA6420B9A3346A8BF2346D21A21
:101CF0000B92F61AE41A0F9B53B10C9B13B1002DF3
:101D000040F0E88251460F9A039808F017F982468E
:101D10000398012108F02EF88146BBF1000F40F036
:101D2000B681289B012B40F3CC810120204410F088
:101D30001F0000F09A80C0F12003042B40F3DA81E9
:101D40000B9BC0F11C0003440B93064404440B9B03
:101D5000002B05DD514603981A4608F049F98246E2
:101D6000002C05DD49460398224608F041F98146DA
:101D7000109B002B40F07081069B002B40F34881A4
:101D80000C9B002B40F0A4800E9D0135DDF82880CF
:101D9000069CDDF80CB0012607E0514600230A221C
:101DA000584607F045FF013682464946504607F03F
:101DB00029FDA64200F1300308F8013BEDDB069A4D
:101DC000002AC8BF16460A9AD8BF012602EB060BA6
:101DD0000024514601220398049308F009F949466A
:101DE000824608F07DF9002840F3E3810A9A02E078
:101DF0005A4500F0E9815E460BF1FF3B16F8013CC5
:101E0000392BF5D001338BF80030DDF80C804946D2
:101E1000404607F003FF57B12CB1BC4203D0214626
:101E2000404607F0FBFE0398394607F0F7FE03989B
:101E3000514607F0F3FE002333702A9B1D602C9B54
:101E4000002B3FF494AC0A981E601FB0BDE8F08FE1
:101E50005846FEF781FC32463B46FEF74FFF00280E
:101E60007FF4DCAC0BF1FF3BD8E41C230B9A1A4443
:101E70000B921E441C446AE7289A012A40F3A98168
:101E8000069A0F9B551EAB42C0F26B81002AA3EB52
:101E9000050580F2DD820B9B069A9E1A03980121AC
:101EA00007F068FF07461AE7C3F1200306FA03F0BC
:101EB00081E40125E4E43946002303980A2207F06F
:101EC000B7FE189B002B074640F3EF820E95069352
:101ED000002E00F33F81BBF1000F40F0DF81B846D8
:101EE0000A9E069C731E1C44049B0C9403F0010381
:101EF000039C0F934946504607F084FC39468346BD
:101F0000504608F0EDF8424649460546204608F09E
:101F100007F9C26801460BF13003002A3AD1089054
:101F200050460B9308F0DCF808990690204607F01D
:101F300075FE069A0B9B002A5AD1289A1AB90F9A55
:101F4000002A00F09A82002D45DB0C9AB346B2427B
:101F50000BF8013B00F0B981514600230A222046CC
:101F600007F066FE4745824639464FF000034FF0C2
:101F70000A02204636D007F05BFE414607460023A2
:101F80000A22204607F054FE5E468046B2E700BFB4
:101F9000000024400398069307F040FE002D069BA6
:101FA00006DB049A289902F001020D432A432AD144
:101FB000514601220398049308F01AF849468246D4
:101FC00008F08EF80028049B40F3E880392B00F0DD
:101FD0002F820BF131030E9D06F8013B3C46013583
:101FE000474612E707F024FE5E460746804681E733
:101FF000002DC0F27D8228990D430F990D4300F00A
:102000007782002AA1DD392B00F012820133E2E74A
:10201000289B022B7FF7B4AE069B002B40F01D815E
:1020200049460522039807F003FE014681465046C3
:1020300008F056F8002840F310810A9E0E9D3123C7
:1020400006F8013B013503984946013507F0E6FDE6
:10205000002F7FF4E8AEEAE64946504608F040F823
:102060000028BFF689AE5146002303980A2207F0E4
:10207000DFFD0E9B5D1E0C9B8246002B7FF41BAF89
:10208000189B002B40F3FF810E9D06937EE60146D0
:102090005A46039807F052FF289B012B81466CDDBE
:1020A0004FF0000BD9F8103009EB8303186907F0E3
:1020B0000FFEC0F1200039E6924B0A930333FFF77D
:1020C000FABB049B002B7FF430AEDDE90412C2F3AF
:1020D0001303002B7FF429AE8B4B134023B10B9BD2
:1020E00001330B9301340123BBF1000F40F0AE81AB
:1020F0009B461AE63FF42BAEC0F13C03B6E6012343
:102100000C93299B0E9A134418930133012B1E46FE
:102110000693B8BF0126172E40F3D5810122042370
:102120005B0003F11400B042114602F10102F7D93D
:10213000039B596411E401230C93299B002B33DD8D
:10214000189306931E46E6E700230C93D9E7002375
:102150000C93F2E739460398324607F049FF0746E9
:10216000B9E60F9B069A0F95EB1A9B440B9B1E46F4
:10217000134414440B93002590E6049B002B8FD14D
:10218000DDE90401C1F313030A46002B88D1A3E75C
:10219000DDE908230227CDE912230BE47FF41BAF0E
:1021A000DA077FF518AF11E7012329930693FFF7AC
:1021B000CFBB03D1049BDB073FF518AE5E461BF88F
:1021C000013D302BFAD020E60A9A312301351370F5
:1021D0001BE6119A002A00F0F98003F233430B9AB0
:1021E0000F9D16461A441C440B9257E6C8F1010392
:1021F00004460B931090FFF79BBB00F0EB800E9B07
:10220000424D5E4206F00F0305EBC303D3E9002302
:10221000DDE90801FEF70AFB3511CDE9120100F0F6
:102220004D813B4E0023022780468946E80709D5A9
:10223000D6E9002340464946FEF7F8FA01378046C2
:10224000894601236D1006F10806EFD1002B7FF4BB
:10225000CAABDDE91289FFF7C6BB0A9ECAE4DDF806
:1022600018A00E9D02460B46FEF72AF902460B46C1
:10227000CDE906230135DDE90423A846FEF766FD16
:1022800040B9DDE90423DDE90601FEF737FD18B1A9
:10229000F10701D50A9A4AE43E46C8E579680398F1
:1022A00007F096FC0546002800F026813B690233C2
:1022B0009A0007F10C010C30FEF762F803982946EA
:1022C000012207F095FE80460AE60E9D3C46013548
:1022D00047467EE5DDF80C8039462A46404607F041
:1022E0002DFE524601460746404607F071FD514615
:1022F0008246404607F092FC0F9B5B1B0F933FF416
:1023000007ADFFE4C8E200080000F07F80DD0008B0
:1023100058DD0008DDE91401FEF788FA0A9B1F70FA
:10232000129B012BCDE90C0100F0C680129F0A9B85
:10233000CDF844B01F447C4B002240464946FEF78E
:1023400075FA89468046FEF721FD8346FEF704FABA
:102350000BF1300B02460B4640464946FEF7AEF8FD
:1023600006F801BBB74280468946E4D1DDF844B0A7
:102370006E4B0022DDE90C01FEF7A2F802460B4687
:1023800040464946FEF7E2FC002867D1DDE90C2310
:1023900066490020FEF792F802460B464046494641
:1023A000FEF7B6FC48B91D9B002BFFF693AC0E9BC5
:1023B0000E2B3FF78FACFFF7FCBB3E46013F16F8F4
:1023C000013C302BF9D0199D013530E51C9BC3F140
:1023D000360304E7DDE908890227FFF704BB069B03
:1023E000002B3FF4B8AB189B002B7FF7D9AB0E9AAC
:1023F0001293013A4C4B1992404600224946FEF78F
:1024000015FA80468946781CFEF7A6F942464B46E7
:10241000FEF70CFA464B0022FEF752F80646A1F1F1
:102420005077FFF701BB08F101083123FFF786BBA6
:102430000E9D0A9AB34639233C460BF8013B013501
:102440004746D8E44FF000094F46F6E59B4629E69B
:102450000B9B1E46134414440B931FE5199B0A9AC9
:1024600003F10108FFF763BBDDF858A0ABE7DDE936
:102470001AB4DDF858A0FFF793BB392BD8D0002D44
:102480003FF7A7ADA7E5289B022B0ADC189B069314
:1024900049460E9D07F0B6F90A9A00F13003137011
:1024A0008DE4189B06930E95B6E5289B022BF8DC6D
:1024B000189B0E9506930BE5374659E7DDE912891F
:1024C0000227FFF790BA039B00215964FFF745BA32
:1024D000039B00255D642946184607F079FB0A90A6
:1024E000A8B9144B144800224FF4D57108F018F81D
:1024F000002A7FF770AD5BE50E4B0F482A4640F28D
:10250000EA2108F00DF80D4B0A93FFF730B9039B51
:102510000A9A1A644FF0FF330122299518930C92FE
:102520000693FFF73DBB00BF000024400000E03FE2
:1025300000001C40CCE20008E0E20008BCE2000819
:102540002DE9F0418EB04FF0FF324FF0FF332D48B0
:102550002D4E2E4F2E4D04F0CDFA2E4B029300231C
:10256000CDE900332A490322184609F0FAFD306804
:102570000BA900F0B5F90346002841D00D98FEF7ED
:10258000FDF8CDE908010C98FEF7F8F8CDE9060151
:102590000B98FEF7F3F800241F4B02930322234607
:1025A000CDE90401CDE900441949204609F0D9FDDF
:1025B0000BA800F035FB8046FEF7E0F8174B0094BF
:1025C000CDE90401CDE90143114923460322204608
:1025D00009F0C7FD124B424618680BA900F0DAFB60
:1025E000034638B90F4A0292CDE900330122294649
:1025F00009F0B7FD00214FF47A700AF0D6FFB6E774
:102600000297F1E7C40800200C0B0020E2E4000868
:1026100018DD000842E4000861E400089DE40008B9
:10262000080B0020BDE4000870B588B000242A4BD8
:1026300002932046CDE900442849294E234603222F
:1026400009F08FFD274830600AF0DBFE034648B9E9
:10265000254A22490093CDE90132012209F081FD8A
:1026600008B070BD214D224828600AF0CAFE03461A
:1026700008B9204AEDE7306800F04EF8034608B983
:102680001D4AE6E700F0BAFA286800F063FB03464B
:1026900008B91A4ADDE700220023CDE90623072303
:1026A000CDE90243CDE90044154B164904944FF49B
:1026B0008062154804F0BCFA14490AF007FF144878
:1026C00004F0E4F9134B05490094CDE901430322DA
:1026D00023462046C2E700BF0CE5000818DD0008CD
:1026E0000C0B0020F4D8000842E50008080B00207D
:1026F00094D8000862E5000883E50008AFE500080B
:1027000041250008C00E0020D8080020E4E500089C
:10271000C4080020F3E500082DE9F04105468CB01F
:102720000AF06FFE064668B9604B61490090CDE93A
:1027300001030122034609F023FD002630460CB0B8
:10274000BDE8F081D0238DF818300DF11602012379
:1027500006A9284609F023FD044640B1554B0293D3
:102760000023CDE90033524901221846E3E79DF8E2
:102770001630602B0AD003934F4B4D490090CDE9A2
:1027800001030122034609F0FBFCD6E7B622E02153
:10279000284609F01FFD074620B1484B0094CDE9BB
:1027A000014314E0002101200AF0FFFE88238DF888
:1027B000173018230DEB03020DF11701284609F01D
:1027C000EEFC804628B13E4B0097CDE90173002313
:1027D000C9E73C4C069B2360079B6360089BA36092
:1027E000099BE3600A9B23610B9B6361A1238DF826
:1027F000173004F1180201230DF11701284609F0E2
:10280000CEFC074628B1304BCDF80080CDE90183DE
:10281000DDE7E1238DF8173006AA07230DF1170134
:10282000284609F0BCFC804608B1284BCCE7BDF82F
:10283000183063839DF81A3023779DF81C309DF87B
:102840001B1003F00F0242EA0112E2839DF81D20E3
:102850001B0943EA0213238401229DF81E3084F8E9
:102860002230F221284609F0B5FC074608B1184B82
:10287000CAE72722F421284609F0ACFC044608B137
:10288000144BA1E70246F521284609F0A3FC08B144
:10289000114B83E7114B06490094CDE90143002316
:1028A0000322184609F06CFC48E700BF17E6000851
:1028B000D0DC000832E6000854E6000873E60008A1
:1028C00094E60008100B0020C4E60008DFE60008CC
:1028D0001DE700083EE7000860E700087FE7000802
:1028E0002DE9F04F95B0F7238DF84730884608233F
:1028F00012AA0DF1470109F052FC0A9070B10024B0
:10290000B04B02932046CDE90044AF492346012253
:1029100009F036FC204615B0BDE8F08F9DF8483030
:102920000B939DF849300C939DF84C009DF84A306C
:102930000D939DF84B30A54E9DF84D20000140EAC7
:102940000330BDF84E305BBA9BB20E93338840EA39
:102950001212C3EB10105B00C3EBD203B6F90220D6
:1029600040435343B6F9042000135043801300EB57
:10297000E320706200EB800080300012FEF7E8FA7E
:102980009349FEF7EDFBC8F80000756AB6F908E058
:10299000B6F90E70EC17B5F5FA3544F1FF34A5FB26
:1029A000051C05FB04F30CEB430CB6F90C300F933C
:1029B0000EFB04F24FEAEE7305FB0322AEFB053E6D
:1029C000724412034FEA033E42EA1352B6F90A3048
:1029D0004FEAE37B03FB0CFA01FB0BAAA3FB013BD1
:1029E000D3441B0A43EA0B6313EB0E03B6F806A0AD
:1029F00042EB2B2202F50042A3FB0A3E0AFB02EE49
:102A00004FEAEE734FEA6E0253EA6E0E8146B6F954
:102A1000100000F0D4804FEAE07E00FB0CFC01FBCC
:102A20000ECCA0FB011060447C434FEAE77C05FB21
:102A30000C44A7FB05752C44640444EAD7347F0496
:102A40007F180D990A9D40EB040408090C9940EA8F
:102A500001100B9940EA0130C0F58010ED1900F02B
:102A600000410F9F41EA5001C007401B04EBC7041F
:102A700061EB040140F63544A0FB040504FB015161
:102A8000FEF780FCB6F916304D13420B42EAC14204
:102A900003FB05F44FEAE37C02FB0C4CA3FB02347E
:102AA00064445D4302FB0455A3FB023215445B0EF4
:102AB000B6F9142043EAC5134FEAE27C1C1802FB66
:102AC00001F30CFB0033A2FB00273B44B6F91200D4
:102AD0004FEAD24242EA433241EB6565A4184FEA1D
:102AE000E07245EBE3411201230A43EA016342EA43
:102AF00010720001C01842EB2121FEF73FFA4FF09F
:102B00006E51FEF779FA3249FEF72AFB04462F4947
:102B1000C8F80440B1F91E300E9A486A91F9225063
:102B20001B05C3EB8233B1F92020A0F5963000FBE2
:102B300012330A7F4243D2126843801202F50042E8
:102B400042439212B1F91A00097E02F50012424383
:102B500003F5804302F500529213DB135343DA135B
:102B60005243D2114A43A3EB221323EAE370B0F19C
:102B7000C85FA8BF4FF0C8500013FEF7E9F94FF047
:102B80006A51FEF739FAC8F80800FDF7F7FDCDE9FC
:102B900008012046FDF7F2FDCDE906014846FDF7A4
:102BA000EDFD0C4B02930023CDE90401CDE9003388
:102BB00018460549032209F0E3FA0120ABE6002498
:102BC000A5E700BFAAE70008D0DC0008100B002032
:102BD0000000C842D1E700087FB50BAB0593039313
:102BE000054B02930023CDE900330322184601F080
:102BF0002BFB07B05DF804FBFBE700081FB5064B95
:102C000002930023CDE90033044903221846FFF75D
:102C1000E3FF05B05DF804FBFBE7000820DD0008DA
:102C2000F8B585683B4906462846FEF7A1FB002813
:102C300048D139492846FEF79BFB002844D1374943
:102C40002846FEF795FB002840D1002477683449D8
:102C50003846FEF76FFB00283AD032492046FEF78F
:102C6000C3F80446366830493046FEF781FB002839
:102C70003DD02E492846FEF77BFB002837D02C4953
:102C80002046FEF7B1F8044605F02EF8FEF760F98D
:102C90004FF04051FEF7B0F92549FEF7ADF925494F
:102CA000FEF7A0F82146FEF79FF800210446FEF744
:102CB00041FB002829D120492046FEF759FB30BBB3
:102CC0002046F8BD154CC1E71C4CBFE7184CBDE7CA
:102CD0001B493846FEF72EFB08B11A49BEE71A49D0
:102CE0003846FEF727FB0028BCD01249B6E7114949
:102CF0003046FEF71FFB0028C6D014492846FEF7D1
:102D000037FB0028C0D01249BAE70024D8E70A4CA4
:102D1000D6E700BF0000AA4200008C4200004842F3
:102D200000807744000020420000C841000070424B
:102D3000000020410000A0400000C8420000F04117
:102D400000007A440000A04100807C440000A042C2
:102D5000000070411FB50AF054FB044658B90A4BF5
:102D60000A490090CDE901030122034609F04BFA1C
:102D7000204604B010BD064B02930023CDE900337A
:102D8000024903221846F1E71DE80008E0DC0008CC
:102D900039E80008F0B5074689B010460C46FDF743
:102DA000EDFCCDE90601A0682A4DFDF7E7FCCDE971
:102DB00004016068FDF7E2FCCDE902012068FDF73F
:102DC000DDFC254ACDE900018021284604F0BAFF48
:102DD0007F2806464FF000040CDD204B204900946C
:102DE000CDE9014320462346012209F00CFA204692
:102DF00009B0F0BD1B4B1A490395CDE901430322ED
:102E000023462046009409F0FEF9174B1449039617
:102E1000CDE90143032223462046009409F0F3F94B
:102E2000AB190F4913F8013C0393104B0094CDE903
:102E3000014303222346204609F0E5F9A64201D1C9
:102E40000120D5E715F8011BBB6838465B68984739
:102E50000134F3E7000E002064E8000897E800085A
:102E6000E0DC0008BBE80008DBE80008FEE800083A
:102E70002DE9F04F91B08407009302F00403029310
:102E8000C2F3C20303F10103DDF868800392054633
:102E90000E46059340F0BA81041D30B1072909D8C8
:102EA0006FF01B0011B0BDE8F08F01F0070634444D
:102EB000C6F10806009B4FF00009591E4FF0040AA6
:102EC0004FF0FF330193CDF810904F46CB46534659
:102ED0000DB1009A22600598002800F3E880984818
:102EE000009A824203D397488242C0F0E080039A5E
:102EF000A4EB050E92074FEA9E0000F103810F2F0D
:102F000000F2B180002D00F0058107F140020DEBC9
:102F1000020C019A0CF8200C0CF8102C04980130CB
:102F20000490E7E07A285DD84B280ED8472859D876
:102F300029282DD8252852D054D820287AD02338B3
:102F4000D0F1000B4BEB000B74E04C382E2849D825
:102F5000DFE800F070484848484848484848484832
:102F60004B484848484848484859484B4B59595994
:102F7000704B6D487048184B184848827F4B484842
:102F80004B487F0000204FF0000B4FF0040A38E060
:102F90002A38C0B2012202FA00F010EA0E0F49D11D
:102FA00010F0625C2FD110EA020B43D06046013C66
:102FB0005444B4FBFAF40AFB04F4002D61D0A3EBF3
:102FC000050CA444B4453FF66BAF002868D1042B30
:102FD00047D158F8043B2360043404232AE0019AC3
:102FE000013A01924FF0000B24E011F8010C6C281B
:102FF00034D111F8023C00206C2B8346C5D14FF030
:10300000080A5346D3E708F1070828F007080734F1
:10301000F8E802AB24F0070435B106982044B0422A
:103020003FF63EAFC4E900AB08344FF0000B4FF061
:10303000080A534611F8010F002878D0BBF1000FA1
:103040007FF470AF2528F5D1019B013301934FF038
:10305000010B4FF0040AECE7584694E70020834642
:10306000A5E7082B02D06FF015001BE708F1070851
:1030700028F00708F8E80223C4E9002308340823ED
:10308000D8E768B9042B02D108F10408A4E7082B9B
:10309000E9D108F1070828F0070808F10808EDE76A
:1030A000059A013A059258F8042B009210E7039A0A
:1030B000900720D5A4EB050E4FEA9E004FF0010CBF
:1030C000BEF5007FCFD20F2FCDD8F5B107F140026A
:1030D0000DEB020EC0B2019A0EF8200C0EF8102C67
:1030E000BCF1000F3FF41AAF60F07F000EF8200C27
:1030F00009F101090137C5F10802043406924FF6BF
:10310000DA7E97E74FF0000CDAE7BCF1000F01D050
:103110000136EFE7029802360028EBD10098CDE99E
:103120000631FDF76DF8DDE906310644E2E7631B81
:10313000B3F5806F97D23DB9A6F10804E018B1E667
:103140006CD60008D0F10008029A28609B082B700A
:103150009DF81030C2B1EB7085F80290B9F1000F04
:1031600005D008A80022C5F1010C97420ED1C5F187
:1031700001030DF120084FF0000A01930DF1300B0F
:10318000574512D1601B8DE66B70E5E710F8013BE7
:10319000190608D50CEB040EB64503F07F033FF685
:1031A0007FAE04F8013B0132DFE7B9F1000F03D035
:1031B00098F90020002A17DB029BD3B11AF80B20E4
:1031C00004F8012B0022019B18191044B0423FF66D
:1031D00067AE98F8000004F8010B009903922046AE
:1031E000FDF7CEF8039A14440AF1010A08F1010828
:1031F000C6E798F8002055F822300093029B45F866
:1032000022300098FCF7FCFF421CDCE76FF00D0059
:1032100048E600BF014B1860704700BF98060020C9
:10322000F0B5094E016802460A2700200B4601311D
:103230001C78355D6D0701D41360F0BD07FB0043BA
:10324000A3F13000F2E700BF55E100082DE9F84F87
:1032500015469A46D378234A12F803B06F2B81465D
:103260000F460BF0030B2BD026D8582B0CBF102683
:103270000A26DDF828803246002348463946FEF704
:10328000D1F8092A08F1FF38D4B21ED83034B1453C
:10329000E4B277F1000788F8004001D3D04511D897
:1032A0002B789B0605D5082E15D1AB7843F0080383
:1032B000AB704046BDE8F88F03F0F703702BD5E7FD
:1032C0000826D6E781460F46D5E7BBF1010F0CBFB4
:1032D00037345734DBE7102EEBD1AB7843F01003D3
:1032E000E6E700BF55E100082DE9F04F9FB08246A8
:1032F000039117461C460025387810B9284600F07F
:10330000A0BD252809D00399D0470028C0F299858F
:103310007B1C01350593059FEEE71822002110A8BC
:1033200004F084FC7B78252B00F0BA800023791C04
:1033300098469E469C4618460E4611F8012B2B2AAD
:1033400000F0E18000F2D880202A00F0DF80232AFC
:1033500000F0DF802BB19DF8483043F040038DF83A
:103360004830B8F1000F05D09DF8483043F02003F5
:103370008DF84830BEF1000F05D09DF8483043F07D
:1033800010038DF84830BCF1000F05D09DF848308F
:1033900043F008038DF8483028B19DF8483043F0D9
:1033A00004038DF848309DF8483003F04401442967
:1033B00003D16FF386138DF848309DF848300E9690
:1033C00043F080032A2A8DF8483040F0A7809DF80A
:1033D000493043F001038DF84930731C1A782E2AC6
:1033E0009DF849200CBF0121002161F341028DF8B5
:1033F00049200CD15A1C0E925A782A2A40F09E80FD
:103400009DF8492042F004028DF8492002331A78D1
:103410006C2A00F0BF8000F2A180682A00F0A7802B
:103420006A2A00F0C0804C2A00F0C58013F8012BF6
:103430000593782A8DF84B2000F205816D2A00F261
:10344000C780692A00F2FF80572A00F2DE80412AF5
:1034500004D0A2F14503022B00F2F5809DF84A301A
:1034600002F0DF020421A2F1410661F3020372427D
:103470009DF849108DF84A30724162F3C7110A066F
:103480008DF84910CBB200F11D8103F07802182AA3
:1034900040F007816FF3C6038DF849300023F6E052
:1034A0008DF84B30BB1C05939DF849209DF84A30A0
:1034B000D10703F0070040F1078154F8041B049181
:1034C000002908DA9DF8481041F004018DF84810F1
:1034D000049949420491560740F1FE8054F8046B68
:1034E000002E80F2FD809DF849206FF341028DF897
:1034F00049204FF0FF36F3E02D2A0DD0302A7FF41B
:1035000029AF012318E74FF0010C15E74FF0010E2A
:1035100012E74FF001080FE701200DE70EA8FFF7B3
:103520007FFE0E9BB3423FF459AF9DF848201390A5
:10353000C00F60F341028DF848204FE70EA8FFF757
:103540006FFE9DF848301490C3F3400242EAD072F7
:1035500062F341038DF848300E9B58E7742A26D059
:103560007A2A7FF463AF9DF8492006210CE05A784F
:10357000682A9DF8492006D1012161F3C6028DF821
:103580004920023352E7022161F3C6028DF8492037
:1035900001334BE75A786C2A9DF8492001D1042168
:1035A000EBE70321F0E79DF849200521ECE79DF8C2
:1035B00049200721E8E7BDF8482022F4F04222F034
:1035C000020242F4804242F00202ADF84820DFE7F6
:1035D0006E3AD3B201229A4040F282431A429DF8D9
:1035E000493037D112F0240F5FD1D1072BD59DF888
:1035F0004A2003F07803A3F14000032161F30202A3
:1036000043428DF84A20434141E0A2F15801C9B23A
:10361000012000FA01F111F4624F7FF41FAF40F670
:10362000010319429DF849301AD111F4043F0AD020
:103630009DF84A2060F3020203F07803402B8DF8D6
:103640004A207FF42BAF9DF8483043F001038DF8FA
:10365000483023E79DF84A20022161F30202EBE79C
:103660009DF84A10022003F0780360F30201402B1A
:103670008DF84A1002BF9DF8481041F001018DF805
:103680004810632A7FF40AAF003B18BF01239DF85E
:103690004820C2F340010B4363F341028DF84820F8
:1036A00002E713F0380FCED1F8E69DF84A20032147
:1036B00013F0780F61F302028DF84A2014BF012342
:1036C0000023E4E70123E2E79DF948100029B4BF95
:1036D00013994FF0FF31FDE691077FF50AAF149E75
:1036E0009DF8491000220428CDE9132207D18A074A
:1036F00005D49DF94920002AACBF06260D2603F00B
:103700000703012BC1F3C30132D1CB1E042B04D814
:10371000DFE803F0204545202000236801294FEA17
:10372000E372CDE910321BD19DF94030DA17CDE9B3
:10373000103204349DF8483006939B074FD0059B08
:1037400003993A46504608F0E6FD0028C0F2798316
:103750000544E0E554F8043BDA17CDE91032E9E717
:103760000229E6D11AB243F3C033CDE91023E0E7D2
:10377000022B24D1CB1E042B04D8DFE803F0181051
:1037800010181800012954F8043B4FF0000214D01F
:103790000229CDE91032CDD19BB21093CAE707348C
:1037A00024F00704F4E80223CDE91023C2E754F81B
:1037B000043B109300231193BCE7DBB2CDE7042B4D
:1037C00008D1073424F00704D4E900230834CDE9F4
:1037D0001023AFE7032BADD154F8043BDDE79DF890
:1037E0004B80B8F1780F3FF696ADB8F1570F5CD823
:1037F000B8F1250F00F0A480B8F1240F7FF68BAD4F
:10380000B8F1410F04D0A8F14503022B3FF683AD78
:10381000DDE91023002BC0F24D810699080700F165
:103820004C81C1F300194FEA4919C3F30A51C3F39C
:103830001303002940F0448152EA030014BF4FF003
:10384000010C4FF0000CD80240EA5250D702CDE9EB
:103850000C70B8F1460F47EA010740EAE17008BF73
:103860004FF06608384300F0B881BCF1000F10D06B
:103870001B0343EA125317033A4618464FF0000C55
:10388000002880F25681BCF1000F40F05981CDE94B
:103890000C730D9B43F00043A1F2FE3B0D930021FE
:1038A000DDE90C230F46052060E1A8F15803202B29
:1038B0003FF631AD01A252F823F000BF873A00086D
:1038C00017330008173300081733000817330008B0
:1038D00017330008173300081733000817330008A0
:1038E0001138000817330008333A0008473A000837
:1038F0001138000811380008113800081733000883
:10390000473A000817330008173300081733000838
:10391000173300088D3A0008873A0008D7390008A5
:10392000173300081733000851390008173300080F
:10393000873A00081733000817330008873A000851
:1039400003994046D0470028C0F27B820135E2E46B
:10395000002E109F3BDB3146384604F037FA002F2B
:103960003FF4D9AC3E18F31B4FF000099DF84A20F4
:1039700012F01001069100F05982023312F0400259
:10398000DDF84C80089218BF149ACDF81C8043448F
:1039900018BF9B18049A002A40F36382D31A9DF83B
:1039A000482004935007C2F3800B00F15A8251065D
:1039B00040F14A82B9F1000F07D003994846D04739
:1039C0000028C0F23E820135D94630223DE2384619
:1039D000FCF716FCC6E71098002800F022820DF1D3
:1039E0007503009312AA17AB0021FFF72FFCBDF857
:1039F0004A3003F0EF0343F4F04343F0100307466B
:103A0000ADF84A304FF00009002E0CDB9DF848203D
:103A10000DF17503DB1B6FF386129E428DF8482073
:103A200001D9F31A1393002F3FF475AC0DF175060D
:103A30006DE0109B8DF85C304FF000090DF15D06D4
:103A400017AF012392E7069B1F0758BFC3F3001966
:103A5000DDE9102354BF4FEA49194FF02B09002B21
:103A600006DA524263EB4303CDE910234FF02D09F0
:103A70000DF175030093DDE9100117AB12AAFFF7F2
:103A8000E5FB0746C0E74FF00009F1E7109B072967
:103A90003FF641ACDFE801F00C04060C08080C0C02
:103AA0001D7038E41D8036E4EA17C3E9005232E4A1
:103AB0001D6030E44FF02D09B7E64FF02B09B4E656
:103AC00040F2FF70814231D108F10108A1495FFA4B
:103AD00088F8134311F8081001F003011ED10129E1
:103AE0000BBF492369234E216E210CBF462266225B
:103AF0008DF85C309DF848308DF85D106FF38613BB
:103B00008DF85E208DF848300DF15F0617AFF31B7E
:103B1000B9F1000F3FF42AAF013327E7012915BFA0
:103B20006E234E23612141211A46E1E74FF0000C3C
:103B300089E6921801F1FF3140414FF0010C9FE6F8
:103B4000CDE90C20A5E6520842EAC3725B08B3F146
:103B5000333F59460BF1010BF5D200FB03FCA2FBEE
:103B6000002301F1020B6344013F01211BF1020F0D
:103B7000E9DB09B1CDE90C23BBF1000FDDE90C3223
:103B80002EDCCBF10401A1F120000BF11C0B02FA99
:103B90000BFB22FA00F0CA40CB40079208F0DF028C
:103BA00043EA0B03472A43EA00037ED1F91C01DBF9
:103BB000BE422BDAA8F10208002E5FFA88F87DDDFC
:103BC0009DF84820920606F1FF3677D4B6F1000B37
:103BD00018BF4FF0010B721C27E04FF0000B5EE6A0
:103BE000023342F100020CA8CDE90C3208F064FB6C
:103BF000DDE90C320BF1FF3B0137DB185241002AA3
:103C00000BF1FF3BF9DACDE90C32B5E79DF848201E
:103C10009006A6EB07064ED4B6F1000B18BF4FF086
:103C2000010BF2194FF066084BD4102AA8BF1022DE
:103C300010200B904FF000610020CDE90E01DDE96E
:103C40000E01002A3FD1079A1B1842EB0101B1F186
:103C5000805F47D2CDE90C31069BB8F1660F03F0C7
:103C6000200240F0BE80002F47DC30238DF85C300E
:103C7000002A71D1002E40F3B7812E238DF85D30DC
:103C800087B17B42B342A8BF33469DF84A201393C5
:103C9000002BA6EB0306D4BF0023012363F34512D8
:103CA0008DF84A200DF15E0340E0B8F1660F4FF049
:103CB000000BB6D08FE74FF0000BB2E74FF0000BD0
:103CC00089E70022B4E7400840EAC1704908CDE91D
:103CD0000E010EA8CDE9082308F0EEFA089A099B18
:103CE000013AACE75B0843EAC1730CA84908CDE987
:103CF0000C31013708F0E0FAAEE717AB0B99002959
:103D00000BDD0BA90CA8CDE9063208F0EDFA069BF5
:103D1000079A03F8010B013FF0D11397AAB9002EBF
:103D200040F360812E2103F8011B0027002E1CDDCB
:103D30000B9A002A19DD0BA90CA8069308F0D4FAF7
:103D4000069B013E03F8010BF0E72E2203F8012B3E
:103D5000EBE700BF54E100082E238DF85D30002F03
:103D6000A0D0002E8DDC0DF15E03BBF1000F4CD115
:103D700014961E4608F0DF03452B21D1002FBABF51
:103D80007F422D232B23632FC8BF64227370C2BFD1
:103D9000B7FBF2F303F1300102FB13774FF00A0295
:103DA00086F80080CABFB17002360336B7FBF2F363
:103DB00003F1300102FB137330333170737002363C
:103DC000139B002B2BDC149B002BD4BF002301235F
:103DD0009DF84A2063F3861200238DF84A20337041
:103DE00094E60BA90CA8069208F07EFA069A8DF8C4
:103DF0005C00302818BF07F1FF3712B9002E40F3DE
:103E0000F3802E238DF85D304CE71E46013B16F8FB
:103E1000012C302AF9D02E2A08BF1E46AAE701231A
:103E2000D6E7734E8146771F05239FE5110748BFEC
:103E30000133A3E5104609920399D0470028099A57
:103E400005DA1FB0BDE8F08F2022DDF810B059462A
:103E500000290BF1FF3BEDDC049BCDF810B02B44A7
:103E60005D1AB9F1000F05D003994846D0470028E4
:103E7000E7DB0135089B002B79D09DF94930002BF9
:103E800029DBDFF870913B46187819F800205207BB
:103E90009B4603F101033FD49DF84A30EF1B98067F
:103EA0005F4407D44246002A08F1FF383BDC079BF9
:103EB0003B449F1A9BF800002E280AD10399D04753
:103EC0000028BEDBB8F1000F07F1010731DC0BF170
:103ED000010B5D4638E0B94699F800007028C846E5
:103EE00009F1010913D1EF1B149D47443D44EB1B1D
:103EF000002B34DC039933464246504608F00BFA57
:103F000000289EDB3844049E0546064465E003997C
:103F1000D0470028E0DA94E706930399D0470028B9
:103F2000069BB1DA8DE703993020D0470028B9DA33
:103F300087E703993020D04708F1FF38C0E703999D
:103F4000D0470028FFF67DAF287819F800305907D0
:103F5000A84605F10105F2D4A7EB0B07C4E70399C6
:103F60003020D0470028FFF66CAF0137BFE79DF83F
:103F70004A30DA0601D41B0706D503993020D04712
:103F80000028FFF65EAF0135069B3BB103999DF813
:103F90004B00D0470028FFF654AF0135A84406E097
:103FA00003993020D0470028FFF64BAF0135A8EB2E
:103FB0000503002BF4DC039933463A46504608F0DB
:103FC000AAF90028FFF63DAF28449CE7039920207A
:103FD000D0470028FFF635AF0135731B002BF5DC09
:103FE000FFF799B91746C0E60DF15D03BDE600BFC6
:103FF0003BE9000855E10008034A536823F0020337
:1040000053600020704700BF002004E0084B1A688E
:1040100042F480721A601A6842F400721A601A68D8
:1040200042F480621A60034B034A1A60704700BF73
:10403000003C0240E40600200024F4002DE9F84F83
:10404000814630480F4608F086F9064670B92E4C76
:10405000DFF8B8B00546A0464FF0010A5C4507D32B
:10406000B9F1000F02D04FF0010AFDB9BDE8F88F99
:10407000237B83B12368DB680BB1204698476368D4
:1040800083F806A023681B6943B963680422196892
:10409000204608F085F901361034DFE720469847BE
:1040A0000028F2D00AFA06F31D43F4E7A94695FA70
:1040B000A5F4B4FA84F40AFA04F3260108EB041414
:1040C0006FEA030B25EA0305237B63B158F806303A
:1040D0001B698BB94644042273682046196809EAB3
:1040E0000B0908F05DF9002DE1D11FB1012000217D
:1040F00009F05BFA4D46B8E7204698470028F2D110
:10410000E8E700BF400B002048DD000858DD00084C
:10411000014B53F82000704748DE000808B50346FD
:1041200008462BB1044A136000F07EFA002008BD57
:104130006FF01500FBE700BF9C0600200C4A0D48FD
:10414000002310B513700C4A13600C4A4FF47A71B7
:104150001360FFF7E3FF0A4B0A4918468B4200D36E
:1041600010BD1A1A5C681211013222711033F5E782
:10417000800E00204BC30008380B00203C0B0020B1
:1041800048DD000858DD000870B50B4D297841B9AD
:104190000120FFF753FF094C094EB44202D301231B
:1041A0002B7070BD63685B791BB1236820469B68E8
:1041B00098471034F1E700BF800E002048DD00086A
:1041C00058DD000810B50446084808F0C4F85CB192
:1041D000BFF35B8F064B53E8001F013943E8001221
:1041E000002AF8D1BFF35B8F10BD00BF380B002051
:1041F0003C0B002070B50A4B0A4C1B680A4E054662
:104200009847A860B44200D370BD63685B7923B15E
:10421000236829461B68204698471034F2E700BF00
:104220009C06002048DD000858DD0008044A054BC4
:104230009B1AB1EBD30F34BF52F831000020704706
:10424000D0DC000848DD00082DE9F04F87B004AF4E
:10425000D7E90EA93D6B04460E4693469846BAF13F
:10426000000F1ED0C7F80490CDF8009010217A6B93
:1042700053460020FEF7FCFDB0F5006F014611D358
:1042800040F2FF730393194B02930023CDE90033EF
:1042900017490222184608F0A5F80C37BD46BDE8BC
:1042A000F08F514604F007040BF0070BE40044EADA
:1042B0008B1444EA412444EA055417350D4425F093
:1042C0000705ADEB050D04ADBAF1000F07D0CDF831
:1042D00000907A6B534605F11000FEF7C9FD434686
:1042E00022463146284608F064F8D6E749E9000836
:1042F00000DD0008406820B1034BC01A40F3CF0036
:1043000070474FF0FF307047D0DC00080EB403B5A3
:1043100003AB014653F8042B0448019308F09CF8C2
:1043200002B05DF804EB03B0704700BF21C4000881
:10433000CA0605D48B064CBF02490349FFF7E6BF06
:10434000704700BF82E9000881E900082DE9F04FBD
:1043500087B004469DF844B0159E0D469046994698
:10436000BBF1000F00F09D8006F48073059308F008
:1043700015F806F0020A024600283ED0954920466C
:10438000FFF7C4FF0746BAF1000F08D016F0440F3C
:1043900035D191492A462046FFF7B8FF074406F079
:1043A000010353B18D4B8E4953F82B208D4B204682
:1043B000002A08BF1A46FFF7A9FF06F48073002BF6
:1043C00049D006F00803002B63D1B8F1000F66D086
:1043D000854942462046FFF799FF0546129B3D441A
:1043E000002B6DD1149B002B73D1F30700F1EC80EF
:1043F00031462046FFF79CFFD9E00746C3E77B4BD9
:1044000018680028CAD07A4B4FF47A7A1B68B5FB3B
:10441000F3F54FF46163B5FBF0F100FB11550AFBB6
:1044200005F54FF03C0CB1FBF3F203FB1211B5FBA9
:10443000F0FEB1FBFCF300FB1E550CFB13110AFB55
:1044400005F50091B5FBF0F56A49CDE901E5204697
:10445000FFF75CFFA2E706F00803EBB1664B674984
:1044600053F82B202046FFF751FF0546B8F1000F07
:1044700005D05D4942462046FFF748FF0544B9F1A3
:10448000000FABD05E494A462046FFF73FFF054488
:10449000A4E74FF00009E1E706F00805E6E7454626
:1044A0009CE7B9F1010F129B06D1002B65D1149B3B
:1044B000002B7CD000250CE0002BF8D051485DE0AB
:1044C0005148129B5149224607F0ACFE149B002B29
:1044D00069D0DFF83C81DFF83C91149F3146102F02
:1044E000204628BF1027FFF723FF4FF0000A55454D
:1044F00046DC139B49461A782046FFF707FF4FF02A
:10450000010A1AF0070F03D141462046FFF7FEFECD
:1045100057453CD9139B494613F80A202046FFF71C
:10452000F5FE0AF1010ABAF1100FEAD13A49204624
:104530004FF0000AFFF7EAFE5246139B9A5C374B96
:10454000995C11F0970F08BF2E2235492046FFF7DE
:10455000DDFE0AF1010ABAF1100F1DD01AF0070FA3
:1045600003D141462046FFF7D1FE57455246E4D8D5
:1045700041462046FFF7CAFEEBE723485D46A0E729
:1045800041462046FFF7C2FE0AF1010AAFE725497E
:104590002046FFF7BBFEC4E7139B3B441393149BD9
:1045A000DB1B149399D1BBF1000F7FF41EAF62683F
:1045B000A1682068D2E9002307F024FF6368002285
:1045C0001A6007B0BDE8F08F064A05492046FFF79C
:1045D0009DFE0DE789E900088DE9000858DE000816
:1045E000D8E8000884E90008B2E90008480B002078
:1045F000440B002096E900086CDE0008B6E90008CC
:10460000BCE900083DC4000821C4000859C40008E2
:10461000C9E90008C1E90008CBE9000855E1000834
:10462000CDE90008C7E90008074A002101239042AC
:1046300006D8064A01B901231360054B186070477C
:1046400040085B000121F2E740420F00440B0020CC
:10465000480B0020F8B5074F0D4604464618B442F3
:1046600001D12846F8BD14F8011BBB6801485B68FE
:104670009847F4E774D80008014B036000207047A6
:10468000B4DE000870B5064686B00D46002938D065
:104690008B6805934B6804930B6803930024244BA9
:1046A00024490293012223462046CDE9004407F025
:1046B00043FF6B6905932B690493EB6803931E4BCF
:1046C0001C490094CDE9014301222346204607F00E
:1046D00033FFEB690393194B16490094CDE901436D
:1046E00001222346204607F027FFAB690393144BB2
:1046F00010490094CDE9014301222346204607F0EA
:104700001BFF012E0DD1EFF30583103B03930D4BDF
:1047100002930023CDE9003306493246184607F0DC
:104720000BFF2946304606B0BDE8704001F058BF87
:104730000AEA000830DD000839EA000868EA0008E3
:1047400077EA0008A5EA000808B5034B1B689847FC
:10475000BDE8084000F006B8A806002030BFFFF70B
:10476000FDBF00BF054B5A699B689A421FBF044AB0
:10477000536843F080535360704700BF980D00208A
:1047800000ED00E0F0B585B00024434B0293CDE985
:104790000044234607460E4601224049204607F0C2
:1047A000DFFE3F4B9B6ADB0465D53E4B3B490094E3
:1047B000CDE9014320462346012207F0D1FE172010
:1047C000374B9B6A1D050AD5374B029300231846C9
:1047D000CDE900333149012207F0C2FE1820304DE7
:1047E000AB6A9C051FD50024304B0293012223465F
:1047F0002046CDE90044294907F0B2FEAB6BAA6A16
:1048000010040FD503932A4B24490094CDE90143AA
:1048100001222346204607F0A3FE1FB1AB6A23F412
:104820000043AB6219201E4B9B6A59050AD5214BE8
:10483000029300231846CDE900331849012207F0FE
:104840008FFE1A20164A936A13F4807315D01A4B00
:10485000029300231846CDE900331049012207F0E6
:104860007FFE1B200E4A936A43F47F43936200232A
:10487000337005B0F0BD1620A2E7926A9204F1D51C
:104880000E4A06490093CDE901321846012207F08D
:1048900067FE1C20E6E700BFB8EA000830DD00082C
:1048A00000ED00E0CEEA0008DFEA0008F2EA0008C6
:1048B0000BEB000820EB00083BEB000853EB000873
:1048C0001FB50024374B029301222346CDE9004453
:1048D0003549204607F044FE344B9B6A9A015ED569
:1048E000334B31490094CDE9014320462346012250
:1048F00007F036FE1E202D4B9B6ADB010AD52D4B9F
:10490000029300231846CDE900332749012207F01E
:1049100027FE1F20254B9B6A1C030AD5264B0293BA
:1049200000231846CDE900331F49012207F018FE85
:1049300021201E4B9B6A59030AD5204B029300236A
:104940001846CDE900331849012207F009FE22205C
:10495000164B9B6A9A030AD5194B029300231846FB
:10496000CDE900331049012207F0FAFD23200F4B57
:104970009B6ADB030AD5134B029300231846CDE94B
:1049800000330949012207F0EBFD2420074A936A0E
:104990006FEA03436FEA1343936204B010BD1D2016
:1049A000A9E700BF82EB000830DD000800ED00E061
:1049B0009AEB0008ADEB0008C7EB0008E5EB000838
:1049C0000AEC000824EC00082DE9F04385B000242F
:1049D0004D4B0293CDE90044234680468946164656
:1049E0004A490122204607F0BBFD494B9B6ADF067E
:1049F00040D5484B0094CDE9014320462346434926
:104A0000012207F0ADFD1124414B9B6A1D070AD519
:104A1000414B02930023CDE900333C490122184663
:104A200007F09EFD12243A4DAB6A980724D5002466
:104A30003A4B36490293CDE90044234601222046F1
:104A400007F08EFD6F6BAB6A190659D5344B2F49B1
:104A50000397CDE90143009423460122204607F045
:104A60007FFDB9F1000F03D0AB6A23F08003AB6286
:104A7000132403E01024C7E76FF01507244B9B6A4B
:104A8000DA070AD5274B02930023CDE900331F49EB
:104A90000122184607F064FD14241D4B9B6A9B06F7
:104AA0000AD5214B02930023CDE900331749012297
:104AB000184607F055FD1524154B9A6AD50602D401
:104AC0009A6A90070AD55B68190507D541463846AA
:104AD00000F01AFA10B180F3098802240C4B9A6A8C
:104AE000920642BF5A6A22F400525A629A6A42F00F
:104AF000FF029A6220460023337005B0BDE8F083C0
:104B00006FF01507B4E700BF4FEC000830DD000878
:104B100000ED00E065EC0008DFEA000898EC000812
:104B2000B0EC0008C6EC000853EB00082DE9F0419A
:104B3000754B5F6890B00446C7F30806002383F303
:104B40001188BFF36F8F02F07F40B0F17F4F0CD11F
:104B500002F00C00082819D16C4A6D490093CDE988
:104B600001321846012207F0FBFC00252C464FF0CD
:104B70000008F31E8DF81F80092B00F2AC80DFE8DF
:104B800003F00BA0A49CAAAAAAAAAAA8120746BF2F
:104B90000C461D460125EAE75E4B5D495A4FCDF8AC
:104BA0000080CDE9018300230122184607F0D8FCDC
:104BB0008DF81F80FE6A16F0020605D0564BCDF820
:104BC0000080CDE9018306E0FB6A002B0BDA534B32
:104BD0000096CDE9016300234D490122184607F0F4
:104BE000BFFC00223BE0FB6A5B00FAD54C4B484916
:104BF0000096CDE9016301223346304607F0B0FC50
:104C00007B69A26943F480737B61BFF34F8FBFF36D
:104C10006F8F7B6932F8022C23F480737B61BFF3C2
:104C20004F8FBFF36F8F4DF602739A420AD0BB6A63
:104C3000DBB2002B33D00DF11F0201212046FFF71C
:104C4000C3FE3CE023680393364B31490096CDE91F
:104C5000016301223346304607F082FC22689DF84A
:104C60001F30CBB908AE04F12007206861683346D5
:104C700003C30834BC421E46F7D10F9B002D3ED023
:104C8000C3F3080121B96FEA53236FEA43230F935B
:104C900008A91046FFF7F6FC10B0BDE8F081BB6A2A
:104CA00013F47F4F05D00DF11F010120FFF76AFDBE
:104CB00005E0BB6AB3F5803F93D3FFF701FE0246E0
:104CC000CDE70DF11F020021B8E70DF11F01002013
:104CD000ECE7154B73E7154A154B0D4917F4F87FB0
:104CE00018BF1346103ECDE90336124B0293002342
:104CF000CDE900330122184607F032FC71E723F4B6
:104D0000FF7323F00103C2E700ED00E013ED00089C
:104D100030DD00083EED000855ED000876ED000896
:104D200084ED0008A3ED0008BFED0008FAEC0008D0
:104D3000E5EC0008E3ED0008044B5A6942F010026C
:104D40005A615A6922F008025A61704700ED00E08A
:104D5000EFF30880EFF3098101B57246FFF7E6FE35
:104D600001BD00BF0A4880F30888102080F3118835
:104D700008484FF40461401880F30988EFF3148069
:104D80000221084380F31488BFF36F8F00F07CF892
:104D9000C020002000130020084B9B6883420BD1E9
:104DA000EFF3058343B1064B5A6842F080525A60D4
:104DB0005A6A22F400425A6202F000BA980D0020AA
:104DC00000ED00E012498A684FF030001044EFF324
:104DD000098C80E8F01F102080F31288BFF36F8FDA
:104DE0000C4F4FF000664A698A603E60506F0023A6
:104DF000536780F3118804B5104600F0E5F8BDE86C
:104E0000044002F1300090E8F01F8CF309887047ED
:104E1000980D002004ED00E01EF0040F0CBFEFF32E
:104E20000880EFF30980816911F8021C0229FFD084
:104E300001B5724607F090FB01BD00BF40B20028EB
:104E400007DB044A4109012300F01F00834042F8B8
:104E50002130704700E100E040B20028A8BF00F117
:104E6000604001F10101B8BF064B4FEA0111ACBF30
:104E700000F5614000F00F00C9B2B4BF195480F8CA
:104E80000013704714ED00E00F4A08B50F4B22F0F5
:104E90007F029A60BFF34F8FBFF36F8FD3F88820E4
:104EA00022F47002C3F88820EFF3148323F0040384
:104EB00083F31488BFF36F8F01F072FC02F0A0FA45
:104EC00000F058F801F0B0FC0000000800ED00E030
:104ED00042F8203C009B42F81C3C0A49019B42F8E6
:104EE000183C029B42F8143C21F001014FF0807302
:104EF00042F8043C42F8081C0023203A026543674C
:104F0000704700BFA5C20008094A0346906870B107
:104F100013F1160F406E05D0A0F140029A4205D859
:104F2000834203D2814228BF00207047002070478F
:104F3000980D002008B5094B0E461546986000F004
:104F400043F82C4686F309880020054B98472046F5
:104F5000002100220023034C204700BF980D0020B1
:104F600089C50008A5C20008014B10221A617047CC
:104F700000ED00E0044800231021C2180133612B2A
:104F800082F80013F9D1704700E100E008B5EFF3B3
:104F90000583064A103B02EBC30152F8330049680F
:104FA0008847BDE80840FFF7DDBB00BF14D9000803
:104FB000024B034A0348012100F096B8000002208A
:104FC00000000020B4DE0008426E054B403A1A6033
:104FD000044A4021C3E901121846012100F08EB8AD
:104FE000700B002000000B151FB5144AD2F890304A
:104FF000C3F30723013B98420FD9114B02930023BF
:105000000390CDE9003318460E49012207F0E0FA7B
:105010006FF0150005B05DF804FBC2F898000B684E
:1050200023F01F03034343F01003C2F89C308B6846
:1050300043F00103C2F8A030ECE700BF00ED00E050
:10504000FAED000828DD0008F0B50E4689B01F46CD
:1050500004460025B54212DA606838B3BFB1431E7A
:1050600018420FD0134B02930023CDE900331249AD
:1050700003950122184607F0ABFA6FF015021046AF
:1050800009B0F0BD1F28EDD921680B42EAD1236891
:10509000059307F08DFAA36805A90343D0B20793DF
:1050A000FFF7A2FF10F1160FE7D0421C01350C34B8
:1050B000D0E700BF20EE000828DD0008044B0522E1
:1050C000C3F89420BFF34F8FBFF36F8F704700BFBB
:1050D00000ED00E0BFF35F8F024B0022C3F8942085
:1050E000704700BF00ED00E010B5034C01232278AB
:1050F000FFF7AAFF207010BD820E002008B50B4AF2
:1051000000231278FFF7A0FF10F1160F07D0084A0E
:105110000021D2F89030C3F30723984200DB08BD8A
:10512000C2F89800C2F8A0100130F2E7820E002009
:1051300000ED00E02DE9F04357485849D0F8903091
:105140000D68C3F307239D4285B000F2A180FFF7ED
:10515000C1FF49680022954201F10C011AD1504C5F
:10516000504F25706846FFF787FADFF83C81DFF87B
:105170003C9106460025AE421FD1237846490020C7
:10518000D1F89020C2F3072293427BDBFFF796FF12
:1051900000204CE0C0F8982051F80C3C23F01F038D
:1051A000134343F01003C0F89C3051F8043C43F023
:1051B0000103C0F8A0300132CDE7009800EB0511E3
:1051C0004FEA051CCB683B40B3F5000F44D00AD82A
:1051D000B3F5001F2ED0B3F5800F34D0B3F5801F88
:1051E00010D00135C7E7B3F1807F3ED0B3F1007F27
:1051F000F7D150F80C3088684A6807F0D9F940F4C4
:10520000802009E050F80C3088684A6807F0D0F92F
:1052100040F0885040F43020039001A92078CDE977
:105220000123FFF7E1FE002828DA6FF0150005B032
:10523000BDE8F08350F80C3088684A6807F0B8F988
:1052400040EA0800E8E750F80C3088684A6807F040
:10525000AFF940EA0900DFE750F80C3088684A6887
:1052600007F0A6F940F08270D6E750F80C30886855
:105270004A6807F09DF940F08870CDE72378013344
:105280002370AEE7C1F89830C1F8A000013377E78A
:105290004FF0FF30CBE700BF00ED00E0C0DE0008BC
:1052A000820E00200000F0FF00000811000002073D
:1052B000014B1860704700BFB0060020F8B5084FDA
:1052C00006460D460024AC4208DA3B6898470A2897
:1052D000305504F1010401D00D28F4D12046F8BD69
:1052E000AC060020F8B50A4F0D46461EC0F1010479
:1052F000A3199D4201DC2846F8BD73780A2B02D120
:105300003B680D2098473B6816F8010F9847EFE778
:10531000B006002010B5074C2368C2180648C0F13B
:10532000005101F500318A423ABF2260C0184FF0A7
:10533000FF3010BD7C0B00200021002008B505487F
:1053400006F0A3FF002383F31188BFF36F8F0423BC
:10535000184602DF52EE00082DE9F041104E114FC1
:10536000054600244FF001082B7871691A19D2B252
:1053700008FA02F201EA02008A4309D153FA84F3DF
:10538000706157F833201AB107EBC303596890478F
:105390006A780134E3B29A42E6D2BDE8F08100BFF8
:1053A000003C0140800B0020044B184400230133D3
:1053B000994200F8012BFADC704700BF6808002012
:1053C00007B5062201210020FFF7EEFF002211465B
:1053D0000620FFF741FD012108460722FFF7E4FF01
:1053E000002211460720FFF737FD08220121022085
:1053F000FFF7DAFF002211460820FFF72DFD0922F2
:1054000001210320FFF7D0FF002211460920FFF7FA
:1054100023FD0A2201210420FFF7C6FF00221146C6
:105420000A20FFF719FD052108461722FFF7BCFFE8
:10543000002211461720FFF70FFD282206210A201F
:10544000FFF7B2FF002211462820FFF705FD4FF4B9
:10545000804307484422CDE9002383681B6823B1B9
:105460006946984703B05DF804FB6FF05700F9E711
:1054700014D70008034660B1B0FA80F2C2F11F02EF
:10548000D2B205498856054A11680B431360FFF7ED
:10549000D5BCFF22F5E700BF68080020003C0140B2
:1054A000024A136823EA000313607047003C01407E
:1054B000032921D8DFE801F0020C10190F4B9A687C
:1054C00022EA00029A60DA6822EA0002DA60704793
:1054D0000A4B9A680243F5E7084BDA680243DA6040
:1054E0009A6822EA00029A607047044B9A68024365
:1054F0009A60DA681043D860704700BF003C0140F2
:1055000030B5B0B1B0FA80F3C3F11F03DBB20B4882
:1055100050F833408C4204D100EBC3056D689542CE
:1055200005D044B940F8331000EBC30042600020BE
:1055300030BDFF23EBE76FF00F00F9E7800B002091
:1055400060B1B0FA80F3C3F11F03DBB2044A00215B
:1055500042F8331002EBC30251607047FF23F5E7B6
:10556000800B002000F00302043292000F239340CE
:1055700043EA9000C3B20233054A52F82320030CD9
:1055800002EA104093FAA3F3B3FA83F3D8407047CA
:105590000038014038B50888254BC0F30B000728B8
:1055A0001B680D46144614D810B96FF0850038BD3D
:1055B0000238052806D8DFE800F032033230202810
:1055C0004FF4FA4323602968B1F5805F29D20020A7
:1055D000EDE744280ED82F28E7D900F57D61C1F307
:1055E0000B0101228A4013490A42EBD14028DCD149
:1055F0005B08E7E7A828E5D0D7E700F0B1F84FF45B
:10560000C072C30853439B08DCE700F0A9F84FF4CD
:10561000C072C3085343DB08D4E7074BD2E700232B
:10562000D0E7C1F313310131B3FBF1F32360CEE7CF
:10563000E40600201101100000127A0070B5444DFC
:10564000444C00F0B5F8284607F0ADF800F08CFEA9
:10565000A368414AC3F30313D35C20FA03F613781B
:105660001D41AE4202D2284600F0C6FE236843F434
:1056700080232360236843F480332360354B1A680A
:105680009103FCD55A6F42F001025A675A6F920794
:10569000FCD59A6802F00C02082A17D11A68940700
:1056A00007D41A6842F001021A602A4A1368980760
:1056B000FCD5284B9A6822F003029A609A6812F08F
:1056C0000C0FFBD19A6822F0F0029A60214C2368FB
:1056D00023F08073236023689901FCD4636823F46A
:1056E000403343F480336360636823F0706343F0B6
:1056F0000063636000F038F8236843F08073236030
:10570000144B1A689201FCD59A6822F0F0029A6054
:105710009A6822F0030242F002029A609A6802F04C
:105720000C02082AFAD1AE4202D3284600F064FEE9
:105730000A4B074A1A60074A936823F4E05343F47C
:1057400080539360936823F460439360002070BD9E
:1057500000D8B80500380240B1F00008E406002087
:105760000048704700127A000C4B0D495A681140EE
:105770000C4A0A435A605A680B4922F4403242F4F8
:1057800080325A605A6822F0E04242F480325A6015
:105790005A681140054A0A435A607047003802406F
:1057A0000080BFFF086040000080BFF00860400834
:1057B000064B1A6C42F080521A641B6C82B003F0E4
:1057C00080530193019B02B0704700BF0038024034
:1057D00008B5074807F015FE38B10648FFF768FD21
:1057E0000448FDF717FD002008BD6FF01200FBE72D
:1057F00074D80008F95700080A2838B5074D044640
:1058000004D1AB680D215B6828469847AB68034814
:105810005B68E1B29847204638BD00BF74D80008E5
:105820002DE9F843D0F80480D0F81090D8F808009B
:1058300017460D461E4606F00DFFB7F5001F04463D
:1058400016D12846D8F80840FFF78CFE84420CD1C8
:10585000294606F0FFFE0446FFF722FE2046FFF72A
:105860006FFE00212046FFF723FE0020BDE8F883ED
:10587000B7F5800F20D0B6F1806F19D0B6F1C06FA8
:1058800018D0B6F1007F1AD1022610494A462046A8
:10589000FFF736FEB0B9D8F80810284606F0DDFE4E
:1058A00020463146FFF704FE2046FFF7E3FDDCE724
:1058B0000126EAE70326E8E76FF08500D6E76FF0F8
:1058C0001500D3E76FF00F00D0E700BF1BCA000838
:1058D00038B50369044658600A4D284607F091FD23
:1058E00060B1AB6861681B680C3123B128469847EA
:1058F00000EAE07038BD6FF05700F9E76FF0120072
:10590000F8E700BF14D7000810B502694368126AAF
:10591000DB68C2F34202012A04D0022A21D06FF0D0
:10592000150010BD58681F4AB1FBF2F220F03F008D
:1059300010435860186A013220F03F0002431A6297
:10594000194AB1FBF2F140F6FC72114208BF042182
:10595000DA6922F44F4222F0FF020A43DA610020A2
:10596000DFE758680F4AB1FBF2F220F03F00104326
:105970005860186A4FF49674624320F03F004FF469
:105980007A74B2FBF4F2013202431A62074A91427E
:1059900089BF013248F20101B1FBF2F141F400414B
:1059A000D6E700BF40420F00400D03007F4F1200BA
:1059B0001FB5026992F84C306BB9094A0949009346
:1059C000CDE901321846012207F0EEFA6FF004002B
:1059D00005B05DF804FB136A0B600020F8E700BF18
:1059E00018EF0008F0DC00087FB542680369D26850
:1059F00083F84E1031B9136823F01A03136007B00F
:105A00005DF804FB049103680393054B02930023A4
:105A1000CDE9003303490122184607F0C5FAEEE745
:105A200036EF0008F0DC0008F0B50446436806696C
:105A30001F48DD680F465968836887B0DB6800221D
:105A4000059273B91B4B02930023CDE900331A4929
:105A50000122184607F0A8FA6FF00404204607B0A8
:105A6000F0BD05AA98470028ECDB376206F1100765
:105A70004FF0FF324FF0FF33384601F03BF82B6810
:105A800023F001032B60204696F84E10FFF7ACFF81
:105A900020460599FFF738FF96F84D3004461BB1B4
:105AA0002B6843F001032B60384600F0EFFFD5E789
:105AB00014D700084AEF0008F0DC00082DE9F04395
:105AC00005464768066987B04FF0FF32002130462F
:105AD00007F0F0FC4FF000093B682846984786F82D
:105AE0004C9086F84E900122114606F1100007F006
:105AF000E1FC434C204607F084FC034668B9414A68
:105B000041490090CDE90102012207F04DFA6FF002
